{
  "contractName": "TicTacToe",
  "abi": [
    {
      "inputs": [
        {
          "internalType": "uint256",
          "name": "_id",
          "type": "uint256"
        },
        {
          "internalType": "address",
          "name": "_registrator",
          "type": "address"
        }
      ],
      "stateMutability": "nonpayable",
      "type": "constructor"
    },
    {
      "anonymous": false,
      "inputs": [
        {
          "indexed": false,
          "internalType": "uint256",
          "name": "_id",
          "type": "uint256"
        },
        {
          "indexed": false,
          "internalType": "uint256",
          "name": "_when",
          "type": "uint256"
        },
        {
          "indexed": false,
          "internalType": "uint256",
          "name": "_turn",
          "type": "uint256"
        }
      ],
      "name": "Draw",
      "type": "event"
    },
    {
      "anonymous": false,
      "inputs": [
        {
          "indexed": false,
          "internalType": "uint256",
          "name": "_id",
          "type": "uint256"
        },
        {
          "indexed": false,
          "internalType": "uint256",
          "name": "_when",
          "type": "uint256"
        },
        {
          "indexed": false,
          "internalType": "uint256",
          "name": "_turn",
          "type": "uint256"
        },
        {
          "indexed": false,
          "internalType": "uint256",
          "name": "_balance",
          "type": "uint256"
        },
        {
          "indexed": false,
          "internalType": "uint256",
          "name": "_pot",
          "type": "uint256"
        }
      ],
      "name": "End",
      "type": "event"
    },
    {
      "anonymous": false,
      "inputs": [
        {
          "indexed": false,
          "internalType": "uint256",
          "name": "_id",
          "type": "uint256"
        },
        {
          "indexed": false,
          "internalType": "uint256",
          "name": "_when",
          "type": "uint256"
        }
      ],
      "name": "FirstMove",
      "type": "event"
    },
    {
      "anonymous": false,
      "inputs": [
        {
          "indexed": false,
          "internalType": "uint256",
          "name": "_id",
          "type": "uint256"
        },
        {
          "indexed": false,
          "internalType": "address",
          "name": "_who",
          "type": "address"
        },
        {
          "indexed": false,
          "internalType": "uint256",
          "name": "_turn",
          "type": "uint256"
        },
        {
          "indexed": false,
          "internalType": "uint256",
          "name": "_pos",
          "type": "uint256"
        },
        {
          "indexed": false,
          "internalType": "uint256",
          "name": "_when",
          "type": "uint256"
        }
      ],
      "name": "Move",
      "type": "event"
    },
    {
      "anonymous": false,
      "inputs": [
        {
          "indexed": false,
          "internalType": "uint256",
          "name": "_id",
          "type": "uint256"
        },
        {
          "indexed": false,
          "internalType": "address",
          "name": "_who",
          "type": "address"
        },
        {
          "indexed": false,
          "internalType": "uint256",
          "name": "_when",
          "type": "uint256"
        },
        {
          "indexed": false,
          "internalType": "uint256",
          "name": "_turn",
          "type": "uint256"
        }
      ],
      "name": "OWin",
      "type": "event"
    },
    {
      "anonymous": false,
      "inputs": [
        {
          "indexed": false,
          "internalType": "uint256",
          "name": "_id",
          "type": "uint256"
        },
        {
          "indexed": false,
          "internalType": "address",
          "name": "_who",
          "type": "address"
        },
        {
          "indexed": false,
          "internalType": "uint256",
          "name": "_when",
          "type": "uint256"
        }
      ],
      "name": "PlayerOJoined",
      "type": "event"
    },
    {
      "anonymous": false,
      "inputs": [
        {
          "indexed": false,
          "internalType": "uint256",
          "name": "_id",
          "type": "uint256"
        },
        {
          "indexed": false,
          "internalType": "address",
          "name": "_who",
          "type": "address"
        },
        {
          "indexed": false,
          "internalType": "uint256",
          "name": "_when",
          "type": "uint256"
        }
      ],
      "name": "PlayerXJoined",
      "type": "event"
    },
    {
      "anonymous": false,
      "inputs": [
        {
          "indexed": false,
          "internalType": "uint256",
          "name": "_id",
          "type": "uint256"
        },
        {
          "indexed": false,
          "internalType": "uint256",
          "name": "_when",
          "type": "uint256"
        },
        {
          "indexed": false,
          "internalType": "address",
          "name": "_who",
          "type": "address"
        }
      ],
      "name": "Registered",
      "type": "event"
    },
    {
      "anonymous": false,
      "inputs": [
        {
          "indexed": false,
          "internalType": "uint256",
          "name": "_id",
          "type": "uint256"
        },
        {
          "indexed": false,
          "internalType": "address",
          "name": "_who",
          "type": "address"
        },
        {
          "indexed": false,
          "internalType": "uint256",
          "name": "_value",
          "type": "uint256"
        }
      ],
      "name": "Transfer",
      "type": "event"
    },
    {
      "anonymous": false,
      "inputs": [
        {
          "indexed": false,
          "internalType": "uint256",
          "name": "_id",
          "type": "uint256"
        },
        {
          "indexed": false,
          "internalType": "address",
          "name": "_who",
          "type": "address"
        },
        {
          "indexed": false,
          "internalType": "uint256",
          "name": "_when",
          "type": "uint256"
        },
        {
          "indexed": false,
          "internalType": "uint256",
          "name": "_turn",
          "type": "uint256"
        }
      ],
      "name": "XWin",
      "type": "event"
    },
    {
      "inputs": [
        {
          "internalType": "uint256",
          "name": "",
          "type": "uint256"
        }
      ],
      "name": "board",
      "outputs": [
        {
          "internalType": "uint256",
          "name": "",
          "type": "uint256"
        }
      ],
      "stateMutability": "view",
      "type": "function"
    },
    {
      "inputs": [],
      "name": "ended",
      "outputs": [
        {
          "internalType": "uint256",
          "name": "",
          "type": "uint256"
        }
      ],
      "stateMutability": "view",
      "type": "function"
    },
    {
      "inputs": [],
      "name": "id",
      "outputs": [
        {
          "internalType": "uint256",
          "name": "",
          "type": "uint256"
        }
      ],
      "stateMutability": "view",
      "type": "function"
    },
    {
      "inputs": [
        {
          "internalType": "uint256",
          "name": "",
          "type": "uint256"
        }
      ],
      "name": "moves",
      "outputs": [
        {
          "internalType": "address",
          "name": "who",
          "type": "address"
        },
        {
          "internalType": "uint256",
          "name": "when",
          "type": "uint256"
        },
        {
          "internalType": "uint256",
          "name": "turn",
          "type": "uint256"
        },
        {
          "internalType": "uint256",
          "name": "pos",
          "type": "uint256"
        }
      ],
      "stateMutability": "view",
      "type": "function"
    },
    {
      "inputs": [],
      "name": "playerO",
      "outputs": [
        {
          "internalType": "address",
          "name": "",
          "type": "address"
        }
      ],
      "stateMutability": "view",
      "type": "function"
    },
    {
      "inputs": [],
      "name": "playerX",
      "outputs": [
        {
          "internalType": "address",
          "name": "",
          "type": "address"
        }
      ],
      "stateMutability": "view",
      "type": "function"
    },
    {
      "inputs": [],
      "name": "registered",
      "outputs": [
        {
          "internalType": "uint256",
          "name": "",
          "type": "uint256"
        }
      ],
      "stateMutability": "view",
      "type": "function"
    },
    {
      "inputs": [],
      "name": "registrator",
      "outputs": [
        {
          "internalType": "address",
          "name": "",
          "type": "address"
        }
      ],
      "stateMutability": "view",
      "type": "function"
    },
    {
      "inputs": [],
      "name": "started",
      "outputs": [
        {
          "internalType": "uint256",
          "name": "",
          "type": "uint256"
        }
      ],
      "stateMutability": "view",
      "type": "function"
    },
    {
      "inputs": [],
      "name": "timeout",
      "outputs": [
        {
          "internalType": "uint256",
          "name": "",
          "type": "uint256"
        }
      ],
      "stateMutability": "view",
      "type": "function"
    },
    {
      "inputs": [],
      "name": "turn",
      "outputs": [
        {
          "internalType": "uint256",
          "name": "",
          "type": "uint256"
        }
      ],
      "stateMutability": "view",
      "type": "function"
    },
    {
      "inputs": [],
      "name": "name",
      "outputs": [
        {
          "internalType": "string",
          "name": "",
          "type": "string"
        }
      ],
      "stateMutability": "pure",
      "type": "function"
    },
    {
      "inputs": [],
      "name": "isActive",
      "outputs": [
        {
          "internalType": "bool",
          "name": "",
          "type": "bool"
        }
      ],
      "stateMutability": "view",
      "type": "function"
    },
    {
      "inputs": [],
      "name": "isOpen",
      "outputs": [
        {
          "internalType": "bool",
          "name": "",
          "type": "bool"
        }
      ],
      "stateMutability": "view",
      "type": "function"
    },
    {
      "inputs": [],
      "name": "hasTimedOut",
      "outputs": [
        {
          "internalType": "bool",
          "name": "",
          "type": "bool"
        }
      ],
      "stateMutability": "view",
      "type": "function"
    },
    {
      "inputs": [
        {
          "internalType": "address",
          "name": "player",
          "type": "address"
        }
      ],
      "name": "registerX",
      "outputs": [],
      "stateMutability": "payable",
      "type": "function"
    },
    {
      "inputs": [
        {
          "internalType": "address",
          "name": "player",
          "type": "address"
        }
      ],
      "name": "registerO",
      "outputs": [],
      "stateMutability": "payable",
      "type": "function"
    },
    {
      "inputs": [
        {
          "internalType": "uint256",
          "name": "_pos",
          "type": "uint256"
        }
      ],
      "name": "move",
      "outputs": [],
      "stateMutability": "nonpayable",
      "type": "function"
    },
    {
      "inputs": [],
      "name": "calculateCasinoFee",
      "outputs": [
        {
          "internalType": "uint256",
          "name": "",
          "type": "uint256"
        }
      ],
      "stateMutability": "view",
      "type": "function"
    },
    {
      "inputs": [],
      "name": "calculateEarnings",
      "outputs": [
        {
          "internalType": "uint256",
          "name": "",
          "type": "uint256"
        }
      ],
      "stateMutability": "view",
      "type": "function"
    },
    {
      "inputs": [],
      "name": "winner",
      "outputs": [
        {
          "internalType": "address",
          "name": "",
          "type": "address"
        }
      ],
      "stateMutability": "view",
      "type": "function"
    },
    {
      "inputs": [],
      "name": "draw",
      "outputs": [
        {
          "internalType": "bool",
          "name": "",
          "type": "bool"
        }
      ],
      "stateMutability": "view",
      "type": "function"
    },
    {
      "inputs": [],
      "name": "claimFees",
      "outputs": [],
      "stateMutability": "nonpayable",
      "type": "function"
    }
  ],
  "bytecode": "0x608060405266038d7ea4c6800060005533600160006101000a81548173ffffffffffffffffffffffffffffffffffffffff021916908373ffffffffffffffffffffffffffffffffffffffff16021790555042600355610e1060045560006009556000600a553480156200007157600080fd5b5060405162002d2238038062002d22833981810160405281019062000097919062000156565b8160088190555080600260006101000a81548173ffffffffffffffffffffffffffffffffffffffff021916908373ffffffffffffffffffffffffffffffffffffffff1602179055507f19ef3a90ba0bbfeb1f5f68452b45c638804b6d9dd44829975c53b83c1ac21ed3600854600354836040516200011893929190620001bf565b60405180910390a1505062000273565b60008151905062000139816200023f565b92915050565b600081519050620001508162000259565b92915050565b6000806040838503121562000170576200016f6200023a565b5b600062000180858286016200013f565b9250506020620001938582860162000128565b9150509250929050565b620001a881620001fc565b82525050565b620001b98162000230565b82525050565b6000606082019050620001d66000830186620001ae565b620001e56020830185620001ae565b620001f460408301846200019d565b949350505050565b6000620002098262000210565b9050919050565b600073ffffffffffffffffffffffffffffffffffffffff82169050919050565b6000819050919050565b600080fd5b6200024a81620001fc565b81146200025657600080fd5b50565b620002648162000230565b81146200027057600080fd5b50565b612a9f80620002836000396000f3fe6080604052600436106101405760003560e01c80634cdea7d2116100b65780638b2999031161006f5780638b29990314610427578063af640d0f14610452578063c6ed20c51461047d578063d294f093146104a8578063dfbf53ae146104bf578063e7dafa6e146104ea57610140565b80634cdea7d21461033057806368aaa92f1461035b57806370dea79a14610377578063769287de146103a25780637698baec146103be57806387cb15f7146103fe57610140565b806312fa6feb1161010857806312fa6feb1461021c5780631f2698ab1461024757806322f3e2d41461027257806328ed6e3f1461029d5780632de40ce3146102da57806347535d7b1461030557610140565b80630628884f1461014557806306fdde03146101705780630803efa11461019b57806309eaf723146101c65780630eecae21146101f1575b600080fd5b34801561015157600080fd5b5061015a610515565b6040516101679190612047565b60405180910390f35b34801561017c57600080fd5b5061018561053b565b6040516101929190612062565b60405180910390f35b3480156101a757600080fd5b506101b0610578565b6040516101bd9190612264565b60405180910390f35b3480156101d257600080fd5b506101db6105ab565b6040516101e89190612264565b60405180910390f35b3480156101fd57600080fd5b506102066105de565b6040516102139190612047565b60405180910390f35b34801561022857600080fd5b50610231610674565b60405161023e9190612264565b60405180910390f35b34801561025357600080fd5b5061025c61067a565b6040516102699190612264565b60405180910390f35b34801561027e57600080fd5b50610287610680565b6040516102949190612047565b60405180910390f35b3480156102a957600080fd5b506102c460048036038101906102bf9190611d47565b61068c565b6040516102d19190612264565b60405180910390f35b3480156102e657600080fd5b506102ef6106a7565b6040516102fc9190612264565b60405180910390f35b34801561031157600080fd5b5061031a6106ad565b6040516103279190612047565b60405180910390f35b34801561033c57600080fd5b5061034561076c565b6040516103529190611fe7565b60405180910390f35b61037560048036038101906103709190611d1a565b610792565b005b34801561038357600080fd5b5061038c610a62565b6040516103999190612264565b60405180910390f35b6103bc60048036038101906103b79190611d1a565b610a68565b005b3480156103ca57600080fd5b506103e560048036038101906103e09190611d47565b610d38565b6040516103f59493929190612002565b60405180910390f35b34801561040a57600080fd5b5061042560048036038101906104209190611d47565b610d98565b005b34801561043357600080fd5b5061043c61143d565b6040516104499190612264565b60405180910390f35b34801561045e57600080fd5b50610467611443565b6040516104749190612264565b60405180910390f35b34801561048957600080fd5b50610492611449565b60405161049f9190611fe7565b60405180910390f35b3480156104b457600080fd5b506104bd61146f565b005b3480156104cb57600080fd5b506104d46115be565b6040516104e19190611fe7565b60405180910390f35b3480156104f657600080fd5b506104ff61187c565b60405161050c9190611fe7565b60405180910390f35b6000806005541180156105365750600454600554610533919061241d565b42115b905090565b60606040518060400160405280600b81526020017f5469632054616320546f65000000000000000000000000000000000000000000815250905090565b600080600260095461058a91906124a4565b9050606460038261059b91906124a4565b6105a59190612473565b91505090565b60008060026009546105bd91906124a4565b905060006105c9610578565b905080826105d791906124fe565b9250505090565b60008073ffffffffffffffffffffffffffffffffffffffff166105ff6115be565b73ffffffffffffffffffffffffffffffffffffffff1614156106245760009050610671565b60005b600981101561066b576000600d826009811061064657610645612685565b5b01541415610658576000915050610671565b8080610663906125ad565b915050610627565b50600190505b90565b60065481565b60055481565b60008060065414905090565b600d816009811061069c57600080fd5b016000915090505481565b60035481565b6000806005541480156107675750600073ffffffffffffffffffffffffffffffffffffffff16600b60009054906101000a900473ffffffffffffffffffffffffffffffffffffffff1673ffffffffffffffffffffffffffffffffffffffff1614806107665750600073ffffffffffffffffffffffffffffffffffffffff16600c60009054906101000a900473ffffffffffffffffffffffffffffffffffffffff1673ffffffffffffffffffffffffffffffffffffffff16145b5b905090565b600b60009054906101000a900473ffffffffffffffffffffffffffffffffffffffff1681565b600073ffffffffffffffffffffffffffffffffffffffff16600b60009054906101000a900473ffffffffffffffffffffffffffffffffffffffff1673ffffffffffffffffffffffffffffffffffffffff1614610823576040517f08c379a000000000000000000000000000000000000000000000000000000000815260040161081a906121c4565b60405180910390fd5b8073ffffffffffffffffffffffffffffffffffffffff163373ffffffffffffffffffffffffffffffffffffffff1614806108aa57508073ffffffffffffffffffffffffffffffffffffffff16600260009054906101000a900473ffffffffffffffffffffffffffffffffffffffff1673ffffffffffffffffffffffffffffffffffffffff16145b6108e9576040517f08c379a00000000000000000000000000000000000000000000000000000000081526004016108e0906120c4565b60405180910390fd5b8073ffffffffffffffffffffffffffffffffffffffff16600c60009054906101000a900473ffffffffffffffffffffffffffffffffffffffff1673ffffffffffffffffffffffffffffffffffffffff16141561097a576040517f08c379a000000000000000000000000000000000000000000000000000000000815260040161097190612224565b60405180910390fd5b6000543411801561098d57506009543410155b6109cc576040517f08c379a00000000000000000000000000000000000000000000000000000000081526004016109c390612084565b60405180910390fd5b60006009541180156109df575060095434115b15610a0b57600954346109f291906124fe565b600a6000828254610a03919061241d565b925050819055505b60006009541415610a1e57346009819055505b80600b60006101000a81548173ffffffffffffffffffffffffffffffffffffffff021916908373ffffffffffffffffffffffffffffffffffffffff16021790555050565b60045481565b600073ffffffffffffffffffffffffffffffffffffffff16600c60009054906101000a900473ffffffffffffffffffffffffffffffffffffffff1673ffffffffffffffffffffffffffffffffffffffff1614610af9576040517f08c379a0000000000000000000000000000000000000000000000000000000008152600401610af090612164565b60405180910390fd5b8073ffffffffffffffffffffffffffffffffffffffff163373ffffffffffffffffffffffffffffffffffffffff161480610b8057508073ffffffffffffffffffffffffffffffffffffffff16600260009054906101000a900473ffffffffffffffffffffffffffffffffffffffff1673ffffffffffffffffffffffffffffffffffffffff16145b610bbf576040517f08c379a0000000000000000000000000000000000000000000000000000000008152600401610bb6906120c4565b60405180910390fd5b8073ffffffffffffffffffffffffffffffffffffffff16600b60009054906101000a900473ffffffffffffffffffffffffffffffffffffffff1673ffffffffffffffffffffffffffffffffffffffff161415610c50576040517f08c379a0000000000000000000000000000000000000000000000000000000008152600401610c4790612204565b60405180910390fd5b60005434118015610c6357506009543410155b610ca2576040517f08c379a0000000000000000000000000000000000000000000000000000000008152600401610c9990612084565b60405180910390fd5b6000600954118015610cb5575060095434115b15610ce15760095434610cc891906124fe565b600a6000828254610cd9919061241d565b925050819055505b60006009541415610cf457346009819055505b80600c60006101000a81548173ffffffffffffffffffffffffffffffffffffffff021916908373ffffffffffffffffffffffffffffffffffffffff16021790555050565b60078181548110610d4857600080fd5b90600052602060002090600402016000915090508060000160009054906101000a900473ffffffffffffffffffffffffffffffffffffffff16908060010154908060020154908060030154905084565b600b60009054906101000a900473ffffffffffffffffffffffffffffffffffffffff1673ffffffffffffffffffffffffffffffffffffffff163373ffffffffffffffffffffffffffffffffffffffff161480610e415750600c60009054906101000a900473ffffffffffffffffffffffffffffffffffffffff1673ffffffffffffffffffffffffffffffffffffffff163373ffffffffffffffffffffffffffffffffffffffff16145b610e80576040517f08c379a0000000000000000000000000000000000000000000000000000000008152600401610e7790612244565b60405180910390fd5b610e88610515565b15610ec8576040517f08c379a0000000000000000000000000000000000000000000000000000000008152600401610ebf906121e4565b60405180910390fd5b610ed06105de565b15610f10576040517f08c379a0000000000000000000000000000000000000000000000000000000008152600401610f07906120a4565b60405180910390fd5b600073ffffffffffffffffffffffffffffffffffffffff16610f306115be565b73ffffffffffffffffffffffffffffffffffffffff1614610f86576040517f08c379a0000000000000000000000000000000000000000000000000000000008152600401610f7d90612104565b60405180910390fd5b60006002601654610f9791906125f6565b141561103257600b60009054906101000a900473ffffffffffffffffffffffffffffffffffffffff1673ffffffffffffffffffffffffffffffffffffffff163373ffffffffffffffffffffffffffffffffffffffff161461102d576040517f08c379a000000000000000000000000000000000000000000000000000000000815260040161102490612124565b60405180910390fd5b6110c3565b600c60009054906101000a900473ffffffffffffffffffffffffffffffffffffffff1673ffffffffffffffffffffffffffffffffffffffff163373ffffffffffffffffffffffffffffffffffffffff16146110c2576040517f08c379a00000000000000000000000000000000000000000000000000000000081526004016110b990612144565b60405180910390fd5b5b6110cc816118a2565b61110b576040517f08c379a0000000000000000000000000000000000000000000000000000000008152600401611102906120e4565b60405180910390fd5b61111581336118c3565b7f09f853bad0e9fd288767f94d5352103a9754dea6473752ae14f47506eb2b6f466008543360165484426040516111509594939291906122fb565b60405180910390a1600760405180608001604052803373ffffffffffffffffffffffffffffffffffffffff168152602001428152602001601654815260200183815250908060018154018082558091505060019003906000526020600020906004020160009091909190915060008201518160000160006101000a81548173ffffffffffffffffffffffffffffffffffffffff021916908373ffffffffffffffffffffffffffffffffffffffff16021790555060208201518160010155604082015181600201556060820151816003015550506000601654141561127157426005819055507f8c3d3281fd6f616518175932f5201290f693ec5536ccbb2e06c965d4a6a1aeba6008544260405161126892919061234e565b60405180910390a15b600160166000828254611284919061241d565b9250508190555060006112956115be565b905061129f6105de565b156112f1577f79c638881fbfa6a03de3e6af82cf35831eec3d7db9c452bd99e844ae639aa67b600854426016546040516112db93929190612377565b60405180910390a16112ec81611959565b611439565b600b60009054906101000a900473ffffffffffffffffffffffffffffffffffffffff1673ffffffffffffffffffffffffffffffffffffffff168173ffffffffffffffffffffffffffffffffffffffff161415611396577f0dc021c80b0c4225e226e926064e6854dbc09db3f2098d4cce23f6a50f43ebf2600854824260165460405161138094939291906122b6565b60405180910390a161139181611959565b611438565b600c60009054906101000a900473ffffffffffffffffffffffffffffffffffffffff1673ffffffffffffffffffffffffffffffffffffffff168173ffffffffffffffffffffffffffffffffffffffff161415611437577f63a605b6afe342bf5af086afb7fe37337c94c912b8bcb89eaabdfe300fafd475600854824260165460405161142594939291906122b6565b60405180910390a161143681611959565b5b5b5b5050565b60165481565b60085481565b600260009054906101000a900473ffffffffffffffffffffffffffffffffffffffff1681565b600160009054906101000a900473ffffffffffffffffffffffffffffffffffffffff1673ffffffffffffffffffffffffffffffffffffffff163373ffffffffffffffffffffffffffffffffffffffff16146114ff576040517f08c379a00000000000000000000000000000000000000000000000000000000081526004016114f6906121a4565b60405180910390fd5b600060065411806115145750611513610515565b5b611553576040517f08c379a000000000000000000000000000000000000000000000000000000000815260040161154a90612184565b60405180910390fd5b600160009054906101000a900473ffffffffffffffffffffffffffffffffffffffff1673ffffffffffffffffffffffffffffffffffffffff166108fc479081150290604051600060405180830381858888f193505050501580156115bb573d6000803e3d6000fd5b50565b600080600090506000600190505b600281116118725760005b60038110156116b7576001925060005b600381101561163f5782600d8260038561160191906124a4565b61160b919061241d565b6009811061161c5761161b612685565b5b01541461162c576000935061163f565b8080611637906125ad565b9150506115e7565b5082156116a4576001821461167657600c60009054906101000a900473ffffffffffffffffffffffffffffffffffffffff1661169a565b600b60009054906101000a900473ffffffffffffffffffffffffffffffffffffffff165b9350505050611879565b80806116af906125ad565b9150506115d7565b5060005b600381101561179b576001925060005b60038110156117235782600d836003846116e591906124a4565b6116ef919061241d565b60098110611700576116ff612685565b5b0154146117105760009350611723565b808061171b906125ad565b9150506116cb565b508215611788576001821461175a57600c60009054906101000a900473ffffffffffffffffffffffffffffffffffffffff1661177e565b600b60009054906101000a900473ffffffffffffffffffffffffffffffffffffffff165b9350505050611879565b8080611793906125ad565b9150506116bb565b506001915060005b60038110156117fb5781600d826003846117bd91906124a4565b6117c7919061241d565b600981106117d8576117d7612685565b5b0154146117e857600092506117fb565b80806117f3906125ad565b9150506117a3565b50811561185f576001811461183257600c60009054906101000a900473ffffffffffffffffffffffffffffffffffffffff16611856565b600b60009054906101000a900473ffffffffffffffffffffffffffffffffffffffff165b92505050611879565b808061186a906125ad565b9150506115cc565b5060009150505b90565b600c60009054906101000a900473ffffffffffffffffffffffffffffffffffffffff1681565b600080600d83600981106118b9576118b8612685565b5b0154149050919050565b600b60009054906101000a900473ffffffffffffffffffffffffffffffffffffffff1673ffffffffffffffffffffffffffffffffffffffff168173ffffffffffffffffffffffffffffffffffffffff161415611939576001600d836009811061192f5761192e612685565b5b0181905550611955565b6002600d836009811061194f5761194e612685565b5b01819055505b5050565b426006819055507f8cbe327372308d79e2d124476bc6d364529ae64f8d2bdf53da7a6f8c345f365f60085442601654476119916105ab565b6040516119a29594939291906123ae565b60405180910390a1600073ffffffffffffffffffffffffffffffffffffffff168173ffffffffffffffffffffffffffffffffffffffff161415611b8d57600060026119eb6105ab565b6119f59190612473565b9050600b60009054906101000a900473ffffffffffffffffffffffffffffffffffffffff1673ffffffffffffffffffffffffffffffffffffffff166108fc829081150290604051600060405180830381858888f19350505050158015611a5f573d6000803e3d6000fd5b507f2e90d1cd7a5e9a5b99747c36130d866c8687bff313d44cdd245df73bcda43621600854600b60009054906101000a900473ffffffffffffffffffffffffffffffffffffffff1683604051611ab79392919061227f565b60405180910390a1600c60009054906101000a900473ffffffffffffffffffffffffffffffffffffffff1673ffffffffffffffffffffffffffffffffffffffff166108fc829081150290604051600060405180830381858888f19350505050158015611b27573d6000803e3d6000fd5b507f2e90d1cd7a5e9a5b99747c36130d866c8687bff313d44cdd245df73bcda43621600854600c60009054906101000a900473ffffffffffffffffffffffffffffffffffffffff1683604051611b7f9392919061227f565b60405180910390a150611c1f565b6000611b976105ab565b90508173ffffffffffffffffffffffffffffffffffffffff166108fc829081150290604051600060405180830381858888f19350505050158015611bdf573d6000803e3d6000fd5b507f2e90d1cd7a5e9a5b99747c36130d866c8687bff313d44cdd245df73bcda436216008548383604051611c159392919061227f565b60405180910390a1505b6000479050600160009054906101000a900473ffffffffffffffffffffffffffffffffffffffff1673ffffffffffffffffffffffffffffffffffffffff166108fc829081150290604051600060405180830381858888f19350505050158015611c8c573d6000803e3d6000fd5b507f2e90d1cd7a5e9a5b99747c36130d866c8687bff313d44cdd245df73bcda43621600854600160009054906101000a900473ffffffffffffffffffffffffffffffffffffffff1683604051611ce49392919061227f565b60405180910390a15050565b600081359050611cff81612a3b565b92915050565b600081359050611d1481612a52565b92915050565b600060208284031215611d3057611d2f6126b4565b5b6000611d3e84828501611cf0565b91505092915050565b600060208284031215611d5d57611d5c6126b4565b5b6000611d6b84828501611d05565b91505092915050565b611d7d81612532565b82525050565b611d8c81612544565b82525050565b6000611d9d82612401565b611da7818561240c565b9350611db781856020860161257a565b611dc0816126b9565b840191505092915050565b6000611dd860208361240c565b9150611de3826126ca565b602082019050919050565b6000611dfb602a8361240c565b9150611e06826126f3565b604082019050919050565b6000611e1e60358361240c565b9150611e2982612742565b604082019050919050565b6000611e4160208361240c565b9150611e4c82612791565b602082019050919050565b6000611e64602c8361240c565b9150611e6f826127ba565b604082019050919050565b6000611e8760148361240c565b9150611e9282612809565b602082019050919050565b6000611eaa60148361240c565b9150611eb582612832565b602082019050919050565b6000611ecd601e8361240c565b9150611ed88261285b565b602082019050919050565b6000611ef0601c8361240c565b9150611efb82612884565b602082019050919050565b6000611f13601a8361240c565b9150611f1e826128ad565b602082019050919050565b6000611f36601e8361240c565b9150611f41826128d6565b602082019050919050565b6000611f59602d8361240c565b9150611f64826128ff565b604082019050919050565b6000611f7c60278361240c565b9150611f878261294e565b604082019050919050565b6000611f9f60278361240c565b9150611faa8261299d565b604082019050919050565b6000611fc260258361240c565b9150611fcd826129ec565b604082019050919050565b611fe181612570565b82525050565b6000602082019050611ffc6000830184611d74565b92915050565b60006080820190506120176000830187611d74565b6120246020830186611fd8565b6120316040830185611fd8565b61203e6060830184611fd8565b95945050505050565b600060208201905061205c6000830184611d83565b92915050565b6000602082019050818103600083015261207c8184611d92565b905092915050565b6000602082019050818103600083015261209d81611dcb565b9050919050565b600060208201905081810360008301526120bd81611dee565b9050919050565b600060208201905081810360008301526120dd81611e11565b9050919050565b600060208201905081810360008301526120fd81611e34565b9050919050565b6000602082019050818103600083015261211d81611e57565b9050919050565b6000602082019050818103600083015261213d81611e7a565b9050919050565b6000602082019050818103600083015261215d81611e9d565b9050919050565b6000602082019050818103600083015261217d81611ec0565b9050919050565b6000602082019050818103600083015261219d81611ee3565b9050919050565b600060208201905081810360008301526121bd81611f06565b9050919050565b600060208201905081810360008301526121dd81611f29565b9050919050565b600060208201905081810360008301526121fd81611f4c565b9050919050565b6000602082019050818103600083015261221d81611f6f565b9050919050565b6000602082019050818103600083015261223d81611f92565b9050919050565b6000602082019050818103600083015261225d81611fb5565b9050919050565b60006020820190506122796000830184611fd8565b92915050565b60006060820190506122946000830186611fd8565b6122a16020830185611d74565b6122ae6040830184611fd8565b949350505050565b60006080820190506122cb6000830187611fd8565b6122d86020830186611d74565b6122e56040830185611fd8565b6122f26060830184611fd8565b95945050505050565b600060a0820190506123106000830188611fd8565b61231d6020830187611d74565b61232a6040830186611fd8565b6123376060830185611fd8565b6123446080830184611fd8565b9695505050505050565b60006040820190506123636000830185611fd8565b6123706020830184611fd8565b9392505050565b600060608201905061238c6000830186611fd8565b6123996020830185611fd8565b6123a66040830184611fd8565b949350505050565b600060a0820190506123c36000830188611fd8565b6123d06020830187611fd8565b6123dd6040830186611fd8565b6123ea6060830185611fd8565b6123f76080830184611fd8565b9695505050505050565b600081519050919050565b600082825260208201905092915050565b600061242882612570565b915061243383612570565b9250827fffffffffffffffffffffffffffffffffffffffffffffffffffffffffffffffff0382111561246857612467612627565b5b828201905092915050565b600061247e82612570565b915061248983612570565b92508261249957612498612656565b5b828204905092915050565b60006124af82612570565b91506124ba83612570565b9250817fffffffffffffffffffffffffffffffffffffffffffffffffffffffffffffffff04831182151516156124f3576124f2612627565b5b828202905092915050565b600061250982612570565b915061251483612570565b92508282101561252757612526612627565b5b828203905092915050565b600061253d82612550565b9050919050565b60008115159050919050565b600073ffffffffffffffffffffffffffffffffffffffff82169050919050565b6000819050919050565b60005b8381101561259857808201518184015260208101905061257d565b838111156125a7576000848401525b50505050565b60006125b882612570565b91507fffffffffffffffffffffffffffffffffffffffffffffffffffffffffffffffff8214156125eb576125ea612627565b5b600182019050919050565b600061260182612570565b915061260c83612570565b92508261261c5761261b612656565b5b828206905092915050565b7f4e487b7100000000000000000000000000000000000000000000000000000000600052601160045260246000fd5b7f4e487b7100000000000000000000000000000000000000000000000000000000600052601260045260246000fd5b7f4e487b7100000000000000000000000000000000000000000000000000000000600052603260045260246000fd5b600080fd5b6000601f19601f8301169050919050565b7f412062657420697320726571756972656420746f207061727469636970617465600082015250565b7f546869732067616d652068617320616c726561647920656e646564202872656160008201527f736f6e3a20647261772900000000000000000000000000000000000000000000602082015250565b7f4f6e6c79207468652073656e646572206f72207468652072656769737472617460008201527f6f722063616e2073656c65637420706c61796572730000000000000000000000602082015250565b7f5468617420706f736974696f6e20697320616c726561647920706c6179656421600082015250565b7f546869732067616d652068617320616c726561647920656e646564202872656160008201527f736f6e3a2077696e6e6572290000000000000000000000000000000000000000602082015250565b7f49747320706c6179657220582773207475726e21000000000000000000000000600082015250565b7f49747320706c61796572204f2773207475726e21000000000000000000000000600082015250565b7f506c61796572204f20697320616c726561647920726567697374657265640000600082015250565b7f546869732067616d6520686173206e6f7420656e646564207965742100000000600082015250565b7f4f6e6c7920616c6c6f77656420666f7220746865206f6e776572000000000000600082015250565b7f506c61796572205820697320616c726561647920726567697374657265640000600082015250565b7f546869732067616d652068617320616c726561647920656e646564202872656160008201527f736f6e3a2074696d656f75742900000000000000000000000000000000000000602082015250565b7f506c61796572204f2063616e6e6f74206265207468652073616d65206173207060008201527f6c61796572205800000000000000000000000000000000000000000000000000602082015250565b7f506c6179657220582063616e6e6f74206265207468652073616d65206173207060008201527f6c61796572204f00000000000000000000000000000000000000000000000000602082015250565b7f4f6e6c7920616c6c6f77656420666f7220706c6179657273206f66207468697360008201527f2067616d65000000000000000000000000000000000000000000000000000000602082015250565b612a4481612532565b8114612a4f57600080fd5b50565b612a5b81612570565b8114612a6657600080fd5b5056fea264697066735822122050f54ce72bb9a1b9e488582ec4a1c2d20ba0181eec1ed363466e45aa32a2115f64736f6c63430008060033",
  "immutableReferences": {},
  "source": "// SPDX-License-Identifier: MIT\npragma solidity ^0.8.0;\n\nimport './Game.sol';\n\ncontract TicTacToe is Game {\n\n  event Registered(uint _id, uint _when, address _who);\n  event PlayerXJoined(uint _id, address _who, uint _when);\n  event PlayerOJoined(uint _id, address _who, uint _when);\n  event FirstMove(uint _id, uint _when);\n  event Move(uint _id, address _who, uint _turn, uint _pos, uint _when);\n  event End(uint _id, uint _when, uint _turn, uint _balance, uint _pot);\n  event Draw(uint _id, uint _when, uint _turn);\n  event XWin(uint _id, address _who, uint _when, uint _turn);\n  event OWin(uint _id, address _who, uint _when, uint _turn);\n  event Transfer(uint _id, address _who, uint _value);\n\n  struct Movement {\n    address who;\n    uint when;\n    uint turn;\n    uint pos;\n  }\n\n  uint minBet = 0.001 ether;\n  address _owner = msg.sender; // casino that owns the game\n  address public registrator; // player that registered the game in the first place\n\n  // timestamps\n  uint public registered = block.timestamp;\n  uint public timeout = 1 hours;\n  uint public started;\n  uint public ended;\n\n  // record movements\n  Movement[] public moves;\n\n  uint public id;\n  uint private bet = 0;\n  uint private tip = 0;\n\n  address public playerX;\n  address public playerO;\n\n  uint[9] public board;\n  uint public turn;\n\n  modifier onlyPlayers() {\n    require(msg.sender == playerX || msg.sender == playerO, \"Only allowed for players of this game\");\n    _;\n  }\n\n  modifier onlyOwner() {\n    require(msg.sender == _owner, \"Only allowed for the onwer\");\n    _;\n  }\n\n  modifier activeGame() {\n    require(!hasTimedOut(), \"This game has already ended (reason: timeout)\");\n    require(!draw(), \"This game has already ended (reason: draw)\");\n    require(winner() == address(0), \"This game has already ended (reason: winner)\");\n    _;\n  }\n\n  modifier onlyClosedGame() {\n    require(ended > 0 || hasTimedOut(), \"This game has not ended yet!\");\n    _;\n  }\n\n  constructor(uint _id, address _registrator) {\n    id = _id;\n    registrator = _registrator;\n    emit Registered(id, registered, _registrator);\n  }\n\n  function name() override external pure returns (string memory) {\n    return \"Tic Tac Toe\";\n  }\n\n  function isActive() override external view returns (bool) {\n    return ended == 0;\n  }\n\n  function isOpen() override external view returns (bool) {\n    return started == 0 && (playerX == address(0) || playerO == address(0));\n  }\n\n  function hasTimedOut() public view returns (bool) {\n    return started > 0 && block.timestamp > started + timeout;\n  }\n\n  function registerX(address player) external payable {\n    require(playerX == address(0), \"Player X is already registered\");\n    require(msg.sender == player || registrator == player, \"Only the sender or the registrator can select players\");\n    require(playerO != player, \"Player X cannot be the same as player O\");\n    require(msg.value > minBet && msg.value >= bet, \"A bet is required to participate\");\n    if (bet > 0 && msg.value > bet) {\n      // thanks for the tip to the casino\n      tip += msg.value - bet;\n    }\n    if (bet == 0) {\n      bet = msg.value;\n    }\n    playerX = player;\n  }\n\n  function registerO(address player) external payable {\n    require(playerO == address(0), \"Player O is already registered\");\n    require(msg.sender == player || registrator == player, \"Only the sender or the registrator can select players\");\n    require(playerX != player, \"Player O cannot be the same as player X\");\n    require(msg.value > minBet && msg.value >= bet, \"A bet is required to participate\");\n    if (bet > 0 && msg.value > bet) {\n      // thanks for the tip to the casino\n      tip += msg.value - bet;\n    }\n    if (bet == 0) {\n      bet = msg.value;\n    }\n    playerO = player;\n  }\n\n  function isEmpty(uint _pos) internal view returns (bool) {\n    return board[_pos] == 0;\n  }\n\n  function mark(uint _pos, address _who) private {\n    if (_who == playerX) {\n      board[_pos] = 1;\n    } else {\n      board[_pos] = 2;\n    }\n  }\n\n  function closeGame(address _winner) internal {\n    ended = block.timestamp;\n    emit End(id, block.timestamp, turn, address(this).balance, calculateEarnings());\n\n    if (_winner == address(0)) {\n      // Draw - split in half (minus fee)\n      uint halfEarnings = calculateEarnings()/2;\n      payable(playerX).transfer(halfEarnings);\n      emit Transfer(id, playerX, halfEarnings);\n      payable(playerO).transfer(halfEarnings);\n      emit Transfer(id, playerO, halfEarnings);\n    } else {\n      uint earnings = calculateEarnings();\n      payable(_winner).transfer(earnings);\n      emit Transfer(id, _winner, earnings);\n    }\n    uint casinoFees = address(this).balance;\n    payable(_owner).transfer(casinoFees);\n    emit Transfer(id, _owner, casinoFees);\n  }\n\n  function move(uint _pos) external onlyPlayers activeGame {\n    // check if we are in the correct turn\n    if (turn % 2 == 0) {\n      require(msg.sender == playerX, \"Its player X's turn!\");\n    } else {\n      require(msg.sender == playerO, \"Its player O's turn!\");\n    }\n\n    // check that the position is clear\n    require(isEmpty(_pos), \"That position is already played!\");\n\n    // mark the position\n    mark(_pos, msg.sender);\n\n    // register the movement\n    emit Move(id, msg.sender, turn, _pos, block.timestamp);\n    moves.push(Movement(msg.sender, block.timestamp, turn, _pos));\n\n    // register the first movement\n    if (turn == 0) {\n      started = block.timestamp;\n      emit FirstMove(id, block.timestamp);\n    }\n\n    // advance turn\n    turn += 1;\n\n    // check if the game has ended\n    address _winner = winner();\n    \n    if (draw()) {\n      emit Draw(id, block.timestamp, turn);\n      closeGame(_winner);\n    }\n    else if (_winner == playerX) {\n      emit XWin(id, _winner, block.timestamp, turn);\n      closeGame(_winner);\n    }\n    else if (_winner == playerO) {\n      emit OWin(id, _winner, block.timestamp, turn);\n      closeGame(_winner);\n    }\n  }\n\n  function calculateCasinoFee() public view returns (uint) {\n    uint pot = bet * 2;\n    return pot * 3/100;\n  }\n\n  function calculateEarnings() public view returns (uint) {\n    uint pot = bet * 2;\n    uint fee = calculateCasinoFee();\n    return pot - fee;\n  }\n\n  function winner() public view returns (address) {\n    bool win = false;\n    for (uint p = 1; p <= 2; p++) {\n      // check rows\n      for (uint i = 0; i < 3; i++) {\n        win = true;\n        for (uint j = 0; j < 3; j++) {\n          if (board[i * 3 + j] != p) {\n            win = false;\n            break;\n          }\n        }\n        if (win) {\n          return p == 1? playerX : playerO;\n        }\n      }\n      // check columns\n      for (uint i = 0; i < 3; i++) {\n        win = true;\n        for (uint j = 0; j < 3; j++) {\n          if (board[j * 3 + i] != p) {\n            win = false;\n            break;\n          }\n        }\n        if (win) {\n          return p == 1? playerX : playerO;\n        }\n      }\n      // check diagonals\n      win = true;\n      for (uint i = 0; i < 3; i++) {\n        if (board[i * 3 + i] != p) {\n          win = false;\n          break;\n        }\n      }\n      if (win) {\n        return p == 1? playerX : playerO;\n      }\n    }\n    return address(0);\n  }\n\n  function draw() public view returns (bool) {\n    if (winner() == address(0)) {\n      return false;\n    }\n    for (uint i = 0; i < 9; i++) {\n      if (board[i] == 0) {\n        return false;\n      }\n    }\n    return true;\n  }\n\n  function claimFees() external onlyOwner onlyClosedGame {\n    // TODO: make it fair - only claim cash that went unclaimed ... TODO: add a threshold? force claim by owner after a timeout?\n    // What happens if it times out???\n    // The winner should be whoever moved last? or draw?\n    // Probably this will be the caller anyway, audited by the casino\n    payable(_owner).transfer(address(this).balance);\n  }\n}\n",
  "sourcePath": "D:\\Projects\\BlockchainBootcamp2021\\final-project\\contracts\\TicTacToe.sol",
  "compiler": {
    "name": "solc",
    "version": "0.8.6+commit.11564f7e.Emscripten.clang"
  },
  "schemaVersion": "3.4.3",
  "updatedAt": "2021-11-14T21:17:05.291Z",
  "devdoc": {
    "kind": "dev",
    "methods": {},
    "version": 1
  },
  "userdoc": {
    "kind": "user",
    "methods": {},
    "version": 1
  }
}