{
  "contractName": "Casino",
  "abi": [
    {
      "inputs": [],
      "stateMutability": "nonpayable",
      "type": "constructor"
    },
    {
      "anonymous": false,
      "inputs": [
        {
          "indexed": false,
          "internalType": "uint256",
          "name": "id",
          "type": "uint256"
        },
        {
          "indexed": false,
          "internalType": "address",
          "name": "registrator",
          "type": "address"
        }
      ],
      "name": "NewGame",
      "type": "event"
    },
    {
      "anonymous": false,
      "inputs": [
        {
          "indexed": false,
          "internalType": "uint256",
          "name": "id",
          "type": "uint256"
        },
        {
          "indexed": false,
          "internalType": "address",
          "name": "registrator",
          "type": "address"
        },
        {
          "indexed": false,
          "internalType": "bool",
          "name": "isX",
          "type": "bool"
        }
      ],
      "name": "NewTicTacToeGame",
      "type": "event"
    },
    {
      "stateMutability": "payable",
      "type": "fallback"
    },
    {
      "inputs": [
        {
          "internalType": "uint256",
          "name": "",
          "type": "uint256"
        }
      ],
      "name": "games",
      "outputs": [
        {
          "internalType": "address",
          "name": "",
          "type": "address"
        }
      ],
      "stateMutability": "view",
      "type": "function"
    },
    {
      "stateMutability": "payable",
      "type": "receive"
    },
    {
      "inputs": [],
      "name": "gamesCount",
      "outputs": [
        {
          "internalType": "uint256",
          "name": "",
          "type": "uint256"
        }
      ],
      "stateMutability": "view",
      "type": "function"
    },
    {
      "inputs": [],
      "name": "openGamesList",
      "outputs": [
        {
          "internalType": "address[]",
          "name": "",
          "type": "address[]"
        }
      ],
      "stateMutability": "view",
      "type": "function"
    },
    {
      "inputs": [],
      "name": "activeGamesList",
      "outputs": [
        {
          "internalType": "address[]",
          "name": "",
          "type": "address[]"
        }
      ],
      "stateMutability": "view",
      "type": "function"
    },
    {
      "inputs": [],
      "name": "ongoingGamesList",
      "outputs": [
        {
          "internalType": "address[]",
          "name": "",
          "type": "address[]"
        }
      ],
      "stateMutability": "view",
      "type": "function"
    },
    {
      "inputs": [
        {
          "internalType": "address",
          "name": "registrator",
          "type": "address"
        },
        {
          "internalType": "bool",
          "name": "isX",
          "type": "bool"
        }
      ],
      "name": "newTicTacToeGame",
      "outputs": [
        {
          "internalType": "uint256",
          "name": "",
          "type": "uint256"
        }
      ],
      "stateMutability": "payable",
      "type": "function"
    }
  ],
  "bytecode": "0x608060405234801561001057600080fd5b506140bb806100206000396000f3fe608060405260043610620000615760003560e01c806304b25236146200006b578063117a5b90146200009b5780635bdc856e14620000df578063b480a0d51462000115578063f9e8d1f51462000145578063fb632b7c14620001755762000069565b366200006957005b005b3480156200007857600080fd5b5062000083620001a5565b6040516200009291906200107f565b60405180910390f35b348015620000a857600080fd5b50620000c76004803603810190620000c1919062000f68565b62000499565b604051620000d6919062001062565b60405180910390f35b620000fd6004803603810190620000f7919062000eef565b620004d9565b6040516200010c9190620010a3565b60405180910390f35b3480156200012257600080fd5b506200012d620006f7565b6040516200013c91906200107f565b60405180910390f35b3480156200015257600080fd5b506200015d620009eb565b6040516200016c91906200107f565b60405180910390f35b3480156200018257600080fd5b506200018d62000e79565b6040516200019c9190620010a3565b60405180910390f35b60606000805b600080549050811015620002a95760008181548110620001d057620001cf6200122a565b5b9060005260206000200160009054906101000a900473ffffffffffffffffffffffffffffffffffffffff1673ffffffffffffffffffffffffffffffffffffffff166347535d7b6040518163ffffffff1660e01b815260040160206040518083038186803b1580156200024157600080fd5b505afa15801562000256573d6000803e3d6000fd5b505050506040513d601f19601f820116820180604052508101906200027c919062000f36565b15620002935781806200028f90620011ad565b9250505b8080620002a090620011ad565b915050620001ab565b5060008167ffffffffffffffff811115620002c957620002c862001259565b5b604051908082528060200260200182016040528015620002f85781602001602082028036833780820191505090505b5090506000805b6000805490508110156200048f57600081815481106200032457620003236200122a565b5b9060005260206000200160009054906101000a900473ffffffffffffffffffffffffffffffffffffffff1673ffffffffffffffffffffffffffffffffffffffff166347535d7b6040518163ffffffff1660e01b815260040160206040518083038186803b1580156200039557600080fd5b505afa158015620003aa573d6000803e3d6000fd5b505050506040513d601f19601f82011682018060405250810190620003d0919062000f36565b15620004795760008181548110620003ed57620003ec6200122a565b5b9060005260206000200160009054906101000a900473ffffffffffffffffffffffffffffffffffffffff168383815181106200042e576200042d6200122a565b5b602002602001019073ffffffffffffffffffffffffffffffffffffffff16908173ffffffffffffffffffffffffffffffffffffffff168152505081806200047590620011ad565b9250505b80806200048690620011ad565b915050620002ff565b5081935050505090565b60008181548110620004aa57600080fd5b906000526020600020016000915054906101000a900473ffffffffffffffffffffffffffffffffffffffff1681565b600080600080549050905060008185604051620004f69062000e85565b62000503929190620010c0565b604051809103906000f08015801562000520573d6000803e3d6000fd5b5090506000819080600181540180825580915050600190039060005260206000200160009091909190916101000a81548173ffffffffffffffffffffffffffffffffffffffff021916908373ffffffffffffffffffffffffffffffffffffffff160217905550831562000603578073ffffffffffffffffffffffffffffffffffffffff166368aaa92f34336040518363ffffffff1660e01b8152600401620005c9919062001062565b6000604051808303818588803b158015620005e357600080fd5b505af1158015620005f8573d6000803e3d6000fd5b505050505062000674565b8073ffffffffffffffffffffffffffffffffffffffff1663769287de34336040518363ffffffff1660e01b81526004016200063f919062001062565b6000604051808303818588803b1580156200065957600080fd5b505af11580156200066e573d6000803e3d6000fd5b50505050505b7f108bb2bd0cd145fd5beed530706bc2cbe0342831f25f9ae4d809f1c206052423828686604051620006a993929190620010ed565b60405180910390a17fb4ab36f4d2fee8698466065c4ee831b4748994cdd8de1c10a834a1d9b94523378286604051620006e4929190620010c0565b60405180910390a1819250505092915050565b60606000805b600080549050811015620007fb57600081815481106200072257620007216200122a565b5b9060005260206000200160009054906101000a900473ffffffffffffffffffffffffffffffffffffffff1673ffffffffffffffffffffffffffffffffffffffff166322f3e2d46040518163ffffffff1660e01b815260040160206040518083038186803b1580156200079357600080fd5b505afa158015620007a8573d6000803e3d6000fd5b505050506040513d601f19601f82011682018060405250810190620007ce919062000f36565b15620007e5578180620007e190620011ad565b9250505b8080620007f290620011ad565b915050620006fd565b5060008167ffffffffffffffff8111156200081b576200081a62001259565b5b6040519080825280602002602001820160405280156200084a5781602001602082028036833780820191505090505b5090506000805b600080549050811015620009e157600081815481106200087657620008756200122a565b5b9060005260206000200160009054906101000a900473ffffffffffffffffffffffffffffffffffffffff1673ffffffffffffffffffffffffffffffffffffffff166322f3e2d46040518163ffffffff1660e01b815260040160206040518083038186803b158015620008e757600080fd5b505afa158015620008fc573d6000803e3d6000fd5b505050506040513d601f19601f8201168201806040525081019062000922919062000f36565b15620009cb57600081815481106200093f576200093e6200122a565b5b9060005260206000200160009054906101000a900473ffffffffffffffffffffffffffffffffffffffff1683838151811062000980576200097f6200122a565b5b602002602001019073ffffffffffffffffffffffffffffffffffffffff16908173ffffffffffffffffffffffffffffffffffffffff16815250508180620009c790620011ad565b9250505b8080620009d890620011ad565b91505062000851565b5081935050505090565b60606000805b60008054905081101562000bbc576000818154811062000a165762000a156200122a565b5b9060005260206000200160009054906101000a900473ffffffffffffffffffffffffffffffffffffffff1673ffffffffffffffffffffffffffffffffffffffff166347535d7b6040518163ffffffff1660e01b815260040160206040518083038186803b15801562000a8757600080fd5b505afa15801562000a9c573d6000803e3d6000fd5b505050506040513d601f19601f8201168201806040525081019062000ac2919062000f36565b15801562000b8f57506000818154811062000ae25762000ae16200122a565b5b9060005260206000200160009054906101000a900473ffffffffffffffffffffffffffffffffffffffff1673ffffffffffffffffffffffffffffffffffffffff166322f3e2d46040518163ffffffff1660e01b815260040160206040518083038186803b15801562000b5357600080fd5b505afa15801562000b68573d6000803e3d6000fd5b505050506040513d601f19601f8201168201806040525081019062000b8e919062000f36565b5b1562000ba657818062000ba290620011ad565b9250505b808062000bb390620011ad565b915050620009f1565b5060008167ffffffffffffffff81111562000bdc5762000bdb62001259565b5b60405190808252806020026020018201604052801562000c0b5781602001602082028036833780820191505090505b5090506000805b60008054905081101562000e6f576000818154811062000c375762000c366200122a565b5b9060005260206000200160009054906101000a900473ffffffffffffffffffffffffffffffffffffffff1673ffffffffffffffffffffffffffffffffffffffff166347535d7b6040518163ffffffff1660e01b815260040160206040518083038186803b15801562000ca857600080fd5b505afa15801562000cbd573d6000803e3d6000fd5b505050506040513d601f19601f8201168201806040525081019062000ce3919062000f36565b15801562000db057506000818154811062000d035762000d026200122a565b5b9060005260206000200160009054906101000a900473ffffffffffffffffffffffffffffffffffffffff1673ffffffffffffffffffffffffffffffffffffffff166322f3e2d46040518163ffffffff1660e01b815260040160206040518083038186803b15801562000d7457600080fd5b505afa15801562000d89573d6000803e3d6000fd5b505050506040513d601f19601f8201168201806040525081019062000daf919062000f36565b5b1562000e59576000818154811062000dcd5762000dcc6200122a565b5b9060005260206000200160009054906101000a900473ffffffffffffffffffffffffffffffffffffffff1683838151811062000e0e5762000e0d6200122a565b5b602002602001019073ffffffffffffffffffffffffffffffffffffffff16908173ffffffffffffffffffffffffffffffffffffffff1681525050818062000e5590620011ad565b9250505b808062000e6690620011ad565b91505062000c12565b5081935050505090565b60008080549050905090565b612daa80620012dc83390190565b60008135905062000ea4816200128d565b92915050565b60008135905062000ebb81620012a7565b92915050565b60008151905062000ed281620012a7565b92915050565b60008135905062000ee981620012c1565b92915050565b6000806040838503121562000f095762000f0862001288565b5b600062000f198582860162000e93565b925050602062000f2c8582860162000eaa565b9150509250929050565b60006020828403121562000f4f5762000f4e62001288565b5b600062000f5f8482850162000ec1565b91505092915050565b60006020828403121562000f815762000f8062001288565b5b600062000f918482850162000ed8565b91505092915050565b600062000fa8838362000fb4565b60208301905092915050565b62000fbf8162001163565b82525050565b62000fd08162001163565b82525050565b600062000fe3826200113a565b62000fef818562001152565b935062000ffc836200112a565b8060005b838110156200103357815162001017888262000f9a565b9750620010248362001145565b92505060018101905062001000565b5085935050505092915050565b6200104b8162001177565b82525050565b6200105c81620011a3565b82525050565b600060208201905062001079600083018462000fc5565b92915050565b600060208201905081810360008301526200109b818462000fd6565b905092915050565b6000602082019050620010ba600083018462001051565b92915050565b6000604082019050620010d7600083018562001051565b620010e6602083018462000fc5565b9392505050565b600060608201905062001104600083018662001051565b62001113602083018562000fc5565b62001122604083018462001040565b949350505050565b6000819050602082019050919050565b600081519050919050565b6000602082019050919050565b600082825260208201905092915050565b6000620011708262001183565b9050919050565b60008115159050919050565b600073ffffffffffffffffffffffffffffffffffffffff82169050919050565b6000819050919050565b6000620011ba82620011a3565b91507fffffffffffffffffffffffffffffffffffffffffffffffffffffffffffffffff821415620011f057620011ef620011fb565b5b600182019050919050565b7f4e487b7100000000000000000000000000000000000000000000000000000000600052601160045260246000fd5b7f4e487b7100000000000000000000000000000000000000000000000000000000600052603260045260246000fd5b7f4e487b7100000000000000000000000000000000000000000000000000000000600052604160045260246000fd5b600080fd5b620012988162001163565b8114620012a457600080fd5b50565b620012b28162001177565b8114620012be57600080fd5b50565b620012cc81620011a3565b8114620012d857600080fd5b5056fe608060405266038d7ea4c6800060005533600160006101000a81548173ffffffffffffffffffffffffffffffffffffffff021916908373ffffffffffffffffffffffffffffffffffffffff16021790555042600355610e1060045560006009556000600a553480156200007157600080fd5b5060405162002daa38038062002daa833981810160405281019062000097919062000156565b8160088190555080600260006101000a81548173ffffffffffffffffffffffffffffffffffffffff021916908373ffffffffffffffffffffffffffffffffffffffff1602179055507f19ef3a90ba0bbfeb1f5f68452b45c638804b6d9dd44829975c53b83c1ac21ed3600854600354836040516200011893929190620001bf565b60405180910390a1505062000273565b60008151905062000139816200023f565b92915050565b600081519050620001508162000259565b92915050565b6000806040838503121562000170576200016f6200023a565b5b600062000180858286016200013f565b9250506020620001938582860162000128565b9150509250929050565b620001a881620001fc565b82525050565b620001b98162000230565b82525050565b6000606082019050620001d66000830186620001ae565b620001e56020830185620001ae565b620001f460408301846200019d565b949350505050565b6000620002098262000210565b9050919050565b600073ffffffffffffffffffffffffffffffffffffffff82169050919050565b6000819050919050565b600080fd5b6200024a81620001fc565b81146200025657600080fd5b50565b620002648162000230565b81146200027057600080fd5b50565b612b2780620002836000396000f3fe6080604052600436106101665760003560e01c806347535d7b116100d157806387cb15f71161008a578063c6ed20c511610064578063c6ed20c5146104f9578063d294f09314610524578063dfbf53ae1461053b578063e7dafa6e1461056657610166565b806387cb15f71461047a5780638b299903146104a3578063af640d0f146104ce57610166565b806347535d7b146103815780634cdea7d2146103ac57806368aaa92f146103d757806370dea79a146103f3578063769287de1461041e5780637698baec1461043a57610166565b806312fa6feb1161012357806312fa6feb1461026d5780631f2698ab1461029857806322f3e2d4146102c35780632755cd2d146102ee57806328ed6e3f146103195780632de40ce31461035657610166565b80630628884f1461016b57806306fdde03146101965780630803efa1146101c157806309eaf723146101ec5780630eecae211461021757806311610c2514610242575b600080fd5b34801561017757600080fd5b50610180610591565b60405161018d91906120cf565b60405180910390f35b3480156101a257600080fd5b506101ab6105b7565b6040516101b891906120ea565b60405180910390f35b3480156101cd57600080fd5b506101d66105f4565b6040516101e391906122ec565b60405180910390f35b3480156101f857600080fd5b50610201610627565b60405161020e91906122ec565b60405180910390f35b34801561022357600080fd5b5061022c61065a565b60405161023991906120cf565b60405180910390f35b34801561024e57600080fd5b506102576106f0565b60405161026491906122ec565b60405180910390f35b34801561027957600080fd5b506102826106f6565b60405161028f91906122ec565b60405180910390f35b3480156102a457600080fd5b506102ad6106fc565b6040516102ba91906122ec565b60405180910390f35b3480156102cf57600080fd5b506102d8610702565b6040516102e591906120cf565b60405180910390f35b3480156102fa57600080fd5b5061030361070e565b60405161031091906122ec565b60405180910390f35b34801561032557600080fd5b50610340600480360381019061033b9190611dcf565b610714565b60405161034d91906122ec565b60405180910390f35b34801561036257600080fd5b5061036b61072f565b60405161037891906122ec565b60405180910390f35b34801561038d57600080fd5b50610396610735565b6040516103a391906120cf565b60405180910390f35b3480156103b857600080fd5b506103c16107f4565b6040516103ce919061206f565b60405180910390f35b6103f160048036038101906103ec9190611da2565b61081a565b005b3480156103ff57600080fd5b50610408610aea565b60405161041591906122ec565b60405180910390f35b61043860048036038101906104339190611da2565b610af0565b005b34801561044657600080fd5b50610461600480360381019061045c9190611dcf565b610dc0565b604051610471949392919061208a565b60405180910390f35b34801561048657600080fd5b506104a1600480360381019061049c9190611dcf565b610e20565b005b3480156104af57600080fd5b506104b86114c5565b6040516104c591906122ec565b60405180910390f35b3480156104da57600080fd5b506104e36114cb565b6040516104f091906122ec565b60405180910390f35b34801561050557600080fd5b5061050e6114d1565b60405161051b919061206f565b60405180910390f35b34801561053057600080fd5b506105396114f7565b005b34801561054757600080fd5b50610550611646565b60405161055d919061206f565b60405180910390f35b34801561057257600080fd5b5061057b611904565b604051610588919061206f565b60405180910390f35b6000806005541180156105b257506004546005546105af91906124a5565b42115b905090565b60606040518060400160405280600b81526020017f5469632054616320546f65000000000000000000000000000000000000000000815250905090565b6000806002600954610606919061252c565b90506064600382610617919061252c565b61062191906124fb565b91505090565b6000806002600954610639919061252c565b905060006106456105f4565b905080826106539190612586565b9250505090565b60008073ffffffffffffffffffffffffffffffffffffffff1661067b611646565b73ffffffffffffffffffffffffffffffffffffffff1614156106a057600090506106ed565b60005b60098110156106e7576000600d82600981106106c2576106c161270d565b5b015414156106d45760009150506106ed565b80806106df90612635565b9150506106a3565b50600190505b90565b60095481565b60065481565b60055481565b60008060065414905090565b600a5481565b600d816009811061072457600080fd5b016000915090505481565b60035481565b6000806005541480156107ef5750600073ffffffffffffffffffffffffffffffffffffffff16600b60009054906101000a900473ffffffffffffffffffffffffffffffffffffffff1673ffffffffffffffffffffffffffffffffffffffff1614806107ee5750600073ffffffffffffffffffffffffffffffffffffffff16600c60009054906101000a900473ffffffffffffffffffffffffffffffffffffffff1673ffffffffffffffffffffffffffffffffffffffff16145b5b905090565b600b60009054906101000a900473ffffffffffffffffffffffffffffffffffffffff1681565b600073ffffffffffffffffffffffffffffffffffffffff16600b60009054906101000a900473ffffffffffffffffffffffffffffffffffffffff1673ffffffffffffffffffffffffffffffffffffffff16146108ab576040517f08c379a00000000000000000000000000000000000000000000000000000000081526004016108a29061224c565b60405180910390fd5b8073ffffffffffffffffffffffffffffffffffffffff163373ffffffffffffffffffffffffffffffffffffffff16148061093257508073ffffffffffffffffffffffffffffffffffffffff16600260009054906101000a900473ffffffffffffffffffffffffffffffffffffffff1673ffffffffffffffffffffffffffffffffffffffff16145b610971576040517f08c379a00000000000000000000000000000000000000000000000000000000081526004016109689061214c565b60405180910390fd5b8073ffffffffffffffffffffffffffffffffffffffff16600c60009054906101000a900473ffffffffffffffffffffffffffffffffffffffff1673ffffffffffffffffffffffffffffffffffffffff161415610a02576040517f08c379a00000000000000000000000000000000000000000000000000000000081526004016109f9906122ac565b60405180910390fd5b60005434118015610a1557506009543410155b610a54576040517f08c379a0000000000000000000000000000000000000000000000000000000008152600401610a4b9061210c565b60405180910390fd5b6000600954118015610a67575060095434115b15610a935760095434610a7a9190612586565b600a6000828254610a8b91906124a5565b925050819055505b60006009541415610aa657346009819055505b80600b60006101000a81548173ffffffffffffffffffffffffffffffffffffffff021916908373ffffffffffffffffffffffffffffffffffffffff16021790555050565b60045481565b600073ffffffffffffffffffffffffffffffffffffffff16600c60009054906101000a900473ffffffffffffffffffffffffffffffffffffffff1673ffffffffffffffffffffffffffffffffffffffff1614610b81576040517f08c379a0000000000000000000000000000000000000000000000000000000008152600401610b78906121ec565b60405180910390fd5b8073ffffffffffffffffffffffffffffffffffffffff163373ffffffffffffffffffffffffffffffffffffffff161480610c0857508073ffffffffffffffffffffffffffffffffffffffff16600260009054906101000a900473ffffffffffffffffffffffffffffffffffffffff1673ffffffffffffffffffffffffffffffffffffffff16145b610c47576040517f08c379a0000000000000000000000000000000000000000000000000000000008152600401610c3e9061214c565b60405180910390fd5b8073ffffffffffffffffffffffffffffffffffffffff16600b60009054906101000a900473ffffffffffffffffffffffffffffffffffffffff1673ffffffffffffffffffffffffffffffffffffffff161415610cd8576040517f08c379a0000000000000000000000000000000000000000000000000000000008152600401610ccf9061228c565b60405180910390fd5b60005434118015610ceb57506009543410155b610d2a576040517f08c379a0000000000000000000000000000000000000000000000000000000008152600401610d219061210c565b60405180910390fd5b6000600954118015610d3d575060095434115b15610d695760095434610d509190612586565b600a6000828254610d6191906124a5565b925050819055505b60006009541415610d7c57346009819055505b80600c60006101000a81548173ffffffffffffffffffffffffffffffffffffffff021916908373ffffffffffffffffffffffffffffffffffffffff16021790555050565b60078181548110610dd057600080fd5b90600052602060002090600402016000915090508060000160009054906101000a900473ffffffffffffffffffffffffffffffffffffffff16908060010154908060020154908060030154905084565b600b60009054906101000a900473ffffffffffffffffffffffffffffffffffffffff1673ffffffffffffffffffffffffffffffffffffffff163373ffffffffffffffffffffffffffffffffffffffff161480610ec95750600c60009054906101000a900473ffffffffffffffffffffffffffffffffffffffff1673ffffffffffffffffffffffffffffffffffffffff163373ffffffffffffffffffffffffffffffffffffffff16145b610f08576040517f08c379a0000000000000000000000000000000000000000000000000000000008152600401610eff906122cc565b60405180910390fd5b610f10610591565b15610f50576040517f08c379a0000000000000000000000000000000000000000000000000000000008152600401610f479061226c565b60405180910390fd5b610f5861065a565b15610f98576040517f08c379a0000000000000000000000000000000000000000000000000000000008152600401610f8f9061212c565b60405180910390fd5b600073ffffffffffffffffffffffffffffffffffffffff16610fb8611646565b73ffffffffffffffffffffffffffffffffffffffff161461100e576040517f08c379a00000000000000000000000000000000000000000000000000000000081526004016110059061218c565b60405180910390fd5b6000600260165461101f919061267e565b14156110ba57600b60009054906101000a900473ffffffffffffffffffffffffffffffffffffffff1673ffffffffffffffffffffffffffffffffffffffff163373ffffffffffffffffffffffffffffffffffffffff16146110b5576040517f08c379a00000000000000000000000000000000000000000000000000000000081526004016110ac906121ac565b60405180910390fd5b61114b565b600c60009054906101000a900473ffffffffffffffffffffffffffffffffffffffff1673ffffffffffffffffffffffffffffffffffffffff163373ffffffffffffffffffffffffffffffffffffffff161461114a576040517f08c379a0000000000000000000000000000000000000000000000000000000008152600401611141906121cc565b60405180910390fd5b5b6111548161192a565b611193576040517f08c379a000000000000000000000000000000000000000000000000000000000815260040161118a9061216c565b60405180910390fd5b61119d813361194b565b7f09f853bad0e9fd288767f94d5352103a9754dea6473752ae14f47506eb2b6f466008543360165484426040516111d8959493929190612383565b60405180910390a1600760405180608001604052803373ffffffffffffffffffffffffffffffffffffffff168152602001428152602001601654815260200183815250908060018154018082558091505060019003906000526020600020906004020160009091909190915060008201518160000160006101000a81548173ffffffffffffffffffffffffffffffffffffffff021916908373ffffffffffffffffffffffffffffffffffffffff1602179055506020820151816001015560408201518160020155606082015181600301555050600060165414156112f957426005819055507f8c3d3281fd6f616518175932f5201290f693ec5536ccbb2e06c965d4a6a1aeba600854426040516112f09291906123d6565b60405180910390a15b60016016600082825461130c91906124a5565b92505081905550600061131d611646565b905061132761065a565b15611379577f79c638881fbfa6a03de3e6af82cf35831eec3d7db9c452bd99e844ae639aa67b60085442601654604051611363939291906123ff565b60405180910390a1611374816119e1565b6114c1565b600b60009054906101000a900473ffffffffffffffffffffffffffffffffffffffff1673ffffffffffffffffffffffffffffffffffffffff168173ffffffffffffffffffffffffffffffffffffffff16141561141e577f0dc021c80b0c4225e226e926064e6854dbc09db3f2098d4cce23f6a50f43ebf26008548242601654604051611408949392919061233e565b60405180910390a1611419816119e1565b6114c0565b600c60009054906101000a900473ffffffffffffffffffffffffffffffffffffffff1673ffffffffffffffffffffffffffffffffffffffff168173ffffffffffffffffffffffffffffffffffffffff1614156114bf577f63a605b6afe342bf5af086afb7fe37337c94c912b8bcb89eaabdfe300fafd47560085482426016546040516114ad949392919061233e565b60405180910390a16114be816119e1565b5b5b5b5050565b60165481565b60085481565b600260009054906101000a900473ffffffffffffffffffffffffffffffffffffffff1681565b600160009054906101000a900473ffffffffffffffffffffffffffffffffffffffff1673ffffffffffffffffffffffffffffffffffffffff163373ffffffffffffffffffffffffffffffffffffffff1614611587576040517f08c379a000000000000000000000000000000000000000000000000000000000815260040161157e9061222c565b60405180910390fd5b6000600654118061159c575061159b610591565b5b6115db576040517f08c379a00000000000000000000000000000000000000000000000000000000081526004016115d29061220c565b60405180910390fd5b600160009054906101000a900473ffffffffffffffffffffffffffffffffffffffff1673ffffffffffffffffffffffffffffffffffffffff166108fc479081150290604051600060405180830381858888f19350505050158015611643573d6000803e3d6000fd5b50565b600080600090506000600190505b600281116118fa5760005b600381101561173f576001925060005b60038110156116c75782600d82600385611689919061252c565b61169391906124a5565b600981106116a4576116a361270d565b5b0154146116b457600093506116c7565b80806116bf90612635565b91505061166f565b50821561172c57600182146116fe57600c60009054906101000a900473ffffffffffffffffffffffffffffffffffffffff16611722565b600b60009054906101000a900473ffffffffffffffffffffffffffffffffffffffff165b9350505050611901565b808061173790612635565b91505061165f565b5060005b6003811015611823576001925060005b60038110156117ab5782600d8360038461176d919061252c565b61177791906124a5565b600981106117885761178761270d565b5b01541461179857600093506117ab565b80806117a390612635565b915050611753565b50821561181057600182146117e257600c60009054906101000a900473ffffffffffffffffffffffffffffffffffffffff16611806565b600b60009054906101000a900473ffffffffffffffffffffffffffffffffffffffff165b9350505050611901565b808061181b90612635565b915050611743565b506001915060005b60038110156118835781600d82600384611845919061252c565b61184f91906124a5565b600981106118605761185f61270d565b5b0154146118705760009250611883565b808061187b90612635565b91505061182b565b5081156118e757600181146118ba57600c60009054906101000a900473ffffffffffffffffffffffffffffffffffffffff166118de565b600b60009054906101000a900473ffffffffffffffffffffffffffffffffffffffff165b92505050611901565b80806118f290612635565b915050611654565b5060009150505b90565b600c60009054906101000a900473ffffffffffffffffffffffffffffffffffffffff1681565b600080600d83600981106119415761194061270d565b5b0154149050919050565b600b60009054906101000a900473ffffffffffffffffffffffffffffffffffffffff1673ffffffffffffffffffffffffffffffffffffffff168173ffffffffffffffffffffffffffffffffffffffff1614156119c1576001600d83600981106119b7576119b661270d565b5b01819055506119dd565b6002600d83600981106119d7576119d661270d565b5b01819055505b5050565b426006819055507f8cbe327372308d79e2d124476bc6d364529ae64f8d2bdf53da7a6f8c345f365f6008544260165447611a19610627565b604051611a2a959493929190612436565b60405180910390a1600073ffffffffffffffffffffffffffffffffffffffff168173ffffffffffffffffffffffffffffffffffffffff161415611c155760006002611a73610627565b611a7d91906124fb565b9050600b60009054906101000a900473ffffffffffffffffffffffffffffffffffffffff1673ffffffffffffffffffffffffffffffffffffffff166108fc829081150290604051600060405180830381858888f19350505050158015611ae7573d6000803e3d6000fd5b507f2e90d1cd7a5e9a5b99747c36130d866c8687bff313d44cdd245df73bcda43621600854600b60009054906101000a900473ffffffffffffffffffffffffffffffffffffffff1683604051611b3f93929190612307565b60405180910390a1600c60009054906101000a900473ffffffffffffffffffffffffffffffffffffffff1673ffffffffffffffffffffffffffffffffffffffff166108fc829081150290604051600060405180830381858888f19350505050158015611baf573d6000803e3d6000fd5b507f2e90d1cd7a5e9a5b99747c36130d866c8687bff313d44cdd245df73bcda43621600854600c60009054906101000a900473ffffffffffffffffffffffffffffffffffffffff1683604051611c0793929190612307565b60405180910390a150611ca7565b6000611c1f610627565b90508173ffffffffffffffffffffffffffffffffffffffff166108fc829081150290604051600060405180830381858888f19350505050158015611c67573d6000803e3d6000fd5b507f2e90d1cd7a5e9a5b99747c36130d866c8687bff313d44cdd245df73bcda436216008548383604051611c9d93929190612307565b60405180910390a1505b6000479050600160009054906101000a900473ffffffffffffffffffffffffffffffffffffffff1673ffffffffffffffffffffffffffffffffffffffff166108fc829081150290604051600060405180830381858888f19350505050158015611d14573d6000803e3d6000fd5b507f2e90d1cd7a5e9a5b99747c36130d866c8687bff313d44cdd245df73bcda43621600854600160009054906101000a900473ffffffffffffffffffffffffffffffffffffffff1683604051611d6c93929190612307565b60405180910390a15050565b600081359050611d8781612ac3565b92915050565b600081359050611d9c81612ada565b92915050565b600060208284031215611db857611db761273c565b5b6000611dc684828501611d78565b91505092915050565b600060208284031215611de557611de461273c565b5b6000611df384828501611d8d565b91505092915050565b611e05816125ba565b82525050565b611e14816125cc565b82525050565b6000611e2582612489565b611e2f8185612494565b9350611e3f818560208601612602565b611e4881612741565b840191505092915050565b6000611e60602083612494565b9150611e6b82612752565b602082019050919050565b6000611e83602a83612494565b9150611e8e8261277b565b604082019050919050565b6000611ea6603583612494565b9150611eb1826127ca565b604082019050919050565b6000611ec9602083612494565b9150611ed482612819565b602082019050919050565b6000611eec602c83612494565b9150611ef782612842565b604082019050919050565b6000611f0f601483612494565b9150611f1a82612891565b602082019050919050565b6000611f32601483612494565b9150611f3d826128ba565b602082019050919050565b6000611f55601e83612494565b9150611f60826128e3565b602082019050919050565b6000611f78601c83612494565b9150611f838261290c565b602082019050919050565b6000611f9b601a83612494565b9150611fa682612935565b602082019050919050565b6000611fbe601e83612494565b9150611fc98261295e565b602082019050919050565b6000611fe1602d83612494565b9150611fec82612987565b604082019050919050565b6000612004602783612494565b915061200f826129d6565b604082019050919050565b6000612027602783612494565b915061203282612a25565b604082019050919050565b600061204a602583612494565b915061205582612a74565b604082019050919050565b612069816125f8565b82525050565b60006020820190506120846000830184611dfc565b92915050565b600060808201905061209f6000830187611dfc565b6120ac6020830186612060565b6120b96040830185612060565b6120c66060830184612060565b95945050505050565b60006020820190506120e46000830184611e0b565b92915050565b600060208201905081810360008301526121048184611e1a565b905092915050565b6000602082019050818103600083015261212581611e53565b9050919050565b6000602082019050818103600083015261214581611e76565b9050919050565b6000602082019050818103600083015261216581611e99565b9050919050565b6000602082019050818103600083015261218581611ebc565b9050919050565b600060208201905081810360008301526121a581611edf565b9050919050565b600060208201905081810360008301526121c581611f02565b9050919050565b600060208201905081810360008301526121e581611f25565b9050919050565b6000602082019050818103600083015261220581611f48565b9050919050565b6000602082019050818103600083015261222581611f6b565b9050919050565b6000602082019050818103600083015261224581611f8e565b9050919050565b6000602082019050818103600083015261226581611fb1565b9050919050565b6000602082019050818103600083015261228581611fd4565b9050919050565b600060208201905081810360008301526122a581611ff7565b9050919050565b600060208201905081810360008301526122c58161201a565b9050919050565b600060208201905081810360008301526122e58161203d565b9050919050565b60006020820190506123016000830184612060565b92915050565b600060608201905061231c6000830186612060565b6123296020830185611dfc565b6123366040830184612060565b949350505050565b60006080820190506123536000830187612060565b6123606020830186611dfc565b61236d6040830185612060565b61237a6060830184612060565b95945050505050565b600060a0820190506123986000830188612060565b6123a56020830187611dfc565b6123b26040830186612060565b6123bf6060830185612060565b6123cc6080830184612060565b9695505050505050565b60006040820190506123eb6000830185612060565b6123f86020830184612060565b9392505050565b60006060820190506124146000830186612060565b6124216020830185612060565b61242e6040830184612060565b949350505050565b600060a08201905061244b6000830188612060565b6124586020830187612060565b6124656040830186612060565b6124726060830185612060565b61247f6080830184612060565b9695505050505050565b600081519050919050565b600082825260208201905092915050565b60006124b0826125f8565b91506124bb836125f8565b9250827fffffffffffffffffffffffffffffffffffffffffffffffffffffffffffffffff038211156124f0576124ef6126af565b5b828201905092915050565b6000612506826125f8565b9150612511836125f8565b925082612521576125206126de565b5b828204905092915050565b6000612537826125f8565b9150612542836125f8565b9250817fffffffffffffffffffffffffffffffffffffffffffffffffffffffffffffffff048311821515161561257b5761257a6126af565b5b828202905092915050565b6000612591826125f8565b915061259c836125f8565b9250828210156125af576125ae6126af565b5b828203905092915050565b60006125c5826125d8565b9050919050565b60008115159050919050565b600073ffffffffffffffffffffffffffffffffffffffff82169050919050565b6000819050919050565b60005b83811015612620578082015181840152602081019050612605565b8381111561262f576000848401525b50505050565b6000612640826125f8565b91507fffffffffffffffffffffffffffffffffffffffffffffffffffffffffffffffff821415612673576126726126af565b5b600182019050919050565b6000612689826125f8565b9150612694836125f8565b9250826126a4576126a36126de565b5b828206905092915050565b7f4e487b7100000000000000000000000000000000000000000000000000000000600052601160045260246000fd5b7f4e487b7100000000000000000000000000000000000000000000000000000000600052601260045260246000fd5b7f4e487b7100000000000000000000000000000000000000000000000000000000600052603260045260246000fd5b600080fd5b6000601f19601f8301169050919050565b7f412062657420697320726571756972656420746f207061727469636970617465600082015250565b7f546869732067616d652068617320616c726561647920656e646564202872656160008201527f736f6e3a20647261772900000000000000000000000000000000000000000000602082015250565b7f4f6e6c79207468652073656e646572206f72207468652072656769737472617460008201527f6f722063616e2073656c65637420706c61796572730000000000000000000000602082015250565b7f5468617420706f736974696f6e20697320616c726561647920706c6179656421600082015250565b7f546869732067616d652068617320616c726561647920656e646564202872656160008201527f736f6e3a2077696e6e6572290000000000000000000000000000000000000000602082015250565b7f49747320706c6179657220582773207475726e21000000000000000000000000600082015250565b7f49747320706c61796572204f2773207475726e21000000000000000000000000600082015250565b7f506c61796572204f20697320616c726561647920726567697374657265640000600082015250565b7f546869732067616d6520686173206e6f7420656e646564207965742100000000600082015250565b7f4f6e6c7920616c6c6f77656420666f7220746865206f6e776572000000000000600082015250565b7f506c61796572205820697320616c726561647920726567697374657265640000600082015250565b7f546869732067616d652068617320616c726561647920656e646564202872656160008201527f736f6e3a2074696d656f75742900000000000000000000000000000000000000602082015250565b7f506c61796572204f2063616e6e6f74206265207468652073616d65206173207060008201527f6c61796572205800000000000000000000000000000000000000000000000000602082015250565b7f506c6179657220582063616e6e6f74206265207468652073616d65206173207060008201527f6c61796572204f00000000000000000000000000000000000000000000000000602082015250565b7f4f6e6c7920616c6c6f77656420666f7220706c6179657273206f66207468697360008201527f2067616d65000000000000000000000000000000000000000000000000000000602082015250565b612acc816125ba565b8114612ad757600080fd5b50565b612ae3816125f8565b8114612aee57600080fd5b5056fea2646970667358221220f239cd9159fb83f012e491ae176fa0ce5efeced950c50e304fcb61c017d48dd464736f6c63430008060033a264697066735822122063159191e58b0a834c82c4bd534275055ff773b5a6fabb2de3b9de90cd69adc164736f6c63430008060033",
  "immutableReferences": {},
  "source": "// SPDX-License-Identifier: MIT\r\npragma solidity ^0.8.0;\r\n\r\nimport './Game.sol';\r\nimport './TicTacToe.sol';\r\n\r\ncontract Casino {\r\n    constructor() {\r\n\r\n    }\r\n\r\n    address[] public games;\r\n\r\n    enum SupportedGame { TicTacToe }\r\n\r\n    event NewGame(uint id, address registrator);\r\n    event NewTicTacToeGame(uint id, address registrator, bool isX);\r\n\r\n    // Function to receive Ether. msg.data must be empty\r\n    receive() external payable {}\r\n\r\n    // Fallback function is called when msg.data is not empty\r\n    fallback() external payable {}\r\n\r\n    function gamesCount() public view returns (uint) {\r\n        return games.length;\r\n    }\r\n\r\n    function openGamesList() public view returns (address[] memory) {\r\n        uint resultCount = 0;\r\n        for (uint i = 0; i < games.length; i++) {\r\n            if (Game(games[i]).isOpen()) {\r\n                resultCount++;\r\n            }\r\n        }\r\n\r\n        address[] memory results = new address[](resultCount);\r\n        uint j = 0;\r\n        for (uint i = 0; i < games.length; i++) {\r\n            if (Game(games[i]).isOpen()) {\r\n                results[j] = games[i];\r\n                j++;\r\n            }\r\n        }\r\n        return results;\r\n    }\r\n\r\n    function activeGamesList() public view returns (address[] memory) {\r\n        uint resultCount = 0;\r\n        for (uint i = 0; i < games.length; i++) {\r\n            if (Game(games[i]).isActive()) {\r\n                resultCount++;\r\n            }\r\n        }\r\n\r\n        address[] memory results = new address[](resultCount);\r\n        uint j = 0;\r\n        for (uint i = 0; i < games.length; i++) {\r\n            if (Game(games[i]).isActive()) {\r\n                results[j] = games[i];\r\n                j++;\r\n            }\r\n        }\r\n        return results;\r\n    }\r\n\r\n    function ongoingGamesList() public view returns (address[] memory) {\r\n        uint resultCount = 0;\r\n        for (uint i = 0; i < games.length; i++) {\r\n            if (!Game(games[i]).isOpen() && Game(games[i]).isActive()) {\r\n                resultCount++;\r\n            }\r\n        }\r\n\r\n        address[] memory results = new address[](resultCount);\r\n        uint j = 0;\r\n        for (uint i = 0; i < games.length; i++) {\r\n            if (!Game(games[i]).isOpen() && Game(games[i]).isActive()) {\r\n                results[j] = games[i];\r\n                j++;\r\n            }\r\n        }\r\n        return results;\r\n    }\r\n\r\n    function newTicTacToeGame(address registrator, bool isX) payable external returns(uint) {\r\n        uint id = games.length;\r\n        TicTacToe g = new TicTacToe(id, registrator);\r\n        games.push(address(g));\r\n        if (isX) {\r\n            g.registerX{ value: msg.value }(msg.sender);\r\n        } else {\r\n            g.registerO{ value: msg.value }(msg.sender);\r\n        }\r\n        emit NewTicTacToeGame(id, registrator, isX);\r\n        emit NewGame(id, registrator);\r\n        return id;\r\n    }\r\n}",
  "sourcePath": "C:\\Users\\Josi\\Dev\\final-project\\contracts\\Casino.sol",
  "compiler": {
    "name": "solc",
    "version": "0.8.6+commit.11564f7e.Emscripten.clang"
  },
  "schemaVersion": "3.4.3",
  "updatedAt": "2021-11-26T16:38:29.856Z",
  "devdoc": {
    "kind": "dev",
    "methods": {},
    "version": 1
  },
  "userdoc": {
    "kind": "user",
    "methods": {},
    "version": 1
  }
}