{
  "contractName": "TicTacToe",
  "abi": [
    {
      "inputs": [
        {
          "internalType": "uint256",
          "name": "_id",
          "type": "uint256"
        },
        {
          "internalType": "address",
          "name": "_registrator",
          "type": "address"
        }
      ],
      "stateMutability": "nonpayable",
      "type": "constructor"
    },
    {
      "anonymous": false,
      "inputs": [
        {
          "indexed": false,
          "internalType": "uint256",
          "name": "_id",
          "type": "uint256"
        },
        {
          "indexed": false,
          "internalType": "uint256",
          "name": "_when",
          "type": "uint256"
        },
        {
          "indexed": false,
          "internalType": "uint256",
          "name": "_turn",
          "type": "uint256"
        }
      ],
      "name": "Draw",
      "type": "event"
    },
    {
      "anonymous": false,
      "inputs": [
        {
          "indexed": false,
          "internalType": "uint256",
          "name": "_id",
          "type": "uint256"
        },
        {
          "indexed": false,
          "internalType": "uint256",
          "name": "_when",
          "type": "uint256"
        },
        {
          "indexed": false,
          "internalType": "uint256",
          "name": "_turn",
          "type": "uint256"
        },
        {
          "indexed": false,
          "internalType": "uint256",
          "name": "_balance",
          "type": "uint256"
        },
        {
          "indexed": false,
          "internalType": "uint256",
          "name": "_pot",
          "type": "uint256"
        }
      ],
      "name": "End",
      "type": "event"
    },
    {
      "anonymous": false,
      "inputs": [
        {
          "indexed": false,
          "internalType": "uint256",
          "name": "_id",
          "type": "uint256"
        },
        {
          "indexed": false,
          "internalType": "uint256",
          "name": "_when",
          "type": "uint256"
        }
      ],
      "name": "FirstMove",
      "type": "event"
    },
    {
      "anonymous": false,
      "inputs": [
        {
          "indexed": false,
          "internalType": "uint256",
          "name": "_id",
          "type": "uint256"
        },
        {
          "indexed": false,
          "internalType": "address",
          "name": "_who",
          "type": "address"
        },
        {
          "indexed": false,
          "internalType": "uint256",
          "name": "_turn",
          "type": "uint256"
        },
        {
          "indexed": false,
          "internalType": "uint256",
          "name": "_pos",
          "type": "uint256"
        },
        {
          "indexed": false,
          "internalType": "uint256",
          "name": "_when",
          "type": "uint256"
        }
      ],
      "name": "Move",
      "type": "event"
    },
    {
      "anonymous": false,
      "inputs": [
        {
          "indexed": false,
          "internalType": "uint256",
          "name": "_id",
          "type": "uint256"
        },
        {
          "indexed": false,
          "internalType": "address",
          "name": "_who",
          "type": "address"
        },
        {
          "indexed": false,
          "internalType": "uint256",
          "name": "_when",
          "type": "uint256"
        },
        {
          "indexed": false,
          "internalType": "uint256",
          "name": "_turn",
          "type": "uint256"
        }
      ],
      "name": "OWin",
      "type": "event"
    },
    {
      "anonymous": false,
      "inputs": [
        {
          "indexed": false,
          "internalType": "uint256",
          "name": "_id",
          "type": "uint256"
        },
        {
          "indexed": false,
          "internalType": "address",
          "name": "_who",
          "type": "address"
        },
        {
          "indexed": false,
          "internalType": "uint256",
          "name": "_when",
          "type": "uint256"
        }
      ],
      "name": "PlayerOJoined",
      "type": "event"
    },
    {
      "anonymous": false,
      "inputs": [
        {
          "indexed": false,
          "internalType": "uint256",
          "name": "_id",
          "type": "uint256"
        },
        {
          "indexed": false,
          "internalType": "address",
          "name": "_who",
          "type": "address"
        },
        {
          "indexed": false,
          "internalType": "uint256",
          "name": "_when",
          "type": "uint256"
        }
      ],
      "name": "PlayerXJoined",
      "type": "event"
    },
    {
      "anonymous": false,
      "inputs": [
        {
          "indexed": false,
          "internalType": "uint256",
          "name": "_id",
          "type": "uint256"
        },
        {
          "indexed": false,
          "internalType": "uint256",
          "name": "_when",
          "type": "uint256"
        },
        {
          "indexed": false,
          "internalType": "address",
          "name": "_who",
          "type": "address"
        }
      ],
      "name": "Registered",
      "type": "event"
    },
    {
      "anonymous": false,
      "inputs": [
        {
          "indexed": false,
          "internalType": "uint256",
          "name": "_id",
          "type": "uint256"
        },
        {
          "indexed": false,
          "internalType": "address",
          "name": "_who",
          "type": "address"
        },
        {
          "indexed": false,
          "internalType": "uint256",
          "name": "_value",
          "type": "uint256"
        }
      ],
      "name": "Transfer",
      "type": "event"
    },
    {
      "anonymous": false,
      "inputs": [
        {
          "indexed": false,
          "internalType": "uint256",
          "name": "_id",
          "type": "uint256"
        },
        {
          "indexed": false,
          "internalType": "address",
          "name": "_who",
          "type": "address"
        },
        {
          "indexed": false,
          "internalType": "uint256",
          "name": "_when",
          "type": "uint256"
        },
        {
          "indexed": false,
          "internalType": "uint256",
          "name": "_turn",
          "type": "uint256"
        }
      ],
      "name": "XWin",
      "type": "event"
    },
    {
      "inputs": [],
      "name": "bet",
      "outputs": [
        {
          "internalType": "uint256",
          "name": "",
          "type": "uint256"
        }
      ],
      "stateMutability": "view",
      "type": "function"
    },
    {
      "inputs": [
        {
          "internalType": "uint256",
          "name": "",
          "type": "uint256"
        }
      ],
      "name": "board",
      "outputs": [
        {
          "internalType": "uint256",
          "name": "",
          "type": "uint256"
        }
      ],
      "stateMutability": "view",
      "type": "function"
    },
    {
      "inputs": [],
      "name": "ended",
      "outputs": [
        {
          "internalType": "uint256",
          "name": "",
          "type": "uint256"
        }
      ],
      "stateMutability": "view",
      "type": "function"
    },
    {
      "inputs": [],
      "name": "id",
      "outputs": [
        {
          "internalType": "uint256",
          "name": "",
          "type": "uint256"
        }
      ],
      "stateMutability": "view",
      "type": "function"
    },
    {
      "inputs": [
        {
          "internalType": "uint256",
          "name": "",
          "type": "uint256"
        }
      ],
      "name": "moves",
      "outputs": [
        {
          "internalType": "address",
          "name": "who",
          "type": "address"
        },
        {
          "internalType": "uint256",
          "name": "when",
          "type": "uint256"
        },
        {
          "internalType": "uint256",
          "name": "turn",
          "type": "uint256"
        },
        {
          "internalType": "uint256",
          "name": "pos",
          "type": "uint256"
        }
      ],
      "stateMutability": "view",
      "type": "function"
    },
    {
      "inputs": [],
      "name": "playerO",
      "outputs": [
        {
          "internalType": "address",
          "name": "",
          "type": "address"
        }
      ],
      "stateMutability": "view",
      "type": "function"
    },
    {
      "inputs": [],
      "name": "playerX",
      "outputs": [
        {
          "internalType": "address",
          "name": "",
          "type": "address"
        }
      ],
      "stateMutability": "view",
      "type": "function"
    },
    {
      "inputs": [],
      "name": "registered",
      "outputs": [
        {
          "internalType": "uint256",
          "name": "",
          "type": "uint256"
        }
      ],
      "stateMutability": "view",
      "type": "function"
    },
    {
      "inputs": [],
      "name": "registrator",
      "outputs": [
        {
          "internalType": "address",
          "name": "",
          "type": "address"
        }
      ],
      "stateMutability": "view",
      "type": "function"
    },
    {
      "inputs": [],
      "name": "started",
      "outputs": [
        {
          "internalType": "uint256",
          "name": "",
          "type": "uint256"
        }
      ],
      "stateMutability": "view",
      "type": "function"
    },
    {
      "inputs": [],
      "name": "timeout",
      "outputs": [
        {
          "internalType": "uint256",
          "name": "",
          "type": "uint256"
        }
      ],
      "stateMutability": "view",
      "type": "function"
    },
    {
      "inputs": [],
      "name": "tip",
      "outputs": [
        {
          "internalType": "uint256",
          "name": "",
          "type": "uint256"
        }
      ],
      "stateMutability": "view",
      "type": "function"
    },
    {
      "inputs": [],
      "name": "turn",
      "outputs": [
        {
          "internalType": "uint256",
          "name": "",
          "type": "uint256"
        }
      ],
      "stateMutability": "view",
      "type": "function"
    },
    {
      "inputs": [],
      "name": "name",
      "outputs": [
        {
          "internalType": "string",
          "name": "",
          "type": "string"
        }
      ],
      "stateMutability": "pure",
      "type": "function"
    },
    {
      "inputs": [],
      "name": "isActive",
      "outputs": [
        {
          "internalType": "bool",
          "name": "",
          "type": "bool"
        }
      ],
      "stateMutability": "view",
      "type": "function"
    },
    {
      "inputs": [],
      "name": "isOpen",
      "outputs": [
        {
          "internalType": "bool",
          "name": "",
          "type": "bool"
        }
      ],
      "stateMutability": "view",
      "type": "function"
    },
    {
      "inputs": [],
      "name": "hasTimedOut",
      "outputs": [
        {
          "internalType": "bool",
          "name": "",
          "type": "bool"
        }
      ],
      "stateMutability": "view",
      "type": "function"
    },
    {
      "inputs": [
        {
          "internalType": "address",
          "name": "player",
          "type": "address"
        }
      ],
      "name": "registerX",
      "outputs": [],
      "stateMutability": "payable",
      "type": "function"
    },
    {
      "inputs": [
        {
          "internalType": "address",
          "name": "player",
          "type": "address"
        }
      ],
      "name": "registerO",
      "outputs": [],
      "stateMutability": "payable",
      "type": "function"
    },
    {
      "inputs": [
        {
          "internalType": "uint256",
          "name": "_pos",
          "type": "uint256"
        }
      ],
      "name": "move",
      "outputs": [],
      "stateMutability": "nonpayable",
      "type": "function"
    },
    {
      "inputs": [],
      "name": "calculateCasinoFee",
      "outputs": [
        {
          "internalType": "uint256",
          "name": "",
          "type": "uint256"
        }
      ],
      "stateMutability": "view",
      "type": "function"
    },
    {
      "inputs": [],
      "name": "calculateEarnings",
      "outputs": [
        {
          "internalType": "uint256",
          "name": "",
          "type": "uint256"
        }
      ],
      "stateMutability": "view",
      "type": "function"
    },
    {
      "inputs": [],
      "name": "winner",
      "outputs": [
        {
          "internalType": "address",
          "name": "",
          "type": "address"
        }
      ],
      "stateMutability": "view",
      "type": "function"
    },
    {
      "inputs": [],
      "name": "draw",
      "outputs": [
        {
          "internalType": "bool",
          "name": "",
          "type": "bool"
        }
      ],
      "stateMutability": "view",
      "type": "function"
    },
    {
      "inputs": [],
      "name": "claimFees",
      "outputs": [],
      "stateMutability": "nonpayable",
      "type": "function"
    }
  ],
  "bytecode": "0x608060405266038d7ea4c6800060005533600160006101000a81548173ffffffffffffffffffffffffffffffffffffffff021916908373ffffffffffffffffffffffffffffffffffffffff16021790555042600355610e1060045560006009556000600a553480156200007157600080fd5b5060405162002e2438038062002e24833981810160405281019062000097919062000156565b8160088190555080600260006101000a81548173ffffffffffffffffffffffffffffffffffffffff021916908373ffffffffffffffffffffffffffffffffffffffff1602179055507f19ef3a90ba0bbfeb1f5f68452b45c638804b6d9dd44829975c53b83c1ac21ed3600854600354836040516200011893929190620001bf565b60405180910390a1505062000273565b60008151905062000139816200023f565b92915050565b600081519050620001508162000259565b92915050565b6000806040838503121562000170576200016f6200023a565b5b600062000180858286016200013f565b9250506020620001938582860162000128565b9150509250929050565b620001a881620001fc565b82525050565b620001b98162000230565b82525050565b6000606082019050620001d66000830186620001ae565b620001e56020830185620001ae565b620001f460408301846200019d565b949350505050565b6000620002098262000210565b9050919050565b600073ffffffffffffffffffffffffffffffffffffffff82169050919050565b6000819050919050565b600080fd5b6200024a81620001fc565b81146200025657600080fd5b50565b620002648162000230565b81146200027057600080fd5b50565b612ba180620002836000396000f3fe6080604052600436106101665760003560e01c806347535d7b116100d157806387cb15f71161008a578063c6ed20c511610064578063c6ed20c5146104f9578063d294f09314610524578063dfbf53ae1461053b578063e7dafa6e1461056657610166565b806387cb15f71461047a5780638b299903146104a3578063af640d0f146104ce57610166565b806347535d7b146103815780634cdea7d2146103ac57806368aaa92f146103d757806370dea79a146103f3578063769287de1461041e5780637698baec1461043a57610166565b806312fa6feb1161012357806312fa6feb1461026d5780631f2698ab1461029857806322f3e2d4146102c35780632755cd2d146102ee57806328ed6e3f146103195780632de40ce31461035657610166565b80630628884f1461016b57806306fdde03146101965780630803efa1146101c157806309eaf723146101ec5780630eecae211461021757806311610c2514610242575b600080fd5b34801561017757600080fd5b50610180610591565b60405161018d9190612149565b60405180910390f35b3480156101a257600080fd5b506101ab6105b7565b6040516101b89190612164565b60405180910390f35b3480156101cd57600080fd5b506101d66105f4565b6040516101e39190612366565b60405180910390f35b3480156101f857600080fd5b50610201610627565b60405161020e9190612366565b60405180910390f35b34801561022357600080fd5b5061022c61065a565b6040516102399190612149565b60405180910390f35b34801561024e57600080fd5b506102576106f0565b6040516102649190612366565b60405180910390f35b34801561027957600080fd5b506102826106f6565b60405161028f9190612366565b60405180910390f35b3480156102a457600080fd5b506102ad6106fc565b6040516102ba9190612366565b60405180910390f35b3480156102cf57600080fd5b506102d8610702565b6040516102e59190612149565b60405180910390f35b3480156102fa57600080fd5b5061030361070e565b6040516103109190612366565b60405180910390f35b34801561032557600080fd5b50610340600480360381019061033b9190611e49565b610714565b60405161034d9190612366565b60405180910390f35b34801561036257600080fd5b5061036b61072f565b6040516103789190612366565b60405180910390f35b34801561038d57600080fd5b50610396610735565b6040516103a39190612149565b60405180910390f35b3480156103b857600080fd5b506103c16107f4565b6040516103ce91906120e9565b60405180910390f35b6103f160048036038101906103ec9190611e1c565b61081a565b005b3480156103ff57600080fd5b50610408610b27565b6040516104159190612366565b60405180910390f35b61043860048036038101906104339190611e1c565b610b2d565b005b34801561044657600080fd5b50610461600480360381019061045c9190611e49565b610e3a565b6040516104719493929190612104565b60405180910390f35b34801561048657600080fd5b506104a1600480360381019061049c9190611e49565b610e9a565b005b3480156104af57600080fd5b506104b861153f565b6040516104c59190612366565b60405180910390f35b3480156104da57600080fd5b506104e3611545565b6040516104f09190612366565b60405180910390f35b34801561050557600080fd5b5061050e61154b565b60405161051b91906120e9565b60405180910390f35b34801561053057600080fd5b50610539611571565b005b34801561054757600080fd5b506105506116c0565b60405161055d91906120e9565b60405180910390f35b34801561057257600080fd5b5061057b61197e565b60405161058891906120e9565b60405180910390f35b6000806005541180156105b257506004546005546105af919061251f565b42115b905090565b60606040518060400160405280600b81526020017f5469632054616320546f65000000000000000000000000000000000000000000815250905090565b600080600260095461060691906125a6565b9050606460038261061791906125a6565b6106219190612575565b91505090565b600080600260095461063991906125a6565b905060006106456105f4565b905080826106539190612600565b9250505090565b60008073ffffffffffffffffffffffffffffffffffffffff1661067b6116c0565b73ffffffffffffffffffffffffffffffffffffffff1614156106a057600090506106ed565b60005b60098110156106e7576000600d82600981106106c2576106c1612787565b5b015414156106d45760009150506106ed565b80806106df906126af565b9150506106a3565b50600190505b90565b60095481565b60065481565b60055481565b60008060065414905090565b600a5481565b600d816009811061072457600080fd5b016000915090505481565b60035481565b6000806005541480156107ef5750600073ffffffffffffffffffffffffffffffffffffffff16600b60009054906101000a900473ffffffffffffffffffffffffffffffffffffffff1673ffffffffffffffffffffffffffffffffffffffff1614806107ee5750600073ffffffffffffffffffffffffffffffffffffffff16600c60009054906101000a900473ffffffffffffffffffffffffffffffffffffffff1673ffffffffffffffffffffffffffffffffffffffff16145b5b905090565b600b60009054906101000a900473ffffffffffffffffffffffffffffffffffffffff1681565b600073ffffffffffffffffffffffffffffffffffffffff16600b60009054906101000a900473ffffffffffffffffffffffffffffffffffffffff1673ffffffffffffffffffffffffffffffffffffffff16146108ab576040517f08c379a00000000000000000000000000000000000000000000000000000000081526004016108a2906122c6565b60405180910390fd5b8073ffffffffffffffffffffffffffffffffffffffff163373ffffffffffffffffffffffffffffffffffffffff16148061093257508073ffffffffffffffffffffffffffffffffffffffff16600260009054906101000a900473ffffffffffffffffffffffffffffffffffffffff1673ffffffffffffffffffffffffffffffffffffffff16145b610971576040517f08c379a0000000000000000000000000000000000000000000000000000000008152600401610968906121c6565b60405180910390fd5b8073ffffffffffffffffffffffffffffffffffffffff16600c60009054906101000a900473ffffffffffffffffffffffffffffffffffffffff1673ffffffffffffffffffffffffffffffffffffffff161415610a02576040517f08c379a00000000000000000000000000000000000000000000000000000000081526004016109f990612326565b60405180910390fd5b60005434118015610a1557506009543410155b610a54576040517f08c379a0000000000000000000000000000000000000000000000000000000008152600401610a4b90612186565b60405180910390fd5b6000600954118015610a67575060095434115b15610a935760095434610a7a9190612600565b600a6000828254610a8b919061251f565b925050819055505b60006009541415610aa657346009819055505b80600b60006101000a81548173ffffffffffffffffffffffffffffffffffffffff021916908373ffffffffffffffffffffffffffffffffffffffff1602179055507f7d2cc28c91dbb097951a1cc6a77617676b5fa31f1c0e678b9b5c0cd388ede4af6008548242604051610b1c93929190612381565b60405180910390a150565b60045481565b600073ffffffffffffffffffffffffffffffffffffffff16600c60009054906101000a900473ffffffffffffffffffffffffffffffffffffffff1673ffffffffffffffffffffffffffffffffffffffff1614610bbe576040517f08c379a0000000000000000000000000000000000000000000000000000000008152600401610bb590612266565b60405180910390fd5b8073ffffffffffffffffffffffffffffffffffffffff163373ffffffffffffffffffffffffffffffffffffffff161480610c4557508073ffffffffffffffffffffffffffffffffffffffff16600260009054906101000a900473ffffffffffffffffffffffffffffffffffffffff1673ffffffffffffffffffffffffffffffffffffffff16145b610c84576040517f08c379a0000000000000000000000000000000000000000000000000000000008152600401610c7b906121c6565b60405180910390fd5b8073ffffffffffffffffffffffffffffffffffffffff16600b60009054906101000a900473ffffffffffffffffffffffffffffffffffffffff1673ffffffffffffffffffffffffffffffffffffffff161415610d15576040517f08c379a0000000000000000000000000000000000000000000000000000000008152600401610d0c90612306565b60405180910390fd5b60005434118015610d2857506009543410155b610d67576040517f08c379a0000000000000000000000000000000000000000000000000000000008152600401610d5e90612186565b60405180910390fd5b6000600954118015610d7a575060095434115b15610da65760095434610d8d9190612600565b600a6000828254610d9e919061251f565b925050819055505b60006009541415610db957346009819055505b80600c60006101000a81548173ffffffffffffffffffffffffffffffffffffffff021916908373ffffffffffffffffffffffffffffffffffffffff1602179055507fd5a59ab4dd54b471d4300e3696ec3996efaef3d9fad7c8663eb4fad819832ed96008548242604051610e2f93929190612381565b60405180910390a150565b60078181548110610e4a57600080fd5b90600052602060002090600402016000915090508060000160009054906101000a900473ffffffffffffffffffffffffffffffffffffffff16908060010154908060020154908060030154905084565b600b60009054906101000a900473ffffffffffffffffffffffffffffffffffffffff1673ffffffffffffffffffffffffffffffffffffffff163373ffffffffffffffffffffffffffffffffffffffff161480610f435750600c60009054906101000a900473ffffffffffffffffffffffffffffffffffffffff1673ffffffffffffffffffffffffffffffffffffffff163373ffffffffffffffffffffffffffffffffffffffff16145b610f82576040517f08c379a0000000000000000000000000000000000000000000000000000000008152600401610f7990612346565b60405180910390fd5b610f8a610591565b15610fca576040517f08c379a0000000000000000000000000000000000000000000000000000000008152600401610fc1906122e6565b60405180910390fd5b610fd261065a565b15611012576040517f08c379a0000000000000000000000000000000000000000000000000000000008152600401611009906121a6565b60405180910390fd5b600073ffffffffffffffffffffffffffffffffffffffff166110326116c0565b73ffffffffffffffffffffffffffffffffffffffff1614611088576040517f08c379a000000000000000000000000000000000000000000000000000000000815260040161107f90612206565b60405180910390fd5b6000600260165461109991906126f8565b141561113457600b60009054906101000a900473ffffffffffffffffffffffffffffffffffffffff1673ffffffffffffffffffffffffffffffffffffffff163373ffffffffffffffffffffffffffffffffffffffff161461112f576040517f08c379a000000000000000000000000000000000000000000000000000000000815260040161112690612226565b60405180910390fd5b6111c5565b600c60009054906101000a900473ffffffffffffffffffffffffffffffffffffffff1673ffffffffffffffffffffffffffffffffffffffff163373ffffffffffffffffffffffffffffffffffffffff16146111c4576040517f08c379a00000000000000000000000000000000000000000000000000000000081526004016111bb90612246565b60405180910390fd5b5b6111ce816119a4565b61120d576040517f08c379a0000000000000000000000000000000000000000000000000000000008152600401611204906121e6565b60405180910390fd5b61121781336119c5565b7f09f853bad0e9fd288767f94d5352103a9754dea6473752ae14f47506eb2b6f466008543360165484426040516112529594939291906123fd565b60405180910390a1600760405180608001604052803373ffffffffffffffffffffffffffffffffffffffff168152602001428152602001601654815260200183815250908060018154018082558091505060019003906000526020600020906004020160009091909190915060008201518160000160006101000a81548173ffffffffffffffffffffffffffffffffffffffff021916908373ffffffffffffffffffffffffffffffffffffffff16021790555060208201518160010155604082015181600201556060820151816003015550506000601654141561137357426005819055507f8c3d3281fd6f616518175932f5201290f693ec5536ccbb2e06c965d4a6a1aeba6008544260405161136a929190612450565b60405180910390a15b600160166000828254611386919061251f565b9250508190555060006113976116c0565b90506113a161065a565b156113f3577f79c638881fbfa6a03de3e6af82cf35831eec3d7db9c452bd99e844ae639aa67b600854426016546040516113dd93929190612479565b60405180910390a16113ee81611a5b565b61153b565b600b60009054906101000a900473ffffffffffffffffffffffffffffffffffffffff1673ffffffffffffffffffffffffffffffffffffffff168173ffffffffffffffffffffffffffffffffffffffff161415611498577f0dc021c80b0c4225e226e926064e6854dbc09db3f2098d4cce23f6a50f43ebf2600854824260165460405161148294939291906123b8565b60405180910390a161149381611a5b565b61153a565b600c60009054906101000a900473ffffffffffffffffffffffffffffffffffffffff1673ffffffffffffffffffffffffffffffffffffffff168173ffffffffffffffffffffffffffffffffffffffff161415611539577f63a605b6afe342bf5af086afb7fe37337c94c912b8bcb89eaabdfe300fafd475600854824260165460405161152794939291906123b8565b60405180910390a161153881611a5b565b5b5b5b5050565b60165481565b60085481565b600260009054906101000a900473ffffffffffffffffffffffffffffffffffffffff1681565b600160009054906101000a900473ffffffffffffffffffffffffffffffffffffffff1673ffffffffffffffffffffffffffffffffffffffff163373ffffffffffffffffffffffffffffffffffffffff1614611601576040517f08c379a00000000000000000000000000000000000000000000000000000000081526004016115f8906122a6565b60405180910390fd5b600060065411806116165750611615610591565b5b611655576040517f08c379a000000000000000000000000000000000000000000000000000000000815260040161164c90612286565b60405180910390fd5b600160009054906101000a900473ffffffffffffffffffffffffffffffffffffffff1673ffffffffffffffffffffffffffffffffffffffff166108fc479081150290604051600060405180830381858888f193505050501580156116bd573d6000803e3d6000fd5b50565b600080600090506000600190505b600281116119745760005b60038110156117b9576001925060005b60038110156117415782600d8260038561170391906125a6565b61170d919061251f565b6009811061171e5761171d612787565b5b01541461172e5760009350611741565b8080611739906126af565b9150506116e9565b5082156117a6576001821461177857600c60009054906101000a900473ffffffffffffffffffffffffffffffffffffffff1661179c565b600b60009054906101000a900473ffffffffffffffffffffffffffffffffffffffff165b935050505061197b565b80806117b1906126af565b9150506116d9565b5060005b600381101561189d576001925060005b60038110156118255782600d836003846117e791906125a6565b6117f1919061251f565b6009811061180257611801612787565b5b0154146118125760009350611825565b808061181d906126af565b9150506117cd565b50821561188a576001821461185c57600c60009054906101000a900473ffffffffffffffffffffffffffffffffffffffff16611880565b600b60009054906101000a900473ffffffffffffffffffffffffffffffffffffffff165b935050505061197b565b8080611895906126af565b9150506117bd565b506001915060005b60038110156118fd5781600d826003846118bf91906125a6565b6118c9919061251f565b600981106118da576118d9612787565b5b0154146118ea57600092506118fd565b80806118f5906126af565b9150506118a5565b508115611961576001811461193457600c60009054906101000a900473ffffffffffffffffffffffffffffffffffffffff16611958565b600b60009054906101000a900473ffffffffffffffffffffffffffffffffffffffff165b9250505061197b565b808061196c906126af565b9150506116ce565b5060009150505b90565b600c60009054906101000a900473ffffffffffffffffffffffffffffffffffffffff1681565b600080600d83600981106119bb576119ba612787565b5b0154149050919050565b600b60009054906101000a900473ffffffffffffffffffffffffffffffffffffffff1673ffffffffffffffffffffffffffffffffffffffff168173ffffffffffffffffffffffffffffffffffffffff161415611a3b576001600d8360098110611a3157611a30612787565b5b0181905550611a57565b6002600d8360098110611a5157611a50612787565b5b01819055505b5050565b426006819055507f8cbe327372308d79e2d124476bc6d364529ae64f8d2bdf53da7a6f8c345f365f6008544260165447611a93610627565b604051611aa49594939291906124b0565b60405180910390a1600073ffffffffffffffffffffffffffffffffffffffff168173ffffffffffffffffffffffffffffffffffffffff161415611c8f5760006002611aed610627565b611af79190612575565b9050600b60009054906101000a900473ffffffffffffffffffffffffffffffffffffffff1673ffffffffffffffffffffffffffffffffffffffff166108fc829081150290604051600060405180830381858888f19350505050158015611b61573d6000803e3d6000fd5b507f2e90d1cd7a5e9a5b99747c36130d866c8687bff313d44cdd245df73bcda43621600854600b60009054906101000a900473ffffffffffffffffffffffffffffffffffffffff1683604051611bb993929190612381565b60405180910390a1600c60009054906101000a900473ffffffffffffffffffffffffffffffffffffffff1673ffffffffffffffffffffffffffffffffffffffff166108fc829081150290604051600060405180830381858888f19350505050158015611c29573d6000803e3d6000fd5b507f2e90d1cd7a5e9a5b99747c36130d866c8687bff313d44cdd245df73bcda43621600854600c60009054906101000a900473ffffffffffffffffffffffffffffffffffffffff1683604051611c8193929190612381565b60405180910390a150611d21565b6000611c99610627565b90508173ffffffffffffffffffffffffffffffffffffffff166108fc829081150290604051600060405180830381858888f19350505050158015611ce1573d6000803e3d6000fd5b507f2e90d1cd7a5e9a5b99747c36130d866c8687bff313d44cdd245df73bcda436216008548383604051611d1793929190612381565b60405180910390a1505b6000479050600160009054906101000a900473ffffffffffffffffffffffffffffffffffffffff1673ffffffffffffffffffffffffffffffffffffffff166108fc829081150290604051600060405180830381858888f19350505050158015611d8e573d6000803e3d6000fd5b507f2e90d1cd7a5e9a5b99747c36130d866c8687bff313d44cdd245df73bcda43621600854600160009054906101000a900473ffffffffffffffffffffffffffffffffffffffff1683604051611de693929190612381565b60405180910390a15050565b600081359050611e0181612b3d565b92915050565b600081359050611e1681612b54565b92915050565b600060208284031215611e3257611e316127b6565b5b6000611e4084828501611df2565b91505092915050565b600060208284031215611e5f57611e5e6127b6565b5b6000611e6d84828501611e07565b91505092915050565b611e7f81612634565b82525050565b611e8e81612646565b82525050565b6000611e9f82612503565b611ea9818561250e565b9350611eb981856020860161267c565b611ec2816127bb565b840191505092915050565b6000611eda60208361250e565b9150611ee5826127cc565b602082019050919050565b6000611efd602a8361250e565b9150611f08826127f5565b604082019050919050565b6000611f2060358361250e565b9150611f2b82612844565b604082019050919050565b6000611f4360208361250e565b9150611f4e82612893565b602082019050919050565b6000611f66602c8361250e565b9150611f71826128bc565b604082019050919050565b6000611f8960148361250e565b9150611f948261290b565b602082019050919050565b6000611fac60148361250e565b9150611fb782612934565b602082019050919050565b6000611fcf601e8361250e565b9150611fda8261295d565b602082019050919050565b6000611ff2601c8361250e565b9150611ffd82612986565b602082019050919050565b6000612015601a8361250e565b9150612020826129af565b602082019050919050565b6000612038601e8361250e565b9150612043826129d8565b602082019050919050565b600061205b602d8361250e565b915061206682612a01565b604082019050919050565b600061207e60278361250e565b915061208982612a50565b604082019050919050565b60006120a160278361250e565b91506120ac82612a9f565b604082019050919050565b60006120c460258361250e565b91506120cf82612aee565b604082019050919050565b6120e381612672565b82525050565b60006020820190506120fe6000830184611e76565b92915050565b60006080820190506121196000830187611e76565b61212660208301866120da565b61213360408301856120da565b61214060608301846120da565b95945050505050565b600060208201905061215e6000830184611e85565b92915050565b6000602082019050818103600083015261217e8184611e94565b905092915050565b6000602082019050818103600083015261219f81611ecd565b9050919050565b600060208201905081810360008301526121bf81611ef0565b9050919050565b600060208201905081810360008301526121df81611f13565b9050919050565b600060208201905081810360008301526121ff81611f36565b9050919050565b6000602082019050818103600083015261221f81611f59565b9050919050565b6000602082019050818103600083015261223f81611f7c565b9050919050565b6000602082019050818103600083015261225f81611f9f565b9050919050565b6000602082019050818103600083015261227f81611fc2565b9050919050565b6000602082019050818103600083015261229f81611fe5565b9050919050565b600060208201905081810360008301526122bf81612008565b9050919050565b600060208201905081810360008301526122df8161202b565b9050919050565b600060208201905081810360008301526122ff8161204e565b9050919050565b6000602082019050818103600083015261231f81612071565b9050919050565b6000602082019050818103600083015261233f81612094565b9050919050565b6000602082019050818103600083015261235f816120b7565b9050919050565b600060208201905061237b60008301846120da565b92915050565b600060608201905061239660008301866120da565b6123a36020830185611e76565b6123b060408301846120da565b949350505050565b60006080820190506123cd60008301876120da565b6123da6020830186611e76565b6123e760408301856120da565b6123f460608301846120da565b95945050505050565b600060a08201905061241260008301886120da565b61241f6020830187611e76565b61242c60408301866120da565b61243960608301856120da565b61244660808301846120da565b9695505050505050565b600060408201905061246560008301856120da565b61247260208301846120da565b9392505050565b600060608201905061248e60008301866120da565b61249b60208301856120da565b6124a860408301846120da565b949350505050565b600060a0820190506124c560008301886120da565b6124d260208301876120da565b6124df60408301866120da565b6124ec60608301856120da565b6124f960808301846120da565b9695505050505050565b600081519050919050565b600082825260208201905092915050565b600061252a82612672565b915061253583612672565b9250827fffffffffffffffffffffffffffffffffffffffffffffffffffffffffffffffff0382111561256a57612569612729565b5b828201905092915050565b600061258082612672565b915061258b83612672565b92508261259b5761259a612758565b5b828204905092915050565b60006125b182612672565b91506125bc83612672565b9250817fffffffffffffffffffffffffffffffffffffffffffffffffffffffffffffffff04831182151516156125f5576125f4612729565b5b828202905092915050565b600061260b82612672565b915061261683612672565b92508282101561262957612628612729565b5b828203905092915050565b600061263f82612652565b9050919050565b60008115159050919050565b600073ffffffffffffffffffffffffffffffffffffffff82169050919050565b6000819050919050565b60005b8381101561269a57808201518184015260208101905061267f565b838111156126a9576000848401525b50505050565b60006126ba82612672565b91507fffffffffffffffffffffffffffffffffffffffffffffffffffffffffffffffff8214156126ed576126ec612729565b5b600182019050919050565b600061270382612672565b915061270e83612672565b92508261271e5761271d612758565b5b828206905092915050565b7f4e487b7100000000000000000000000000000000000000000000000000000000600052601160045260246000fd5b7f4e487b7100000000000000000000000000000000000000000000000000000000600052601260045260246000fd5b7f4e487b7100000000000000000000000000000000000000000000000000000000600052603260045260246000fd5b600080fd5b6000601f19601f8301169050919050565b7f412062657420697320726571756972656420746f207061727469636970617465600082015250565b7f546869732067616d652068617320616c726561647920656e646564202872656160008201527f736f6e3a20647261772900000000000000000000000000000000000000000000602082015250565b7f4f6e6c79207468652073656e646572206f72207468652072656769737472617460008201527f6f722063616e2073656c65637420706c61796572730000000000000000000000602082015250565b7f5468617420706f736974696f6e20697320616c726561647920706c6179656421600082015250565b7f546869732067616d652068617320616c726561647920656e646564202872656160008201527f736f6e3a2077696e6e6572290000000000000000000000000000000000000000602082015250565b7f49747320706c6179657220582773207475726e21000000000000000000000000600082015250565b7f49747320706c61796572204f2773207475726e21000000000000000000000000600082015250565b7f506c61796572204f20697320616c726561647920726567697374657265640000600082015250565b7f546869732067616d6520686173206e6f7420656e646564207965742100000000600082015250565b7f4f6e6c7920616c6c6f77656420666f7220746865206f6e776572000000000000600082015250565b7f506c61796572205820697320616c726561647920726567697374657265640000600082015250565b7f546869732067616d652068617320616c726561647920656e646564202872656160008201527f736f6e3a2074696d656f75742900000000000000000000000000000000000000602082015250565b7f506c61796572204f2063616e6e6f74206265207468652073616d65206173207060008201527f6c61796572205800000000000000000000000000000000000000000000000000602082015250565b7f506c6179657220582063616e6e6f74206265207468652073616d65206173207060008201527f6c61796572204f00000000000000000000000000000000000000000000000000602082015250565b7f4f6e6c7920616c6c6f77656420666f7220706c6179657273206f66207468697360008201527f2067616d65000000000000000000000000000000000000000000000000000000602082015250565b612b4681612634565b8114612b5157600080fd5b50565b612b5d81612672565b8114612b6857600080fd5b5056fea2646970667358221220a6d4d9c04176b543da7a2b4c2bcbfd8760f03c7f60d71e0050f2356b94cc0ce864736f6c63430008060033",
  "immutableReferences": {},
  "source": "// SPDX-License-Identifier: MIT\npragma solidity ^0.8.0;\n\nimport './Game.sol';\n\ncontract TicTacToe is Game {\n\n  event Registered(uint _id, uint _when, address _who);\n  event PlayerXJoined(uint _id, address _who, uint _when);\n  event PlayerOJoined(uint _id, address _who, uint _when);\n  event FirstMove(uint _id, uint _when);\n  event Move(uint _id, address _who, uint _turn, uint _pos, uint _when);\n  event End(uint _id, uint _when, uint _turn, uint _balance, uint _pot);\n  event Draw(uint _id, uint _when, uint _turn);\n  event XWin(uint _id, address _who, uint _when, uint _turn);\n  event OWin(uint _id, address _who, uint _when, uint _turn);\n  event Transfer(uint _id, address _who, uint _value);\n\n  struct Movement {\n    address who;\n    uint when;\n    uint turn;\n    uint pos;\n  }\n\n  uint minBet = 0.001 ether;\n  address _owner = msg.sender; // casino that owns the game\n  address public registrator; // player that registered the game in the first place\n\n  // timestamps\n  uint public registered = block.timestamp;\n  uint public timeout = 1 hours;\n  uint public started;\n  uint public ended;\n\n  // record movements\n  Movement[] public moves;\n\n  uint public id;\n  uint public bet = 0;\n  uint public tip = 0;\n\n  address public playerX;\n  address public playerO;\n\n  uint[9] public board;\n  uint public turn;\n\n  modifier onlyPlayers() {\n    require(msg.sender == playerX || msg.sender == playerO, \"Only allowed for players of this game\");\n    _;\n  }\n\n  modifier onlyOwner() {\n    require(msg.sender == _owner, \"Only allowed for the onwer\");\n    _;\n  }\n\n  modifier activeGame() {\n    require(!hasTimedOut(), \"This game has already ended (reason: timeout)\");\n    require(!draw(), \"This game has already ended (reason: draw)\");\n    require(winner() == address(0), \"This game has already ended (reason: winner)\");\n    _;\n  }\n\n  modifier onlyClosedGame() {\n    require(ended > 0 || hasTimedOut(), \"This game has not ended yet!\");\n    _;\n  }\n\n  constructor(uint _id, address _registrator) {\n    id = _id;\n    registrator = _registrator;\n    emit Registered(id, registered, _registrator);\n  }\n\n  function name() override external pure returns (string memory) {\n    return \"Tic Tac Toe\";\n  }\n\n  function isActive() override external view returns (bool) {\n    return ended == 0;\n  }\n\n  function isOpen() override external view returns (bool) {\n    return started == 0 && (playerX == address(0) || playerO == address(0));\n  }\n\n  function hasTimedOut() public view returns (bool) {\n    return started > 0 && block.timestamp > started + timeout;\n  }\n\n  function registerX(address player) external payable {\n    require(playerX == address(0), \"Player X is already registered\");\n    require(msg.sender == player || registrator == player, \"Only the sender or the registrator can select players\");\n    require(playerO != player, \"Player X cannot be the same as player O\");\n    require(msg.value > minBet && msg.value >= bet, \"A bet is required to participate\");\n    if (bet > 0 && msg.value > bet) {\n      // thanks for the tip to the casino\n      tip += msg.value - bet;\n    }\n    if (bet == 0) {\n      bet = msg.value;\n    }\n    playerX = player;\n    emit PlayerXJoined(id, player, block.timestamp);\n  }\n\n  function registerO(address player) external payable {\n    require(playerO == address(0), \"Player O is already registered\");\n    require(msg.sender == player || registrator == player, \"Only the sender or the registrator can select players\");\n    require(playerX != player, \"Player O cannot be the same as player X\");\n    require(msg.value > minBet && msg.value >= bet, \"A bet is required to participate\");\n    if (bet > 0 && msg.value > bet) {\n      // thanks for the tip to the casino\n      tip += msg.value - bet;\n    }\n    if (bet == 0) {\n      bet = msg.value;\n    }\n    playerO = player;\n    emit PlayerOJoined(id, player, block.timestamp);\n  }\n\n  function isEmpty(uint _pos) internal view returns (bool) {\n    return board[_pos] == 0;\n  }\n\n  function mark(uint _pos, address _who) private {\n    if (_who == playerX) {\n      board[_pos] = 1;\n    } else {\n      board[_pos] = 2;\n    }\n  }\n\n  function closeGame(address _winner) internal {\n    ended = block.timestamp;\n    emit End(id, block.timestamp, turn, address(this).balance, calculateEarnings());\n\n    if (_winner == address(0)) {\n      // Draw - split in half (minus fee)\n      uint halfEarnings = calculateEarnings()/2;\n      payable(playerX).transfer(halfEarnings);\n      emit Transfer(id, playerX, halfEarnings);\n      payable(playerO).transfer(halfEarnings);\n      emit Transfer(id, playerO, halfEarnings);\n    } else {\n      uint earnings = calculateEarnings();\n      payable(_winner).transfer(earnings);\n      emit Transfer(id, _winner, earnings);\n    }\n    uint casinoFees = address(this).balance;\n    payable(_owner).transfer(casinoFees);\n    emit Transfer(id, _owner, casinoFees);\n  }\n\n  function move(uint _pos) external onlyPlayers activeGame {\n    // check if we are in the correct turn\n    if (turn % 2 == 0) {\n      require(msg.sender == playerX, \"Its player X's turn!\");\n    } else {\n      require(msg.sender == playerO, \"Its player O's turn!\");\n    }\n\n    // check that the position is clear\n    require(isEmpty(_pos), \"That position is already played!\");\n\n    // mark the position\n    mark(_pos, msg.sender);\n\n    // register the movement\n    emit Move(id, msg.sender, turn, _pos, block.timestamp);\n    moves.push(Movement(msg.sender, block.timestamp, turn, _pos));\n\n    // register the first movement\n    if (turn == 0) {\n      started = block.timestamp;\n      emit FirstMove(id, block.timestamp);\n    }\n\n    // advance turn\n    turn += 1;\n\n    // check if the game has ended\n    address _winner = winner();\n    \n    if (draw()) {\n      emit Draw(id, block.timestamp, turn);\n      closeGame(_winner);\n    }\n    else if (_winner == playerX) {\n      emit XWin(id, _winner, block.timestamp, turn);\n      closeGame(_winner);\n    }\n    else if (_winner == playerO) {\n      emit OWin(id, _winner, block.timestamp, turn);\n      closeGame(_winner);\n    }\n  }\n\n  function calculateCasinoFee() public view returns (uint) {\n    uint pot = bet * 2;\n    return pot * 3/100;\n  }\n\n  function calculateEarnings() public view returns (uint) {\n    uint pot = bet * 2;\n    uint fee = calculateCasinoFee();\n    return pot - fee;\n  }\n\n  function winner() public view returns (address) {\n    bool win = false;\n    for (uint p = 1; p <= 2; p++) {\n      // check rows\n      for (uint i = 0; i < 3; i++) {\n        win = true;\n        for (uint j = 0; j < 3; j++) {\n          if (board[i * 3 + j] != p) {\n            win = false;\n            break;\n          }\n        }\n        if (win) {\n          return p == 1? playerX : playerO;\n        }\n      }\n      // check columns\n      for (uint i = 0; i < 3; i++) {\n        win = true;\n        for (uint j = 0; j < 3; j++) {\n          if (board[j * 3 + i] != p) {\n            win = false;\n            break;\n          }\n        }\n        if (win) {\n          return p == 1? playerX : playerO;\n        }\n      }\n      // check diagonals\n      win = true;\n      for (uint i = 0; i < 3; i++) {\n        if (board[i * 3 + i] != p) {\n          win = false;\n          break;\n        }\n      }\n      if (win) {\n        return p == 1? playerX : playerO;\n      }\n    }\n    return address(0);\n  }\n\n  function draw() public view returns (bool) {\n    if (winner() == address(0)) {\n      return false;\n    }\n    for (uint i = 0; i < 9; i++) {\n      if (board[i] == 0) {\n        return false;\n      }\n    }\n    return true;\n  }\n\n  function claimFees() external onlyOwner onlyClosedGame {\n    // TODO: ideas to improve this smart contract... I had no time for this POC project :D\n    // TODO: make it fair - only claim cash that went unclaimed ... TODO: add a threshold? force claim by owner after a timeout?\n    // What happens if it times out???\n    // The winner should be whoever moved last? or draw?\n    // Probably this will be the caller anyway, audited by the casino\n    payable(_owner).transfer(address(this).balance);\n  }\n}\n",
  "sourcePath": "C:\\Users\\Josi\\Dev\\final-project\\contracts\\TicTacToe.sol",
  "compiler": {
    "name": "solc",
    "version": "0.8.6+commit.11564f7e.Emscripten.clang"
  },
  "schemaVersion": "3.4.3",
  "updatedAt": "2021-11-28T16:18:37.725Z",
  "devdoc": {
    "kind": "dev",
    "methods": {},
    "version": 1
  },
  "userdoc": {
    "kind": "user",
    "methods": {},
    "version": 1
  }
}