{
  "contractName": "TicTacToe",
  "abi": [
    {
      "inputs": [
        {
          "internalType": "uint256",
          "name": "_id",
          "type": "uint256"
        },
        {
          "internalType": "address",
          "name": "_registrator",
          "type": "address"
        }
      ],
      "stateMutability": "nonpayable",
      "type": "constructor"
    },
    {
      "anonymous": false,
      "inputs": [
        {
          "indexed": false,
          "internalType": "uint256",
          "name": "_id",
          "type": "uint256"
        },
        {
          "indexed": false,
          "internalType": "uint256",
          "name": "_when",
          "type": "uint256"
        },
        {
          "indexed": false,
          "internalType": "uint256",
          "name": "_turn",
          "type": "uint256"
        }
      ],
      "name": "Draw",
      "type": "event"
    },
    {
      "anonymous": false,
      "inputs": [
        {
          "indexed": false,
          "internalType": "uint256",
          "name": "_id",
          "type": "uint256"
        },
        {
          "indexed": false,
          "internalType": "uint256",
          "name": "_when",
          "type": "uint256"
        },
        {
          "indexed": false,
          "internalType": "uint256",
          "name": "_turn",
          "type": "uint256"
        },
        {
          "indexed": false,
          "internalType": "uint256",
          "name": "_balance",
          "type": "uint256"
        },
        {
          "indexed": false,
          "internalType": "uint256",
          "name": "_pot",
          "type": "uint256"
        }
      ],
      "name": "End",
      "type": "event"
    },
    {
      "anonymous": false,
      "inputs": [
        {
          "indexed": false,
          "internalType": "uint256",
          "name": "_id",
          "type": "uint256"
        },
        {
          "indexed": false,
          "internalType": "uint256",
          "name": "_when",
          "type": "uint256"
        }
      ],
      "name": "FirstMove",
      "type": "event"
    },
    {
      "anonymous": false,
      "inputs": [
        {
          "indexed": false,
          "internalType": "uint256",
          "name": "_id",
          "type": "uint256"
        },
        {
          "indexed": false,
          "internalType": "address",
          "name": "_who",
          "type": "address"
        },
        {
          "indexed": false,
          "internalType": "uint256",
          "name": "_turn",
          "type": "uint256"
        },
        {
          "indexed": false,
          "internalType": "uint256",
          "name": "_pos",
          "type": "uint256"
        },
        {
          "indexed": false,
          "internalType": "uint256",
          "name": "_when",
          "type": "uint256"
        }
      ],
      "name": "Move",
      "type": "event"
    },
    {
      "anonymous": false,
      "inputs": [
        {
          "indexed": false,
          "internalType": "uint256",
          "name": "_id",
          "type": "uint256"
        },
        {
          "indexed": false,
          "internalType": "address",
          "name": "_who",
          "type": "address"
        },
        {
          "indexed": false,
          "internalType": "uint256",
          "name": "_when",
          "type": "uint256"
        },
        {
          "indexed": false,
          "internalType": "uint256",
          "name": "_turn",
          "type": "uint256"
        }
      ],
      "name": "OWin",
      "type": "event"
    },
    {
      "anonymous": false,
      "inputs": [
        {
          "indexed": false,
          "internalType": "uint256",
          "name": "_id",
          "type": "uint256"
        },
        {
          "indexed": false,
          "internalType": "address",
          "name": "_who",
          "type": "address"
        },
        {
          "indexed": false,
          "internalType": "uint256",
          "name": "_when",
          "type": "uint256"
        }
      ],
      "name": "PlayerOJoined",
      "type": "event"
    },
    {
      "anonymous": false,
      "inputs": [
        {
          "indexed": false,
          "internalType": "uint256",
          "name": "_id",
          "type": "uint256"
        },
        {
          "indexed": false,
          "internalType": "address",
          "name": "_who",
          "type": "address"
        },
        {
          "indexed": false,
          "internalType": "uint256",
          "name": "_when",
          "type": "uint256"
        }
      ],
      "name": "PlayerXJoined",
      "type": "event"
    },
    {
      "anonymous": false,
      "inputs": [
        {
          "indexed": false,
          "internalType": "uint256",
          "name": "_id",
          "type": "uint256"
        },
        {
          "indexed": false,
          "internalType": "uint256",
          "name": "_when",
          "type": "uint256"
        },
        {
          "indexed": false,
          "internalType": "address",
          "name": "_who",
          "type": "address"
        }
      ],
      "name": "Registered",
      "type": "event"
    },
    {
      "anonymous": false,
      "inputs": [
        {
          "indexed": false,
          "internalType": "uint256",
          "name": "_id",
          "type": "uint256"
        },
        {
          "indexed": false,
          "internalType": "address",
          "name": "_who",
          "type": "address"
        },
        {
          "indexed": false,
          "internalType": "uint256",
          "name": "_value",
          "type": "uint256"
        }
      ],
      "name": "Transfer",
      "type": "event"
    },
    {
      "anonymous": false,
      "inputs": [
        {
          "indexed": false,
          "internalType": "uint256",
          "name": "_id",
          "type": "uint256"
        },
        {
          "indexed": false,
          "internalType": "address",
          "name": "_who",
          "type": "address"
        },
        {
          "indexed": false,
          "internalType": "uint256",
          "name": "_when",
          "type": "uint256"
        },
        {
          "indexed": false,
          "internalType": "uint256",
          "name": "_turn",
          "type": "uint256"
        }
      ],
      "name": "XWin",
      "type": "event"
    },
    {
      "inputs": [],
      "name": "bet",
      "outputs": [
        {
          "internalType": "uint256",
          "name": "",
          "type": "uint256"
        }
      ],
      "stateMutability": "view",
      "type": "function"
    },
    {
      "inputs": [
        {
          "internalType": "uint256",
          "name": "",
          "type": "uint256"
        }
      ],
      "name": "board",
      "outputs": [
        {
          "internalType": "uint256",
          "name": "",
          "type": "uint256"
        }
      ],
      "stateMutability": "view",
      "type": "function"
    },
    {
      "inputs": [],
      "name": "ended",
      "outputs": [
        {
          "internalType": "uint256",
          "name": "",
          "type": "uint256"
        }
      ],
      "stateMutability": "view",
      "type": "function"
    },
    {
      "inputs": [],
      "name": "id",
      "outputs": [
        {
          "internalType": "uint256",
          "name": "",
          "type": "uint256"
        }
      ],
      "stateMutability": "view",
      "type": "function"
    },
    {
      "inputs": [
        {
          "internalType": "uint256",
          "name": "",
          "type": "uint256"
        }
      ],
      "name": "moves",
      "outputs": [
        {
          "internalType": "address",
          "name": "who",
          "type": "address"
        },
        {
          "internalType": "uint256",
          "name": "when",
          "type": "uint256"
        },
        {
          "internalType": "uint256",
          "name": "turn",
          "type": "uint256"
        },
        {
          "internalType": "uint256",
          "name": "pos",
          "type": "uint256"
        }
      ],
      "stateMutability": "view",
      "type": "function"
    },
    {
      "inputs": [],
      "name": "playerO",
      "outputs": [
        {
          "internalType": "address",
          "name": "",
          "type": "address"
        }
      ],
      "stateMutability": "view",
      "type": "function"
    },
    {
      "inputs": [],
      "name": "playerX",
      "outputs": [
        {
          "internalType": "address",
          "name": "",
          "type": "address"
        }
      ],
      "stateMutability": "view",
      "type": "function"
    },
    {
      "inputs": [],
      "name": "registered",
      "outputs": [
        {
          "internalType": "uint256",
          "name": "",
          "type": "uint256"
        }
      ],
      "stateMutability": "view",
      "type": "function"
    },
    {
      "inputs": [],
      "name": "registrator",
      "outputs": [
        {
          "internalType": "address",
          "name": "",
          "type": "address"
        }
      ],
      "stateMutability": "view",
      "type": "function"
    },
    {
      "inputs": [],
      "name": "started",
      "outputs": [
        {
          "internalType": "uint256",
          "name": "",
          "type": "uint256"
        }
      ],
      "stateMutability": "view",
      "type": "function"
    },
    {
      "inputs": [],
      "name": "timeout",
      "outputs": [
        {
          "internalType": "uint256",
          "name": "",
          "type": "uint256"
        }
      ],
      "stateMutability": "view",
      "type": "function"
    },
    {
      "inputs": [],
      "name": "tip",
      "outputs": [
        {
          "internalType": "uint256",
          "name": "",
          "type": "uint256"
        }
      ],
      "stateMutability": "view",
      "type": "function"
    },
    {
      "inputs": [],
      "name": "turn",
      "outputs": [
        {
          "internalType": "uint256",
          "name": "",
          "type": "uint256"
        }
      ],
      "stateMutability": "view",
      "type": "function"
    },
    {
      "inputs": [],
      "name": "name",
      "outputs": [
        {
          "internalType": "string",
          "name": "",
          "type": "string"
        }
      ],
      "stateMutability": "pure",
      "type": "function"
    },
    {
      "inputs": [],
      "name": "isActive",
      "outputs": [
        {
          "internalType": "bool",
          "name": "",
          "type": "bool"
        }
      ],
      "stateMutability": "view",
      "type": "function"
    },
    {
      "inputs": [],
      "name": "isOpen",
      "outputs": [
        {
          "internalType": "bool",
          "name": "",
          "type": "bool"
        }
      ],
      "stateMutability": "view",
      "type": "function"
    },
    {
      "inputs": [],
      "name": "hasTimedOut",
      "outputs": [
        {
          "internalType": "bool",
          "name": "",
          "type": "bool"
        }
      ],
      "stateMutability": "view",
      "type": "function"
    },
    {
      "inputs": [
        {
          "internalType": "address",
          "name": "player",
          "type": "address"
        }
      ],
      "name": "registerX",
      "outputs": [],
      "stateMutability": "payable",
      "type": "function"
    },
    {
      "inputs": [
        {
          "internalType": "address",
          "name": "player",
          "type": "address"
        }
      ],
      "name": "registerO",
      "outputs": [],
      "stateMutability": "payable",
      "type": "function"
    },
    {
      "inputs": [
        {
          "internalType": "uint256",
          "name": "_pos",
          "type": "uint256"
        }
      ],
      "name": "move",
      "outputs": [],
      "stateMutability": "nonpayable",
      "type": "function"
    },
    {
      "inputs": [],
      "name": "calculateCasinoFee",
      "outputs": [
        {
          "internalType": "uint256",
          "name": "",
          "type": "uint256"
        }
      ],
      "stateMutability": "view",
      "type": "function"
    },
    {
      "inputs": [],
      "name": "calculateEarnings",
      "outputs": [
        {
          "internalType": "uint256",
          "name": "",
          "type": "uint256"
        }
      ],
      "stateMutability": "view",
      "type": "function"
    },
    {
      "inputs": [],
      "name": "winner",
      "outputs": [
        {
          "internalType": "address",
          "name": "",
          "type": "address"
        }
      ],
      "stateMutability": "view",
      "type": "function"
    },
    {
      "inputs": [],
      "name": "draw",
      "outputs": [
        {
          "internalType": "bool",
          "name": "",
          "type": "bool"
        }
      ],
      "stateMutability": "view",
      "type": "function"
    },
    {
      "inputs": [],
      "name": "claimFees",
      "outputs": [],
      "stateMutability": "nonpayable",
      "type": "function"
    }
  ],
  "bytecode": "0x608060405266038d7ea4c6800060005533600160006101000a81548173ffffffffffffffffffffffffffffffffffffffff021916908373ffffffffffffffffffffffffffffffffffffffff16021790555042600355610e1060045560006009556000600a553480156200007157600080fd5b5060405162002daa38038062002daa833981810160405281019062000097919062000156565b8160088190555080600260006101000a81548173ffffffffffffffffffffffffffffffffffffffff021916908373ffffffffffffffffffffffffffffffffffffffff1602179055507f19ef3a90ba0bbfeb1f5f68452b45c638804b6d9dd44829975c53b83c1ac21ed3600854600354836040516200011893929190620001bf565b60405180910390a1505062000273565b60008151905062000139816200023f565b92915050565b600081519050620001508162000259565b92915050565b6000806040838503121562000170576200016f6200023a565b5b600062000180858286016200013f565b9250506020620001938582860162000128565b9150509250929050565b620001a881620001fc565b82525050565b620001b98162000230565b82525050565b6000606082019050620001d66000830186620001ae565b620001e56020830185620001ae565b620001f460408301846200019d565b949350505050565b6000620002098262000210565b9050919050565b600073ffffffffffffffffffffffffffffffffffffffff82169050919050565b6000819050919050565b600080fd5b6200024a81620001fc565b81146200025657600080fd5b50565b620002648162000230565b81146200027057600080fd5b50565b612b2780620002836000396000f3fe6080604052600436106101665760003560e01c806347535d7b116100d157806387cb15f71161008a578063c6ed20c511610064578063c6ed20c5146104f9578063d294f09314610524578063dfbf53ae1461053b578063e7dafa6e1461056657610166565b806387cb15f71461047a5780638b299903146104a3578063af640d0f146104ce57610166565b806347535d7b146103815780634cdea7d2146103ac57806368aaa92f146103d757806370dea79a146103f3578063769287de1461041e5780637698baec1461043a57610166565b806312fa6feb1161012357806312fa6feb1461026d5780631f2698ab1461029857806322f3e2d4146102c35780632755cd2d146102ee57806328ed6e3f146103195780632de40ce31461035657610166565b80630628884f1461016b57806306fdde03146101965780630803efa1146101c157806309eaf723146101ec5780630eecae211461021757806311610c2514610242575b600080fd5b34801561017757600080fd5b50610180610591565b60405161018d91906120cf565b60405180910390f35b3480156101a257600080fd5b506101ab6105b7565b6040516101b891906120ea565b60405180910390f35b3480156101cd57600080fd5b506101d66105f4565b6040516101e391906122ec565b60405180910390f35b3480156101f857600080fd5b50610201610627565b60405161020e91906122ec565b60405180910390f35b34801561022357600080fd5b5061022c61065a565b60405161023991906120cf565b60405180910390f35b34801561024e57600080fd5b506102576106f0565b60405161026491906122ec565b60405180910390f35b34801561027957600080fd5b506102826106f6565b60405161028f91906122ec565b60405180910390f35b3480156102a457600080fd5b506102ad6106fc565b6040516102ba91906122ec565b60405180910390f35b3480156102cf57600080fd5b506102d8610702565b6040516102e591906120cf565b60405180910390f35b3480156102fa57600080fd5b5061030361070e565b60405161031091906122ec565b60405180910390f35b34801561032557600080fd5b50610340600480360381019061033b9190611dcf565b610714565b60405161034d91906122ec565b60405180910390f35b34801561036257600080fd5b5061036b61072f565b60405161037891906122ec565b60405180910390f35b34801561038d57600080fd5b50610396610735565b6040516103a391906120cf565b60405180910390f35b3480156103b857600080fd5b506103c16107f4565b6040516103ce919061206f565b60405180910390f35b6103f160048036038101906103ec9190611da2565b61081a565b005b3480156103ff57600080fd5b50610408610aea565b60405161041591906122ec565b60405180910390f35b61043860048036038101906104339190611da2565b610af0565b005b34801561044657600080fd5b50610461600480360381019061045c9190611dcf565b610dc0565b604051610471949392919061208a565b60405180910390f35b34801561048657600080fd5b506104a1600480360381019061049c9190611dcf565b610e20565b005b3480156104af57600080fd5b506104b86114c5565b6040516104c591906122ec565b60405180910390f35b3480156104da57600080fd5b506104e36114cb565b6040516104f091906122ec565b60405180910390f35b34801561050557600080fd5b5061050e6114d1565b60405161051b919061206f565b60405180910390f35b34801561053057600080fd5b506105396114f7565b005b34801561054757600080fd5b50610550611646565b60405161055d919061206f565b60405180910390f35b34801561057257600080fd5b5061057b611904565b604051610588919061206f565b60405180910390f35b6000806005541180156105b257506004546005546105af91906124a5565b42115b905090565b60606040518060400160405280600b81526020017f5469632054616320546f65000000000000000000000000000000000000000000815250905090565b6000806002600954610606919061252c565b90506064600382610617919061252c565b61062191906124fb565b91505090565b6000806002600954610639919061252c565b905060006106456105f4565b905080826106539190612586565b9250505090565b60008073ffffffffffffffffffffffffffffffffffffffff1661067b611646565b73ffffffffffffffffffffffffffffffffffffffff1614156106a057600090506106ed565b60005b60098110156106e7576000600d82600981106106c2576106c161270d565b5b015414156106d45760009150506106ed565b80806106df90612635565b9150506106a3565b50600190505b90565b60095481565b60065481565b60055481565b60008060065414905090565b600a5481565b600d816009811061072457600080fd5b016000915090505481565b60035481565b6000806005541480156107ef5750600073ffffffffffffffffffffffffffffffffffffffff16600b60009054906101000a900473ffffffffffffffffffffffffffffffffffffffff1673ffffffffffffffffffffffffffffffffffffffff1614806107ee5750600073ffffffffffffffffffffffffffffffffffffffff16600c60009054906101000a900473ffffffffffffffffffffffffffffffffffffffff1673ffffffffffffffffffffffffffffffffffffffff16145b5b905090565b600b60009054906101000a900473ffffffffffffffffffffffffffffffffffffffff1681565b600073ffffffffffffffffffffffffffffffffffffffff16600b60009054906101000a900473ffffffffffffffffffffffffffffffffffffffff1673ffffffffffffffffffffffffffffffffffffffff16146108ab576040517f08c379a00000000000000000000000000000000000000000000000000000000081526004016108a29061224c565b60405180910390fd5b8073ffffffffffffffffffffffffffffffffffffffff163373ffffffffffffffffffffffffffffffffffffffff16148061093257508073ffffffffffffffffffffffffffffffffffffffff16600260009054906101000a900473ffffffffffffffffffffffffffffffffffffffff1673ffffffffffffffffffffffffffffffffffffffff16145b610971576040517f08c379a00000000000000000000000000000000000000000000000000000000081526004016109689061214c565b60405180910390fd5b8073ffffffffffffffffffffffffffffffffffffffff16600c60009054906101000a900473ffffffffffffffffffffffffffffffffffffffff1673ffffffffffffffffffffffffffffffffffffffff161415610a02576040517f08c379a00000000000000000000000000000000000000000000000000000000081526004016109f9906122ac565b60405180910390fd5b60005434118015610a1557506009543410155b610a54576040517f08c379a0000000000000000000000000000000000000000000000000000000008152600401610a4b9061210c565b60405180910390fd5b6000600954118015610a67575060095434115b15610a935760095434610a7a9190612586565b600a6000828254610a8b91906124a5565b925050819055505b60006009541415610aa657346009819055505b80600b60006101000a81548173ffffffffffffffffffffffffffffffffffffffff021916908373ffffffffffffffffffffffffffffffffffffffff16021790555050565b60045481565b600073ffffffffffffffffffffffffffffffffffffffff16600c60009054906101000a900473ffffffffffffffffffffffffffffffffffffffff1673ffffffffffffffffffffffffffffffffffffffff1614610b81576040517f08c379a0000000000000000000000000000000000000000000000000000000008152600401610b78906121ec565b60405180910390fd5b8073ffffffffffffffffffffffffffffffffffffffff163373ffffffffffffffffffffffffffffffffffffffff161480610c0857508073ffffffffffffffffffffffffffffffffffffffff16600260009054906101000a900473ffffffffffffffffffffffffffffffffffffffff1673ffffffffffffffffffffffffffffffffffffffff16145b610c47576040517f08c379a0000000000000000000000000000000000000000000000000000000008152600401610c3e9061214c565b60405180910390fd5b8073ffffffffffffffffffffffffffffffffffffffff16600b60009054906101000a900473ffffffffffffffffffffffffffffffffffffffff1673ffffffffffffffffffffffffffffffffffffffff161415610cd8576040517f08c379a0000000000000000000000000000000000000000000000000000000008152600401610ccf9061228c565b60405180910390fd5b60005434118015610ceb57506009543410155b610d2a576040517f08c379a0000000000000000000000000000000000000000000000000000000008152600401610d219061210c565b60405180910390fd5b6000600954118015610d3d575060095434115b15610d695760095434610d509190612586565b600a6000828254610d6191906124a5565b925050819055505b60006009541415610d7c57346009819055505b80600c60006101000a81548173ffffffffffffffffffffffffffffffffffffffff021916908373ffffffffffffffffffffffffffffffffffffffff16021790555050565b60078181548110610dd057600080fd5b90600052602060002090600402016000915090508060000160009054906101000a900473ffffffffffffffffffffffffffffffffffffffff16908060010154908060020154908060030154905084565b600b60009054906101000a900473ffffffffffffffffffffffffffffffffffffffff1673ffffffffffffffffffffffffffffffffffffffff163373ffffffffffffffffffffffffffffffffffffffff161480610ec95750600c60009054906101000a900473ffffffffffffffffffffffffffffffffffffffff1673ffffffffffffffffffffffffffffffffffffffff163373ffffffffffffffffffffffffffffffffffffffff16145b610f08576040517f08c379a0000000000000000000000000000000000000000000000000000000008152600401610eff906122cc565b60405180910390fd5b610f10610591565b15610f50576040517f08c379a0000000000000000000000000000000000000000000000000000000008152600401610f479061226c565b60405180910390fd5b610f5861065a565b15610f98576040517f08c379a0000000000000000000000000000000000000000000000000000000008152600401610f8f9061212c565b60405180910390fd5b600073ffffffffffffffffffffffffffffffffffffffff16610fb8611646565b73ffffffffffffffffffffffffffffffffffffffff161461100e576040517f08c379a00000000000000000000000000000000000000000000000000000000081526004016110059061218c565b60405180910390fd5b6000600260165461101f919061267e565b14156110ba57600b60009054906101000a900473ffffffffffffffffffffffffffffffffffffffff1673ffffffffffffffffffffffffffffffffffffffff163373ffffffffffffffffffffffffffffffffffffffff16146110b5576040517f08c379a00000000000000000000000000000000000000000000000000000000081526004016110ac906121ac565b60405180910390fd5b61114b565b600c60009054906101000a900473ffffffffffffffffffffffffffffffffffffffff1673ffffffffffffffffffffffffffffffffffffffff163373ffffffffffffffffffffffffffffffffffffffff161461114a576040517f08c379a0000000000000000000000000000000000000000000000000000000008152600401611141906121cc565b60405180910390fd5b5b6111548161192a565b611193576040517f08c379a000000000000000000000000000000000000000000000000000000000815260040161118a9061216c565b60405180910390fd5b61119d813361194b565b7f09f853bad0e9fd288767f94d5352103a9754dea6473752ae14f47506eb2b6f466008543360165484426040516111d8959493929190612383565b60405180910390a1600760405180608001604052803373ffffffffffffffffffffffffffffffffffffffff168152602001428152602001601654815260200183815250908060018154018082558091505060019003906000526020600020906004020160009091909190915060008201518160000160006101000a81548173ffffffffffffffffffffffffffffffffffffffff021916908373ffffffffffffffffffffffffffffffffffffffff1602179055506020820151816001015560408201518160020155606082015181600301555050600060165414156112f957426005819055507f8c3d3281fd6f616518175932f5201290f693ec5536ccbb2e06c965d4a6a1aeba600854426040516112f09291906123d6565b60405180910390a15b60016016600082825461130c91906124a5565b92505081905550600061131d611646565b905061132761065a565b15611379577f79c638881fbfa6a03de3e6af82cf35831eec3d7db9c452bd99e844ae639aa67b60085442601654604051611363939291906123ff565b60405180910390a1611374816119e1565b6114c1565b600b60009054906101000a900473ffffffffffffffffffffffffffffffffffffffff1673ffffffffffffffffffffffffffffffffffffffff168173ffffffffffffffffffffffffffffffffffffffff16141561141e577f0dc021c80b0c4225e226e926064e6854dbc09db3f2098d4cce23f6a50f43ebf26008548242601654604051611408949392919061233e565b60405180910390a1611419816119e1565b6114c0565b600c60009054906101000a900473ffffffffffffffffffffffffffffffffffffffff1673ffffffffffffffffffffffffffffffffffffffff168173ffffffffffffffffffffffffffffffffffffffff1614156114bf577f63a605b6afe342bf5af086afb7fe37337c94c912b8bcb89eaabdfe300fafd47560085482426016546040516114ad949392919061233e565b60405180910390a16114be816119e1565b5b5b5b5050565b60165481565b60085481565b600260009054906101000a900473ffffffffffffffffffffffffffffffffffffffff1681565b600160009054906101000a900473ffffffffffffffffffffffffffffffffffffffff1673ffffffffffffffffffffffffffffffffffffffff163373ffffffffffffffffffffffffffffffffffffffff1614611587576040517f08c379a000000000000000000000000000000000000000000000000000000000815260040161157e9061222c565b60405180910390fd5b6000600654118061159c575061159b610591565b5b6115db576040517f08c379a00000000000000000000000000000000000000000000000000000000081526004016115d29061220c565b60405180910390fd5b600160009054906101000a900473ffffffffffffffffffffffffffffffffffffffff1673ffffffffffffffffffffffffffffffffffffffff166108fc479081150290604051600060405180830381858888f19350505050158015611643573d6000803e3d6000fd5b50565b600080600090506000600190505b600281116118fa5760005b600381101561173f576001925060005b60038110156116c75782600d82600385611689919061252c565b61169391906124a5565b600981106116a4576116a361270d565b5b0154146116b457600093506116c7565b80806116bf90612635565b91505061166f565b50821561172c57600182146116fe57600c60009054906101000a900473ffffffffffffffffffffffffffffffffffffffff16611722565b600b60009054906101000a900473ffffffffffffffffffffffffffffffffffffffff165b9350505050611901565b808061173790612635565b91505061165f565b5060005b6003811015611823576001925060005b60038110156117ab5782600d8360038461176d919061252c565b61177791906124a5565b600981106117885761178761270d565b5b01541461179857600093506117ab565b80806117a390612635565b915050611753565b50821561181057600182146117e257600c60009054906101000a900473ffffffffffffffffffffffffffffffffffffffff16611806565b600b60009054906101000a900473ffffffffffffffffffffffffffffffffffffffff165b9350505050611901565b808061181b90612635565b915050611743565b506001915060005b60038110156118835781600d82600384611845919061252c565b61184f91906124a5565b600981106118605761185f61270d565b5b0154146118705760009250611883565b808061187b90612635565b91505061182b565b5081156118e757600181146118ba57600c60009054906101000a900473ffffffffffffffffffffffffffffffffffffffff166118de565b600b60009054906101000a900473ffffffffffffffffffffffffffffffffffffffff165b92505050611901565b80806118f290612635565b915050611654565b5060009150505b90565b600c60009054906101000a900473ffffffffffffffffffffffffffffffffffffffff1681565b600080600d83600981106119415761194061270d565b5b0154149050919050565b600b60009054906101000a900473ffffffffffffffffffffffffffffffffffffffff1673ffffffffffffffffffffffffffffffffffffffff168173ffffffffffffffffffffffffffffffffffffffff1614156119c1576001600d83600981106119b7576119b661270d565b5b01819055506119dd565b6002600d83600981106119d7576119d661270d565b5b01819055505b5050565b426006819055507f8cbe327372308d79e2d124476bc6d364529ae64f8d2bdf53da7a6f8c345f365f6008544260165447611a19610627565b604051611a2a959493929190612436565b60405180910390a1600073ffffffffffffffffffffffffffffffffffffffff168173ffffffffffffffffffffffffffffffffffffffff161415611c155760006002611a73610627565b611a7d91906124fb565b9050600b60009054906101000a900473ffffffffffffffffffffffffffffffffffffffff1673ffffffffffffffffffffffffffffffffffffffff166108fc829081150290604051600060405180830381858888f19350505050158015611ae7573d6000803e3d6000fd5b507f2e90d1cd7a5e9a5b99747c36130d866c8687bff313d44cdd245df73bcda43621600854600b60009054906101000a900473ffffffffffffffffffffffffffffffffffffffff1683604051611b3f93929190612307565b60405180910390a1600c60009054906101000a900473ffffffffffffffffffffffffffffffffffffffff1673ffffffffffffffffffffffffffffffffffffffff166108fc829081150290604051600060405180830381858888f19350505050158015611baf573d6000803e3d6000fd5b507f2e90d1cd7a5e9a5b99747c36130d866c8687bff313d44cdd245df73bcda43621600854600c60009054906101000a900473ffffffffffffffffffffffffffffffffffffffff1683604051611c0793929190612307565b60405180910390a150611ca7565b6000611c1f610627565b90508173ffffffffffffffffffffffffffffffffffffffff166108fc829081150290604051600060405180830381858888f19350505050158015611c67573d6000803e3d6000fd5b507f2e90d1cd7a5e9a5b99747c36130d866c8687bff313d44cdd245df73bcda436216008548383604051611c9d93929190612307565b60405180910390a1505b6000479050600160009054906101000a900473ffffffffffffffffffffffffffffffffffffffff1673ffffffffffffffffffffffffffffffffffffffff166108fc829081150290604051600060405180830381858888f19350505050158015611d14573d6000803e3d6000fd5b507f2e90d1cd7a5e9a5b99747c36130d866c8687bff313d44cdd245df73bcda43621600854600160009054906101000a900473ffffffffffffffffffffffffffffffffffffffff1683604051611d6c93929190612307565b60405180910390a15050565b600081359050611d8781612ac3565b92915050565b600081359050611d9c81612ada565b92915050565b600060208284031215611db857611db761273c565b5b6000611dc684828501611d78565b91505092915050565b600060208284031215611de557611de461273c565b5b6000611df384828501611d8d565b91505092915050565b611e05816125ba565b82525050565b611e14816125cc565b82525050565b6000611e2582612489565b611e2f8185612494565b9350611e3f818560208601612602565b611e4881612741565b840191505092915050565b6000611e60602083612494565b9150611e6b82612752565b602082019050919050565b6000611e83602a83612494565b9150611e8e8261277b565b604082019050919050565b6000611ea6603583612494565b9150611eb1826127ca565b604082019050919050565b6000611ec9602083612494565b9150611ed482612819565b602082019050919050565b6000611eec602c83612494565b9150611ef782612842565b604082019050919050565b6000611f0f601483612494565b9150611f1a82612891565b602082019050919050565b6000611f32601483612494565b9150611f3d826128ba565b602082019050919050565b6000611f55601e83612494565b9150611f60826128e3565b602082019050919050565b6000611f78601c83612494565b9150611f838261290c565b602082019050919050565b6000611f9b601a83612494565b9150611fa682612935565b602082019050919050565b6000611fbe601e83612494565b9150611fc98261295e565b602082019050919050565b6000611fe1602d83612494565b9150611fec82612987565b604082019050919050565b6000612004602783612494565b915061200f826129d6565b604082019050919050565b6000612027602783612494565b915061203282612a25565b604082019050919050565b600061204a602583612494565b915061205582612a74565b604082019050919050565b612069816125f8565b82525050565b60006020820190506120846000830184611dfc565b92915050565b600060808201905061209f6000830187611dfc565b6120ac6020830186612060565b6120b96040830185612060565b6120c66060830184612060565b95945050505050565b60006020820190506120e46000830184611e0b565b92915050565b600060208201905081810360008301526121048184611e1a565b905092915050565b6000602082019050818103600083015261212581611e53565b9050919050565b6000602082019050818103600083015261214581611e76565b9050919050565b6000602082019050818103600083015261216581611e99565b9050919050565b6000602082019050818103600083015261218581611ebc565b9050919050565b600060208201905081810360008301526121a581611edf565b9050919050565b600060208201905081810360008301526121c581611f02565b9050919050565b600060208201905081810360008301526121e581611f25565b9050919050565b6000602082019050818103600083015261220581611f48565b9050919050565b6000602082019050818103600083015261222581611f6b565b9050919050565b6000602082019050818103600083015261224581611f8e565b9050919050565b6000602082019050818103600083015261226581611fb1565b9050919050565b6000602082019050818103600083015261228581611fd4565b9050919050565b600060208201905081810360008301526122a581611ff7565b9050919050565b600060208201905081810360008301526122c58161201a565b9050919050565b600060208201905081810360008301526122e58161203d565b9050919050565b60006020820190506123016000830184612060565b92915050565b600060608201905061231c6000830186612060565b6123296020830185611dfc565b6123366040830184612060565b949350505050565b60006080820190506123536000830187612060565b6123606020830186611dfc565b61236d6040830185612060565b61237a6060830184612060565b95945050505050565b600060a0820190506123986000830188612060565b6123a56020830187611dfc565b6123b26040830186612060565b6123bf6060830185612060565b6123cc6080830184612060565b9695505050505050565b60006040820190506123eb6000830185612060565b6123f86020830184612060565b9392505050565b60006060820190506124146000830186612060565b6124216020830185612060565b61242e6040830184612060565b949350505050565b600060a08201905061244b6000830188612060565b6124586020830187612060565b6124656040830186612060565b6124726060830185612060565b61247f6080830184612060565b9695505050505050565b600081519050919050565b600082825260208201905092915050565b60006124b0826125f8565b91506124bb836125f8565b9250827fffffffffffffffffffffffffffffffffffffffffffffffffffffffffffffffff038211156124f0576124ef6126af565b5b828201905092915050565b6000612506826125f8565b9150612511836125f8565b925082612521576125206126de565b5b828204905092915050565b6000612537826125f8565b9150612542836125f8565b9250817fffffffffffffffffffffffffffffffffffffffffffffffffffffffffffffffff048311821515161561257b5761257a6126af565b5b828202905092915050565b6000612591826125f8565b915061259c836125f8565b9250828210156125af576125ae6126af565b5b828203905092915050565b60006125c5826125d8565b9050919050565b60008115159050919050565b600073ffffffffffffffffffffffffffffffffffffffff82169050919050565b6000819050919050565b60005b83811015612620578082015181840152602081019050612605565b8381111561262f576000848401525b50505050565b6000612640826125f8565b91507fffffffffffffffffffffffffffffffffffffffffffffffffffffffffffffffff821415612673576126726126af565b5b600182019050919050565b6000612689826125f8565b9150612694836125f8565b9250826126a4576126a36126de565b5b828206905092915050565b7f4e487b7100000000000000000000000000000000000000000000000000000000600052601160045260246000fd5b7f4e487b7100000000000000000000000000000000000000000000000000000000600052601260045260246000fd5b7f4e487b7100000000000000000000000000000000000000000000000000000000600052603260045260246000fd5b600080fd5b6000601f19601f8301169050919050565b7f412062657420697320726571756972656420746f207061727469636970617465600082015250565b7f546869732067616d652068617320616c726561647920656e646564202872656160008201527f736f6e3a20647261772900000000000000000000000000000000000000000000602082015250565b7f4f6e6c79207468652073656e646572206f72207468652072656769737472617460008201527f6f722063616e2073656c65637420706c61796572730000000000000000000000602082015250565b7f5468617420706f736974696f6e20697320616c726561647920706c6179656421600082015250565b7f546869732067616d652068617320616c726561647920656e646564202872656160008201527f736f6e3a2077696e6e6572290000000000000000000000000000000000000000602082015250565b7f49747320706c6179657220582773207475726e21000000000000000000000000600082015250565b7f49747320706c61796572204f2773207475726e21000000000000000000000000600082015250565b7f506c61796572204f20697320616c726561647920726567697374657265640000600082015250565b7f546869732067616d6520686173206e6f7420656e646564207965742100000000600082015250565b7f4f6e6c7920616c6c6f77656420666f7220746865206f6e776572000000000000600082015250565b7f506c61796572205820697320616c726561647920726567697374657265640000600082015250565b7f546869732067616d652068617320616c726561647920656e646564202872656160008201527f736f6e3a2074696d656f75742900000000000000000000000000000000000000602082015250565b7f506c61796572204f2063616e6e6f74206265207468652073616d65206173207060008201527f6c61796572205800000000000000000000000000000000000000000000000000602082015250565b7f506c6179657220582063616e6e6f74206265207468652073616d65206173207060008201527f6c61796572204f00000000000000000000000000000000000000000000000000602082015250565b7f4f6e6c7920616c6c6f77656420666f7220706c6179657273206f66207468697360008201527f2067616d65000000000000000000000000000000000000000000000000000000602082015250565b612acc816125ba565b8114612ad757600080fd5b50565b612ae3816125f8565b8114612aee57600080fd5b5056fea2646970667358221220f239cd9159fb83f012e491ae176fa0ce5efeced950c50e304fcb61c017d48dd464736f6c63430008060033",
  "immutableReferences": {},
  "source": "// SPDX-License-Identifier: MIT\npragma solidity ^0.8.0;\n\nimport './Game.sol';\n\ncontract TicTacToe is Game {\n\n  event Registered(uint _id, uint _when, address _who);\n  event PlayerXJoined(uint _id, address _who, uint _when);\n  event PlayerOJoined(uint _id, address _who, uint _when);\n  event FirstMove(uint _id, uint _when);\n  event Move(uint _id, address _who, uint _turn, uint _pos, uint _when);\n  event End(uint _id, uint _when, uint _turn, uint _balance, uint _pot);\n  event Draw(uint _id, uint _when, uint _turn);\n  event XWin(uint _id, address _who, uint _when, uint _turn);\n  event OWin(uint _id, address _who, uint _when, uint _turn);\n  event Transfer(uint _id, address _who, uint _value);\n\n  struct Movement {\n    address who;\n    uint when;\n    uint turn;\n    uint pos;\n  }\n\n  uint minBet = 0.001 ether;\n  address _owner = msg.sender; // casino that owns the game\n  address public registrator; // player that registered the game in the first place\n\n  // timestamps\n  uint public registered = block.timestamp;\n  uint public timeout = 1 hours;\n  uint public started;\n  uint public ended;\n\n  // record movements\n  Movement[] public moves;\n\n  uint public id;\n  uint public bet = 0;\n  uint public tip = 0;\n\n  address public playerX;\n  address public playerO;\n\n  uint[9] public board;\n  uint public turn;\n\n  modifier onlyPlayers() {\n    require(msg.sender == playerX || msg.sender == playerO, \"Only allowed for players of this game\");\n    _;\n  }\n\n  modifier onlyOwner() {\n    require(msg.sender == _owner, \"Only allowed for the onwer\");\n    _;\n  }\n\n  modifier activeGame() {\n    require(!hasTimedOut(), \"This game has already ended (reason: timeout)\");\n    require(!draw(), \"This game has already ended (reason: draw)\");\n    require(winner() == address(0), \"This game has already ended (reason: winner)\");\n    _;\n  }\n\n  modifier onlyClosedGame() {\n    require(ended > 0 || hasTimedOut(), \"This game has not ended yet!\");\n    _;\n  }\n\n  constructor(uint _id, address _registrator) {\n    id = _id;\n    registrator = _registrator;\n    emit Registered(id, registered, _registrator);\n  }\n\n  function name() override external pure returns (string memory) {\n    return \"Tic Tac Toe\";\n  }\n\n  function isActive() override external view returns (bool) {\n    return ended == 0;\n  }\n\n  function isOpen() override external view returns (bool) {\n    return started == 0 && (playerX == address(0) || playerO == address(0));\n  }\n\n  function hasTimedOut() public view returns (bool) {\n    return started > 0 && block.timestamp > started + timeout;\n  }\n\n  function registerX(address player) external payable {\n    require(playerX == address(0), \"Player X is already registered\");\n    require(msg.sender == player || registrator == player, \"Only the sender or the registrator can select players\");\n    require(playerO != player, \"Player X cannot be the same as player O\");\n    require(msg.value > minBet && msg.value >= bet, \"A bet is required to participate\");\n    if (bet > 0 && msg.value > bet) {\n      // thanks for the tip to the casino\n      tip += msg.value - bet;\n    }\n    if (bet == 0) {\n      bet = msg.value;\n    }\n    playerX = player;\n  }\n\n  function registerO(address player) external payable {\n    require(playerO == address(0), \"Player O is already registered\");\n    require(msg.sender == player || registrator == player, \"Only the sender or the registrator can select players\");\n    require(playerX != player, \"Player O cannot be the same as player X\");\n    require(msg.value > minBet && msg.value >= bet, \"A bet is required to participate\");\n    if (bet > 0 && msg.value > bet) {\n      // thanks for the tip to the casino\n      tip += msg.value - bet;\n    }\n    if (bet == 0) {\n      bet = msg.value;\n    }\n    playerO = player;\n  }\n\n  function isEmpty(uint _pos) internal view returns (bool) {\n    return board[_pos] == 0;\n  }\n\n  function mark(uint _pos, address _who) private {\n    if (_who == playerX) {\n      board[_pos] = 1;\n    } else {\n      board[_pos] = 2;\n    }\n  }\n\n  function closeGame(address _winner) internal {\n    ended = block.timestamp;\n    emit End(id, block.timestamp, turn, address(this).balance, calculateEarnings());\n\n    if (_winner == address(0)) {\n      // Draw - split in half (minus fee)\n      uint halfEarnings = calculateEarnings()/2;\n      payable(playerX).transfer(halfEarnings);\n      emit Transfer(id, playerX, halfEarnings);\n      payable(playerO).transfer(halfEarnings);\n      emit Transfer(id, playerO, halfEarnings);\n    } else {\n      uint earnings = calculateEarnings();\n      payable(_winner).transfer(earnings);\n      emit Transfer(id, _winner, earnings);\n    }\n    uint casinoFees = address(this).balance;\n    payable(_owner).transfer(casinoFees);\n    emit Transfer(id, _owner, casinoFees);\n  }\n\n  function move(uint _pos) external onlyPlayers activeGame {\n    // check if we are in the correct turn\n    if (turn % 2 == 0) {\n      require(msg.sender == playerX, \"Its player X's turn!\");\n    } else {\n      require(msg.sender == playerO, \"Its player O's turn!\");\n    }\n\n    // check that the position is clear\n    require(isEmpty(_pos), \"That position is already played!\");\n\n    // mark the position\n    mark(_pos, msg.sender);\n\n    // register the movement\n    emit Move(id, msg.sender, turn, _pos, block.timestamp);\n    moves.push(Movement(msg.sender, block.timestamp, turn, _pos));\n\n    // register the first movement\n    if (turn == 0) {\n      started = block.timestamp;\n      emit FirstMove(id, block.timestamp);\n    }\n\n    // advance turn\n    turn += 1;\n\n    // check if the game has ended\n    address _winner = winner();\n    \n    if (draw()) {\n      emit Draw(id, block.timestamp, turn);\n      closeGame(_winner);\n    }\n    else if (_winner == playerX) {\n      emit XWin(id, _winner, block.timestamp, turn);\n      closeGame(_winner);\n    }\n    else if (_winner == playerO) {\n      emit OWin(id, _winner, block.timestamp, turn);\n      closeGame(_winner);\n    }\n  }\n\n  function calculateCasinoFee() public view returns (uint) {\n    uint pot = bet * 2;\n    return pot * 3/100;\n  }\n\n  function calculateEarnings() public view returns (uint) {\n    uint pot = bet * 2;\n    uint fee = calculateCasinoFee();\n    return pot - fee;\n  }\n\n  function winner() public view returns (address) {\n    bool win = false;\n    for (uint p = 1; p <= 2; p++) {\n      // check rows\n      for (uint i = 0; i < 3; i++) {\n        win = true;\n        for (uint j = 0; j < 3; j++) {\n          if (board[i * 3 + j] != p) {\n            win = false;\n            break;\n          }\n        }\n        if (win) {\n          return p == 1? playerX : playerO;\n        }\n      }\n      // check columns\n      for (uint i = 0; i < 3; i++) {\n        win = true;\n        for (uint j = 0; j < 3; j++) {\n          if (board[j * 3 + i] != p) {\n            win = false;\n            break;\n          }\n        }\n        if (win) {\n          return p == 1? playerX : playerO;\n        }\n      }\n      // check diagonals\n      win = true;\n      for (uint i = 0; i < 3; i++) {\n        if (board[i * 3 + i] != p) {\n          win = false;\n          break;\n        }\n      }\n      if (win) {\n        return p == 1? playerX : playerO;\n      }\n    }\n    return address(0);\n  }\n\n  function draw() public view returns (bool) {\n    if (winner() == address(0)) {\n      return false;\n    }\n    for (uint i = 0; i < 9; i++) {\n      if (board[i] == 0) {\n        return false;\n      }\n    }\n    return true;\n  }\n\n  function claimFees() external onlyOwner onlyClosedGame {\n    // TODO: make it fair - only claim cash that went unclaimed ... TODO: add a threshold? force claim by owner after a timeout?\n    // What happens if it times out???\n    // The winner should be whoever moved last? or draw?\n    // Probably this will be the caller anyway, audited by the casino\n    payable(_owner).transfer(address(this).balance);\n  }\n}\n",
  "sourcePath": "C:\\Users\\Josi\\Dev\\final-project\\contracts\\TicTacToe.sol",
  "compiler": {
    "name": "solc",
    "version": "0.8.6+commit.11564f7e.Emscripten.clang"
  },
  "schemaVersion": "3.4.3",
  "updatedAt": "2021-11-26T16:38:29.870Z",
  "devdoc": {
    "kind": "dev",
    "methods": {},
    "version": 1
  },
  "userdoc": {
    "kind": "user",
    "methods": {},
    "version": 1
  }
}