{
  "contractName": "TicTacToe",
  "abi": [
    {
      "inputs": [
        {
          "internalType": "address",
          "name": "_registrator",
          "type": "address"
        },
        {
          "internalType": "bool",
          "name": "_isX",
          "type": "bool"
        }
      ],
      "stateMutability": "nonpayable",
      "type": "constructor"
    },
    {
      "anonymous": false,
      "inputs": [
        {
          "indexed": false,
          "internalType": "uint256",
          "name": "_when",
          "type": "uint256"
        },
        {
          "indexed": false,
          "internalType": "uint256",
          "name": "_turn",
          "type": "uint256"
        }
      ],
      "name": "Draw",
      "type": "event"
    },
    {
      "anonymous": false,
      "inputs": [
        {
          "indexed": false,
          "internalType": "uint256",
          "name": "_when",
          "type": "uint256"
        },
        {
          "indexed": false,
          "internalType": "uint256",
          "name": "_turn",
          "type": "uint256"
        }
      ],
      "name": "End",
      "type": "event"
    },
    {
      "anonymous": false,
      "inputs": [
        {
          "indexed": false,
          "internalType": "uint256",
          "name": "_when",
          "type": "uint256"
        }
      ],
      "name": "FirstMove",
      "type": "event"
    },
    {
      "anonymous": false,
      "inputs": [
        {
          "indexed": false,
          "internalType": "address",
          "name": "_who",
          "type": "address"
        },
        {
          "indexed": false,
          "internalType": "uint256",
          "name": "_turn",
          "type": "uint256"
        },
        {
          "indexed": false,
          "internalType": "uint256",
          "name": "_pos",
          "type": "uint256"
        },
        {
          "indexed": false,
          "internalType": "uint256",
          "name": "_when",
          "type": "uint256"
        }
      ],
      "name": "Move",
      "type": "event"
    },
    {
      "anonymous": false,
      "inputs": [
        {
          "indexed": false,
          "internalType": "uint256",
          "name": "_when",
          "type": "uint256"
        },
        {
          "indexed": false,
          "internalType": "uint256",
          "name": "_turn",
          "type": "uint256"
        }
      ],
      "name": "OWin",
      "type": "event"
    },
    {
      "anonymous": false,
      "inputs": [
        {
          "indexed": false,
          "internalType": "address",
          "name": "_who",
          "type": "address"
        },
        {
          "indexed": false,
          "internalType": "uint256",
          "name": "_when",
          "type": "uint256"
        }
      ],
      "name": "PlayerOJoined",
      "type": "event"
    },
    {
      "anonymous": false,
      "inputs": [
        {
          "indexed": false,
          "internalType": "address",
          "name": "_who",
          "type": "address"
        },
        {
          "indexed": false,
          "internalType": "uint256",
          "name": "_when",
          "type": "uint256"
        }
      ],
      "name": "PlayerXJoined",
      "type": "event"
    },
    {
      "anonymous": false,
      "inputs": [
        {
          "indexed": false,
          "internalType": "uint256",
          "name": "_when",
          "type": "uint256"
        },
        {
          "indexed": false,
          "internalType": "address",
          "name": "_who",
          "type": "address"
        },
        {
          "indexed": false,
          "internalType": "bool",
          "name": "_isX",
          "type": "bool"
        }
      ],
      "name": "Registered",
      "type": "event"
    },
    {
      "anonymous": false,
      "inputs": [
        {
          "indexed": false,
          "internalType": "uint256",
          "name": "_when",
          "type": "uint256"
        },
        {
          "indexed": false,
          "internalType": "uint256",
          "name": "_turn",
          "type": "uint256"
        }
      ],
      "name": "XWin",
      "type": "event"
    },
    {
      "inputs": [
        {
          "internalType": "uint256",
          "name": "",
          "type": "uint256"
        }
      ],
      "name": "board",
      "outputs": [
        {
          "internalType": "uint256",
          "name": "",
          "type": "uint256"
        }
      ],
      "stateMutability": "view",
      "type": "function"
    },
    {
      "inputs": [],
      "name": "ended",
      "outputs": [
        {
          "internalType": "uint256",
          "name": "",
          "type": "uint256"
        }
      ],
      "stateMutability": "view",
      "type": "function"
    },
    {
      "inputs": [
        {
          "internalType": "uint256",
          "name": "",
          "type": "uint256"
        }
      ],
      "name": "moves",
      "outputs": [
        {
          "internalType": "address",
          "name": "who",
          "type": "address"
        },
        {
          "internalType": "uint256",
          "name": "when",
          "type": "uint256"
        },
        {
          "internalType": "uint256",
          "name": "turn",
          "type": "uint256"
        },
        {
          "internalType": "uint256",
          "name": "pos",
          "type": "uint256"
        }
      ],
      "stateMutability": "view",
      "type": "function"
    },
    {
      "inputs": [],
      "name": "playerO",
      "outputs": [
        {
          "internalType": "address",
          "name": "",
          "type": "address"
        }
      ],
      "stateMutability": "view",
      "type": "function"
    },
    {
      "inputs": [],
      "name": "playerX",
      "outputs": [
        {
          "internalType": "address",
          "name": "",
          "type": "address"
        }
      ],
      "stateMutability": "view",
      "type": "function"
    },
    {
      "inputs": [],
      "name": "registered",
      "outputs": [
        {
          "internalType": "uint256",
          "name": "",
          "type": "uint256"
        }
      ],
      "stateMutability": "view",
      "type": "function"
    },
    {
      "inputs": [],
      "name": "registrator",
      "outputs": [
        {
          "internalType": "address",
          "name": "",
          "type": "address"
        }
      ],
      "stateMutability": "view",
      "type": "function"
    },
    {
      "inputs": [],
      "name": "registratorIsX",
      "outputs": [
        {
          "internalType": "bool",
          "name": "",
          "type": "bool"
        }
      ],
      "stateMutability": "view",
      "type": "function"
    },
    {
      "inputs": [],
      "name": "started",
      "outputs": [
        {
          "internalType": "uint256",
          "name": "",
          "type": "uint256"
        }
      ],
      "stateMutability": "view",
      "type": "function"
    },
    {
      "inputs": [],
      "name": "timeout",
      "outputs": [
        {
          "internalType": "uint256",
          "name": "",
          "type": "uint256"
        }
      ],
      "stateMutability": "view",
      "type": "function"
    },
    {
      "inputs": [],
      "name": "turn",
      "outputs": [
        {
          "internalType": "uint256",
          "name": "",
          "type": "uint256"
        }
      ],
      "stateMutability": "view",
      "type": "function"
    },
    {
      "inputs": [],
      "name": "name",
      "outputs": [
        {
          "internalType": "string",
          "name": "",
          "type": "string"
        }
      ],
      "stateMutability": "pure",
      "type": "function"
    },
    {
      "inputs": [],
      "name": "isActive",
      "outputs": [
        {
          "internalType": "bool",
          "name": "",
          "type": "bool"
        }
      ],
      "stateMutability": "view",
      "type": "function"
    },
    {
      "inputs": [],
      "name": "isOpen",
      "outputs": [
        {
          "internalType": "bool",
          "name": "",
          "type": "bool"
        }
      ],
      "stateMutability": "view",
      "type": "function"
    },
    {
      "inputs": [],
      "name": "hasTimedOut",
      "outputs": [
        {
          "internalType": "bool",
          "name": "",
          "type": "bool"
        }
      ],
      "stateMutability": "view",
      "type": "function"
    },
    {
      "inputs": [],
      "name": "registerX",
      "outputs": [],
      "stateMutability": "payable",
      "type": "function"
    },
    {
      "inputs": [],
      "name": "registerO",
      "outputs": [],
      "stateMutability": "payable",
      "type": "function"
    },
    {
      "inputs": [
        {
          "internalType": "uint256",
          "name": "_pos",
          "type": "uint256"
        }
      ],
      "name": "move",
      "outputs": [],
      "stateMutability": "nonpayable",
      "type": "function"
    },
    {
      "inputs": [],
      "name": "calculateCasinoFee",
      "outputs": [
        {
          "internalType": "uint256",
          "name": "",
          "type": "uint256"
        }
      ],
      "stateMutability": "view",
      "type": "function"
    },
    {
      "inputs": [],
      "name": "calculateEarnings",
      "outputs": [
        {
          "internalType": "uint256",
          "name": "",
          "type": "uint256"
        }
      ],
      "stateMutability": "view",
      "type": "function"
    },
    {
      "inputs": [],
      "name": "winner",
      "outputs": [
        {
          "internalType": "address",
          "name": "",
          "type": "address"
        }
      ],
      "stateMutability": "view",
      "type": "function"
    },
    {
      "inputs": [],
      "name": "draw",
      "outputs": [
        {
          "internalType": "bool",
          "name": "",
          "type": "bool"
        }
      ],
      "stateMutability": "view",
      "type": "function"
    },
    {
      "inputs": [],
      "name": "claimFees",
      "outputs": [],
      "stateMutability": "nonpayable",
      "type": "function"
    }
  ],
  "bytecode": "0x608060405266038d7ea4c6800060005533600160006101000a81548173ffffffffffffffffffffffffffffffffffffffff021916908373ffffffffffffffffffffffffffffffffffffffff16021790555042600355610e10600455600060085560006009553480156200007157600080fd5b50604051620027dc380380620027dc833981810160405281019062000097919062000167565b81600260006101000a81548173ffffffffffffffffffffffffffffffffffffffff021916908373ffffffffffffffffffffffffffffffffffffffff16021790555080600260146101000a81548160ff0219169083151502179055507fefd8ca1e3bbf9c0d2cbbc0be0fd662e1b3247f43666287a51224254c67ef10cb60035483836040516200012993929190620001e1565b60405180910390a15050620002a1565b6000815190506200014a816200026d565b92915050565b600081519050620001618162000287565b92915050565b6000806040838503121562000181576200018062000268565b5b6000620001918582860162000139565b9250506020620001a48582860162000150565b9150509250929050565b620001b9816200021e565b82525050565b620001ca8162000232565b82525050565b620001db816200025e565b82525050565b6000606082019050620001f86000830186620001d0565b620002076020830185620001ae565b620002166040830184620001bf565b949350505050565b60006200022b826200023e565b9050919050565b60008115159050919050565b600073ffffffffffffffffffffffffffffffffffffffff82169050919050565b6000819050919050565b600080fd5b62000278816200021e565b81146200028457600080fd5b50565b620002928162000232565b81146200029e57600080fd5b50565b61252b80620002b16000396000f3fe6080604052600436106101405760003560e01c806347535d7b116100b6578063c6ed20c51161006f578063c6ed20c514610445578063d294f09314610470578063dfbf53ae14610487578063e56bafc2146104b2578063e7dafa6e146104bc578063fe32ac52146104e757610140565b806347535d7b146103305780634cdea7d21461035b57806370dea79a146103865780637698baec146103b157806387cb15f7146103f15780638b2999031461041a57610140565b8063107a67c111610108578063107a67c11461021c57806312fa6feb146102475780631f2698ab1461027257806322f3e2d41461029d57806328ed6e3f146102c85780632de40ce31461030557610140565b80630628884f1461014557806306fdde03146101705780630803efa11461019b57806309eaf723146101c65780630eecae21146101f1575b600080fd5b34801561015157600080fd5b5061015a6104f1565b6040516101679190611d24565b60405180910390f35b34801561017c57600080fd5b5061018561050a565b6040516101929190611d3f565b60405180910390f35b3480156101a757600080fd5b506101b0610547565b6040516101bd9190611f21565b60405180910390f35b3480156101d257600080fd5b506101db61057a565b6040516101e89190611f21565b60405180910390f35b3480156101fd57600080fd5b506102066105ad565b6040516102139190611d24565b60405180910390f35b34801561022857600080fd5b50610231610643565b60405161023e9190611d24565b60405180910390f35b34801561025357600080fd5b5061025c610656565b6040516102699190611f21565b60405180910390f35b34801561027e57600080fd5b5061028761065c565b6040516102949190611f21565b60405180910390f35b3480156102a957600080fd5b506102b2610662565b6040516102bf9190611d24565b60405180910390f35b3480156102d457600080fd5b506102ef60048036038101906102ea9190611a47565b61066e565b6040516102fc9190611f21565b60405180910390f35b34801561031157600080fd5b5061031a610689565b6040516103279190611f21565b60405180910390f35b34801561033c57600080fd5b5061034561068f565b6040516103529190611d24565b60405180910390f35b34801561036757600080fd5b5061037061074e565b60405161037d9190611cc4565b60405180910390f35b34801561039257600080fd5b5061039b610774565b6040516103a89190611f21565b60405180910390f35b3480156103bd57600080fd5b506103d860048036038101906103d39190611a47565b61077a565b6040516103e89493929190611cdf565b60405180910390f35b3480156103fd57600080fd5b5061041860048036038101906104139190611a47565b6107da565b005b34801561042657600080fd5b5061042f610df9565b60405161043c9190611f21565b60405180910390f35b34801561045157600080fd5b5061045a610dff565b6040516104679190611cc4565b60405180910390f35b34801561047c57600080fd5b50610485610e25565b005b34801561049357600080fd5b5061049c610f74565b6040516104a99190611cc4565b60405180910390f35b6104ba611232565b005b3480156104c857600080fd5b506104d16114e0565b6040516104de9190611cc4565b60405180910390f35b6104ef611506565b005b60006004546005546105039190611f81565b4211905090565b60606040518060400160405280600b81526020017f5469632054616320546f65000000000000000000000000000000000000000000815250905090565b60008060026008546105599190612008565b9050606460038261056a9190612008565b6105749190611fd7565b91505090565b600080600260085461058c9190612008565b90506000610598610547565b905080826105a69190612062565b9250505090565b60008073ffffffffffffffffffffffffffffffffffffffff166105ce610f74565b73ffffffffffffffffffffffffffffffffffffffff1614156105f35760009050610640565b60005b600981101561063a576000600c8260098110610615576106146121e9565b5b01541415610627576000915050610640565b808061063290612111565b9150506105f6565b50600190505b90565b600260149054906101000a900460ff1681565b60065481565b60055481565b60008060065414905090565b600c816009811061067e57600080fd5b016000915090505481565b60035481565b6000806005541480156107495750600073ffffffffffffffffffffffffffffffffffffffff16600a60009054906101000a900473ffffffffffffffffffffffffffffffffffffffff1673ffffffffffffffffffffffffffffffffffffffff1614806107485750600073ffffffffffffffffffffffffffffffffffffffff16600b60009054906101000a900473ffffffffffffffffffffffffffffffffffffffff1673ffffffffffffffffffffffffffffffffffffffff16145b5b905090565b600a60009054906101000a900473ffffffffffffffffffffffffffffffffffffffff1681565b60045481565b6007818154811061078a57600080fd5b90600052602060002090600402016000915090508060000160009054906101000a900473ffffffffffffffffffffffffffffffffffffffff16908060010154908060020154908060030154905084565b600a60009054906101000a900473ffffffffffffffffffffffffffffffffffffffff1673ffffffffffffffffffffffffffffffffffffffff163373ffffffffffffffffffffffffffffffffffffffff1614806108835750600b60009054906101000a900473ffffffffffffffffffffffffffffffffffffffff1673ffffffffffffffffffffffffffffffffffffffff163373ffffffffffffffffffffffffffffffffffffffff16145b6108c2576040517f08c379a00000000000000000000000000000000000000000000000000000000081526004016108b990611f01565b60405180910390fd5b6108ca6104f1565b1580156108dc57506108da6105ad565b155b801561091b5750600073ffffffffffffffffffffffffffffffffffffffff16610903610f74565b73ffffffffffffffffffffffffffffffffffffffff16145b61095a576040517f08c379a000000000000000000000000000000000000000000000000000000000815260040161095190611ea1565b60405180910390fd5b6000600260155461096b919061215a565b1415610a0657600a60009054906101000a900473ffffffffffffffffffffffffffffffffffffffff1673ffffffffffffffffffffffffffffffffffffffff163373ffffffffffffffffffffffffffffffffffffffff1614610a01576040517f08c379a00000000000000000000000000000000000000000000000000000000081526004016109f890611dc1565b60405180910390fd5b610a97565b600b60009054906101000a900473ffffffffffffffffffffffffffffffffffffffff1673ffffffffffffffffffffffffffffffffffffffff163373ffffffffffffffffffffffffffffffffffffffff1614610a96576040517f08c379a0000000000000000000000000000000000000000000000000000000008152600401610a8d90611de1565b60405180910390fd5b5b610aa0816117b5565b610adf576040517f08c379a0000000000000000000000000000000000000000000000000000000008152600401610ad690611da1565b60405180910390fd5b610ae981336117d6565b7f497812b01ff165a007aa81c3114dcf1a845c6600e7f4a77140fd40b3fecc4c5e336015548342604051610b209493929190611cdf565b60405180910390a1600760405180608001604052803373ffffffffffffffffffffffffffffffffffffffff168152602001428152602001601554815260200183815250908060018154018082558091505060019003906000526020600020906004020160009091909190915060008201518160000160006101000a81548173ffffffffffffffffffffffffffffffffffffffff021916908373ffffffffffffffffffffffffffffffffffffffff160217905550602082015181600101556040820151816002015560608201518160030155505060006015541415610c3d57426005819055507f15c31b378fee2efea3851fc8df2703df8520c1b1aa494d0831dc80156298967e42604051610c349190611f21565b60405180910390a15b600160156000828254610c509190611f81565b925050819055506000610c61610f74565b9050610c6b6105ad565b15610cb9577f2dc14f7487788ddd321b39fd8256f7f77b4a99e1837268540d1f9da7665d7fb342601554604051610ca3929190611f3c565b60405180910390a1610cb48161186c565b610df5565b600a60009054906101000a900473ffffffffffffffffffffffffffffffffffffffff1673ffffffffffffffffffffffffffffffffffffffff168173ffffffffffffffffffffffffffffffffffffffff161415610d58577fcdef3250e361aac4cee51835c298f24b9ba32432bc2608640ec09c41ffe22ceb42601554604051610d42929190611f3c565b60405180910390a1610d538161186c565b610df4565b600b60009054906101000a900473ffffffffffffffffffffffffffffffffffffffff1673ffffffffffffffffffffffffffffffffffffffff168173ffffffffffffffffffffffffffffffffffffffff161415610df3577f6b5343a10db945b8bfb7a248d756f4ac2d5513bd7c36f6589583cb959067c82742601554604051610de1929190611f3c565b60405180910390a1610df28161186c565b5b5b5b5050565b60155481565b600260009054906101000a900473ffffffffffffffffffffffffffffffffffffffff1681565b600160009054906101000a900473ffffffffffffffffffffffffffffffffffffffff1673ffffffffffffffffffffffffffffffffffffffff163373ffffffffffffffffffffffffffffffffffffffff1614610eb5576040517f08c379a0000000000000000000000000000000000000000000000000000000008152600401610eac90611e61565b60405180910390fd5b60006006541180610eca5750610ec96104f1565b5b610f09576040517f08c379a0000000000000000000000000000000000000000000000000000000008152600401610f0090611e21565b60405180910390fd5b600160009054906101000a900473ffffffffffffffffffffffffffffffffffffffff1673ffffffffffffffffffffffffffffffffffffffff166108fc479081150290604051600060405180830381858888f19350505050158015610f71573d6000803e3d6000fd5b50565b600080600090506000600190505b600281116112285760005b600381101561106d576001925060005b6003811015610ff55782600c82600385610fb79190612008565b610fc19190611f81565b60098110610fd257610fd16121e9565b5b015414610fe25760009350610ff5565b8080610fed90612111565b915050610f9d565b50821561105a576001821461102c57600b60009054906101000a900473ffffffffffffffffffffffffffffffffffffffff16611050565b600a60009054906101000a900473ffffffffffffffffffffffffffffffffffffffff165b935050505061122f565b808061106590612111565b915050610f8d565b5060005b6003811015611151576001925060005b60038110156110d95782600c8360038461109b9190612008565b6110a59190611f81565b600981106110b6576110b56121e9565b5b0154146110c657600093506110d9565b80806110d190612111565b915050611081565b50821561113e576001821461111057600b60009054906101000a900473ffffffffffffffffffffffffffffffffffffffff16611134565b600a60009054906101000a900473ffffffffffffffffffffffffffffffffffffffff165b935050505061122f565b808061114990612111565b915050611071565b506001915060005b60038110156111b15781600c826003846111739190612008565b61117d9190611f81565b6009811061118e5761118d6121e9565b5b01541461119e57600092506111b1565b80806111a990612111565b915050611159565b50811561121557600181146111e857600b60009054906101000a900473ffffffffffffffffffffffffffffffffffffffff1661120c565b600a60009054906101000a900473ffffffffffffffffffffffffffffffffffffffff165b9250505061122f565b808061122090612111565b915050610f82565b5060009150505b90565b600073ffffffffffffffffffffffffffffffffffffffff16600b60009054906101000a900473ffffffffffffffffffffffffffffffffffffffff1673ffffffffffffffffffffffffffffffffffffffff16146112c3576040517f08c379a00000000000000000000000000000000000000000000000000000000081526004016112ba90611e01565b60405180910390fd5b600260149054906101000a900460ff1661136857600260009054906101000a900473ffffffffffffffffffffffffffffffffffffffff1673ffffffffffffffffffffffffffffffffffffffff163373ffffffffffffffffffffffffffffffffffffffff1614611367576040517f08c379a000000000000000000000000000000000000000000000000000000000815260040161135e90611d81565b60405180910390fd5b5b3373ffffffffffffffffffffffffffffffffffffffff16600a60009054906101000a900473ffffffffffffffffffffffffffffffffffffffff1673ffffffffffffffffffffffffffffffffffffffff1614156113f9576040517f08c379a00000000000000000000000000000000000000000000000000000000081526004016113f090611ec1565b60405180910390fd5b6000543411801561140c57506008543410155b61144b576040517f08c379a000000000000000000000000000000000000000000000000000000000815260040161144290611d61565b60405180910390fd5b600060085411801561145e575060085434115b1561148a57600854346114719190612062565b600960008282546114829190611f81565b925050819055505b6000600854141561149d57346008819055505b33600b60006101000a81548173ffffffffffffffffffffffffffffffffffffffff021916908373ffffffffffffffffffffffffffffffffffffffff160217905550565b600b60009054906101000a900473ffffffffffffffffffffffffffffffffffffffff1681565b600073ffffffffffffffffffffffffffffffffffffffff16600a60009054906101000a900473ffffffffffffffffffffffffffffffffffffffff1673ffffffffffffffffffffffffffffffffffffffff1614611597576040517f08c379a000000000000000000000000000000000000000000000000000000000815260040161158e90611e81565b60405180910390fd5b600260149054906101000a900460ff161561163d57600260009054906101000a900473ffffffffffffffffffffffffffffffffffffffff1673ffffffffffffffffffffffffffffffffffffffff163373ffffffffffffffffffffffffffffffffffffffff161461163c576040517f08c379a000000000000000000000000000000000000000000000000000000000815260040161163390611e41565b60405180910390fd5b5b3373ffffffffffffffffffffffffffffffffffffffff16600b60009054906101000a900473ffffffffffffffffffffffffffffffffffffffff1673ffffffffffffffffffffffffffffffffffffffff1614156116ce576040517f08c379a00000000000000000000000000000000000000000000000000000000081526004016116c590611ee1565b60405180910390fd5b600054341180156116e157506008543410155b611720576040517f08c379a000000000000000000000000000000000000000000000000000000000815260040161171790611d61565b60405180910390fd5b6000600854118015611733575060085434115b1561175f57600854346117469190612062565b600960008282546117579190611f81565b925050819055505b6000600854141561177257346008819055505b33600a60006101000a81548173ffffffffffffffffffffffffffffffffffffffff021916908373ffffffffffffffffffffffffffffffffffffffff160217905550565b600080600c83600981106117cc576117cb6121e9565b5b0154149050919050565b600a60009054906101000a900473ffffffffffffffffffffffffffffffffffffffff1673ffffffffffffffffffffffffffffffffffffffff168173ffffffffffffffffffffffffffffffffffffffff16141561184c576001600c8360098110611842576118416121e9565b5b0181905550611868565b6002600c8360098110611862576118616121e9565b5b01819055505b5050565b426006819055507f482bebcb5c2e346358c8f5f779b363bdb5ecc4adad3b0f3ba207d410ab59dcee426015546040516118a6929190611f3c565b60405180910390a1600073ffffffffffffffffffffffffffffffffffffffff168173ffffffffffffffffffffffffffffffffffffffff1614156119e057600a60009054906101000a900473ffffffffffffffffffffffffffffffffffffffff1673ffffffffffffffffffffffffffffffffffffffff166108fc600261192961057a565b6119339190611fd7565b9081150290604051600060405180830381858888f1935050505015801561195e573d6000803e3d6000fd5b50600b60009054906101000a900473ffffffffffffffffffffffffffffffffffffffff1673ffffffffffffffffffffffffffffffffffffffff166108fc60026119a561057a565b6119af9190611fd7565b9081150290604051600060405180830381858888f193505050501580156119da573d6000803e3d6000fd5b50611a2f565b8073ffffffffffffffffffffffffffffffffffffffff166108fc611a0261057a565b9081150290604051600060405180830381858888f19350505050158015611a2d573d6000803e3d6000fd5b505b50565b600081359050611a41816124de565b92915050565b600060208284031215611a5d57611a5c612218565b5b6000611a6b84828501611a32565b91505092915050565b611a7d81612096565b82525050565b611a8c816120a8565b82525050565b6000611a9d82611f65565b611aa78185611f70565b9350611ab78185602086016120de565b611ac08161221d565b840191505092915050565b6000611ad8602083611f70565b9150611ae38261222e565b602082019050919050565b6000611afb601c83611f70565b9150611b0682612257565b602082019050919050565b6000611b1e602083611f70565b9150611b2982612280565b602082019050919050565b6000611b41601483611f70565b9150611b4c826122a9565b602082019050919050565b6000611b64601483611f70565b9150611b6f826122d2565b602082019050919050565b6000611b87601e83611f70565b9150611b92826122fb565b602082019050919050565b6000611baa601c83611f70565b9150611bb582612324565b602082019050919050565b6000611bcd601c83611f70565b9150611bd88261234d565b602082019050919050565b6000611bf0601a83611f70565b9150611bfb82612376565b602082019050919050565b6000611c13601e83611f70565b9150611c1e8261239f565b602082019050919050565b6000611c36601c83611f70565b9150611c41826123c8565b602082019050919050565b6000611c59602783611f70565b9150611c64826123f1565b604082019050919050565b6000611c7c602783611f70565b9150611c8782612440565b604082019050919050565b6000611c9f602583611f70565b9150611caa8261248f565b604082019050919050565b611cbe816120d4565b82525050565b6000602082019050611cd96000830184611a74565b92915050565b6000608082019050611cf46000830187611a74565b611d016020830186611cb5565b611d0e6040830185611cb5565b611d1b6060830184611cb5565b95945050505050565b6000602082019050611d396000830184611a83565b92915050565b60006020820190508181036000830152611d598184611a92565b905092915050565b60006020820190508181036000830152611d7a81611acb565b9050919050565b60006020820190508181036000830152611d9a81611aee565b9050919050565b60006020820190508181036000830152611dba81611b11565b9050919050565b60006020820190508181036000830152611dda81611b34565b9050919050565b60006020820190508181036000830152611dfa81611b57565b9050919050565b60006020820190508181036000830152611e1a81611b7a565b9050919050565b60006020820190508181036000830152611e3a81611b9d565b9050919050565b60006020820190508181036000830152611e5a81611bc0565b9050919050565b60006020820190508181036000830152611e7a81611be3565b9050919050565b60006020820190508181036000830152611e9a81611c06565b9050919050565b60006020820190508181036000830152611eba81611c29565b9050919050565b60006020820190508181036000830152611eda81611c4c565b9050919050565b60006020820190508181036000830152611efa81611c6f565b9050919050565b60006020820190508181036000830152611f1a81611c92565b9050919050565b6000602082019050611f366000830184611cb5565b92915050565b6000604082019050611f516000830185611cb5565b611f5e6020830184611cb5565b9392505050565b600081519050919050565b600082825260208201905092915050565b6000611f8c826120d4565b9150611f97836120d4565b9250827fffffffffffffffffffffffffffffffffffffffffffffffffffffffffffffffff03821115611fcc57611fcb61218b565b5b828201905092915050565b6000611fe2826120d4565b9150611fed836120d4565b925082611ffd57611ffc6121ba565b5b828204905092915050565b6000612013826120d4565b915061201e836120d4565b9250817fffffffffffffffffffffffffffffffffffffffffffffffffffffffffffffffff04831182151516156120575761205661218b565b5b828202905092915050565b600061206d826120d4565b9150612078836120d4565b92508282101561208b5761208a61218b565b5b828203905092915050565b60006120a1826120b4565b9050919050565b60008115159050919050565b600073ffffffffffffffffffffffffffffffffffffffff82169050919050565b6000819050919050565b60005b838110156120fc5780820151818401526020810190506120e1565b8381111561210b576000848401525b50505050565b600061211c826120d4565b91507fffffffffffffffffffffffffffffffffffffffffffffffffffffffffffffffff82141561214f5761214e61218b565b5b600182019050919050565b6000612165826120d4565b9150612170836120d4565b9250826121805761217f6121ba565b5b828206905092915050565b7f4e487b7100000000000000000000000000000000000000000000000000000000600052601160045260246000fd5b7f4e487b7100000000000000000000000000000000000000000000000000000000600052601260045260246000fd5b7f4e487b7100000000000000000000000000000000000000000000000000000000600052603260045260246000fd5b600080fd5b6000601f19601f8301169050919050565b7f412062657420697320726571756972656420746f207061727469636970617465600082015250565b7f506c61796572204f20697320616c726561647920726573657276656400000000600082015250565b7f5468617420706f736974696f6e20697320616c726561647920706c6179656421600082015250565b7f49747320706c6179657220582773207475726e21000000000000000000000000600082015250565b7f49747320706c61796572204f2773207475726e21000000000000000000000000600082015250565b7f506c61796572204f20697320616c726561647920726567697374657265640000600082015250565b7f546869732067616d6520686173206e6f7420656e646564207965742100000000600082015250565b7f506c61796572205820697320616c726561647920726573657276656400000000600082015250565b7f4f6e6c7920616c6c6f77656420666f7220746865206f6e776572000000000000600082015250565b7f506c61796572205820697320616c726561647920726567697374657265640000600082015250565b7f546869732067616d652068617320616c726561647920656e6465642100000000600082015250565b7f506c61796572204f2063616e6e6f74206265207468652073616d65206173207060008201527f6c61796572205800000000000000000000000000000000000000000000000000602082015250565b7f506c6179657220582063616e6e6f74206265207468652073616d65206173207060008201527f6c61796572204f00000000000000000000000000000000000000000000000000602082015250565b7f4f6e6c7920616c6c6f77656420666f7220706c6179657273206f66207468697360008201527f2067616d65000000000000000000000000000000000000000000000000000000602082015250565b6124e7816120d4565b81146124f257600080fd5b5056fea26469706673582212205118859cfbd335d5ac6056f187f7adee7cc5a22e9a772fca008ebb80bf7907ed64736f6c63430008060033",
  "immutableReferences": {},
  "source": "// SPDX-License-Identifier: MIT\npragma solidity ^0.8.0;\n\nimport './Game.sol';\n\ncontract TicTacToe is Game {\n\n  event Registered(uint _when, address _who, bool _isX);\n  event PlayerXJoined(address _who, uint _when);\n  event PlayerOJoined(address _who, uint _when);\n  event FirstMove(uint _when);\n  event Move(address _who, uint _turn, uint _pos, uint _when);\n  event End(uint _when, uint _turn);\n  event Draw(uint _when, uint _turn);\n  event XWin(uint _when, uint _turn);\n  event OWin(uint _when, uint _turn);\n\n  struct Movement {\n    address who;\n    uint when;\n    uint turn;\n    uint pos;\n  }\n\n  uint minBet = 0.001 ether;\n  address _owner = msg.sender;\n  address public registrator;\n  bool public registratorIsX;\n\n  // timestamps\n  uint public registered = block.timestamp;\n  uint public timeout = 1 hours;\n  uint public started;\n  uint public ended;\n\n  // record movements\n  Movement[] public moves;\n\n  uint private bet = 0;\n  uint private tip = 0;\n\n  address public playerX;\n  address public playerO;\n\n  uint[9] public board;\n  uint public turn;\n\n  modifier onlyPlayers() {\n    require(msg.sender == playerX || msg.sender == playerO, \"Only allowed for players of this game\");\n    _;\n  }\n\n  modifier onlyOwner() {\n    require(msg.sender == _owner, \"Only allowed for the onwer\");\n    _;\n  }\n\n  modifier activeGame() {\n    require(!hasTimedOut() && !draw() && winner() == address(0), \"This game has already ended!\");\n    _;\n  }\n\n  modifier onlyClosedGame() {\n    require(ended > 0 || hasTimedOut(), \"This game has not ended yet!\");\n    _;\n  }\n\n  constructor(address _registrator, bool _isX) {\n    registrator = _registrator;\n    registratorIsX = _isX;\n    emit Registered(registered, _registrator, _isX);\n  }\n\n  function name() override external pure returns (string memory) {\n    return \"Tic Tac Toe\";\n  }\n\n  function isActive() override external view returns (bool) {\n    return ended == 0;\n  }\n\n  function isOpen() override external view returns (bool) {\n    return started == 0 && (playerX == address(0) || playerO == address(0));\n  }\n\n  function hasTimedOut() public view returns (bool) {\n    return block.timestamp > started + timeout;\n  }\n\n  function registerX() external payable {\n    require(playerX == address(0), \"Player X is already registered\");\n    if (registratorIsX) {\n      require(msg.sender == registrator, \"Player X is already reserved\");\n    }\n    require(playerO != msg.sender, \"Player X cannot be the same as player O\");\n    require(msg.value > minBet && msg.value >= bet, \"A bet is required to participate\");\n    if (bet > 0 && msg.value > bet) {\n      // thanks for the tip to the casino\n      tip += msg.value - bet;\n    }\n    if (bet == 0) {\n      bet = msg.value;\n    }\n    playerX = msg.sender;\n  }\n\n  function registerO() external payable {\n    require(playerO == address(0), \"Player O is already registered\");\n    if (!registratorIsX) {\n      require(msg.sender == registrator, \"Player O is already reserved\");\n    }\n    require(playerX != msg.sender, \"Player O cannot be the same as player X\");\n    require(msg.value > minBet && msg.value >= bet, \"A bet is required to participate\");\n    if (bet > 0 && msg.value > bet) {\n      // thanks for the tip to the casino\n      tip += msg.value - bet;\n    }\n    if (bet == 0) {\n      bet = msg.value;\n    }\n    playerO = msg.sender;\n  }\n\n  function isEmpty(uint _pos) internal view returns (bool) {\n    return board[_pos] == 0;\n  }\n\n  function mark(uint _pos, address _who) private {\n    if (_who == playerX) {\n      board[_pos] = 1;\n    } else {\n      board[_pos] = 2;\n    }\n  }\n\n  function closeGame(address _winner) internal {\n    ended = block.timestamp;\n    emit End(block.timestamp, turn);\n\n    if (_winner == address(0)) {\n      // Draw - split in half (minus fee)\n      payable(playerX).transfer(calculateEarnings()/2);\n      payable(playerO).transfer(calculateEarnings()/2);\n    } else {\n      payable(_winner).transfer(calculateEarnings());\n    }\n  }\n\n  function move(uint _pos) external onlyPlayers activeGame {\n    // check if we are in the correct turn\n    if (turn % 2 == 0) {\n      require(msg.sender == playerX, \"Its player X's turn!\");\n    } else {\n      require(msg.sender == playerO, \"Its player O's turn!\");\n    }\n\n    // check that the position is clear\n    require(isEmpty(_pos), \"That position is already played!\");\n\n    // mark the position\n    mark(_pos, msg.sender);\n\n    // register the movement\n    emit Move(msg.sender, turn, _pos, block.timestamp);\n    moves.push(Movement(msg.sender, block.timestamp, turn, _pos));\n\n    // register the first movement\n    if (turn == 0) {\n      started = block.timestamp;\n      emit FirstMove(block.timestamp);\n    }\n\n    // advance turn\n    turn += 1;\n\n    // check if the game has ended\n    address _winner = winner();\n    \n    if (draw()) {\n      emit Draw(block.timestamp, turn);\n      closeGame(_winner);\n    }\n    else if (_winner == playerX) {\n      emit XWin(block.timestamp, turn);\n      closeGame(_winner);\n    }\n    else if (_winner == playerO) {\n      emit OWin(block.timestamp, turn);\n      closeGame(_winner);\n    }\n  }\n\n  function calculateCasinoFee() public view returns (uint) {\n    uint pot = bet * 2;\n    return pot * 3/100;\n  }\n\n  function calculateEarnings() public view returns (uint) {\n    uint pot = bet * 2;\n    uint fee = calculateCasinoFee();\n    return pot - fee;\n  }\n\n  function winner() public view returns (address) {\n    bool win = false;\n    for (uint p = 1; p <= 2; p++) {\n      // check rows\n      for (uint i = 0; i < 3; i++) {\n        win = true;\n        for (uint j = 0; j < 3; j++) {\n          if (board[i * 3 + j] != p) {\n            win = false;\n            break;\n          }\n        }\n        if (win) {\n          return p == 1? playerX : playerO;\n        }\n      }\n      // check columns\n      for (uint i = 0; i < 3; i++) {\n        win = true;\n        for (uint j = 0; j < 3; j++) {\n          if (board[j * 3 + i] != p) {\n            win = false;\n            break;\n          }\n        }\n        if (win) {\n          return p == 1? playerX : playerO;\n        }\n      }\n      // check diagonals\n      win = true;\n      for (uint i = 0; i < 3; i++) {\n        if (board[i * 3 + i] != p) {\n          win = false;\n          break;\n        }\n      }\n      if (win) {\n        return p == 1? playerX : playerO;\n      }\n    }\n    return address(0);\n  }\n\n  function draw() public view returns (bool) {\n    if (winner() == address(0)) {\n      return false;\n    }\n    for (uint i = 0; i < 9; i++) {\n      if (board[i] == 0) {\n        return false;\n      }\n    }\n    return true;\n  }\n\n  function claimFees() external onlyOwner onlyClosedGame {\n    // TODO: make it fair - only claim cash that went unclaimed ... TODO: add a threshold? force claim by owner after a timeout?\n    // What happens if it times out???\n    // The winner should be whoever moved last? or draw?\n    // Probably this will be the caller anyway, audited by the casino\n    payable(_owner).transfer(address(this).balance);\n  }\n}\n",
  "sourcePath": "D:\\Projects\\BlockchainBootcamp2021\\final-project\\contracts\\TicTacToe.sol",
  "compiler": {
    "name": "solc",
    "version": "0.8.6+commit.11564f7e.Emscripten.clang"
  },
  "schemaVersion": "3.4.3",
  "updatedAt": "2021-11-12T17:17:55.985Z",
  "devdoc": {
    "kind": "dev",
    "methods": {},
    "version": 1
  },
  "userdoc": {
    "kind": "user",
    "methods": {},
    "version": 1
  }
}